{
  "_format": "hh-sol-artifact-1",
  "contractName": "ProjectsRegistry",
  "sourceName": "src/contracts/ProjectsRegistry.sol",
  "abi": [
    {
      "constant": true,
      "inputs": [
        {
          "name": "",
          "type": "uint256"
        }
      ],
      "name": "projectIds",
      "outputs": [
        {
          "name": "",
          "type": "uint256"
        }
      ],
      "payable": false,
      "stateMutability": "view",
      "type": "function"
    },
    {
      "constant": false,
      "inputs": [],
      "name": "renounceOwnership",
      "outputs": [],
      "payable": false,
      "stateMutability": "nonpayable",
      "type": "function"
    },
    {
      "constant": false,
      "inputs": [
        {
          "name": "_projectId",
          "type": "uint256"
        },
        {
          "name": "_proposedIpfsHash",
          "type": "string"
        },
        {
          "name": "_proposerEmail",
          "type": "string"
        },
        {
          "name": "_authorizationSignature",
          "type": "bytes"
        }
      ],
      "name": "proposeProjectEdit",
      "outputs": [],
      "payable": false,
      "stateMutability": "nonpayable",
      "type": "function"
    },
    {
      "constant": true,
      "inputs": [],
      "name": "owner",
      "outputs": [
        {
          "name": "",
          "type": "address"
        }
      ],
      "payable": false,
      "stateMutability": "view",
      "type": "function"
    },
    {
      "constant": true,
      "inputs": [],
      "name": "isOwner",
      "outputs": [
        {
          "name": "",
          "type": "bool"
        }
      ],
      "payable": false,
      "stateMutability": "view",
      "type": "function"
    },
    {
      "constant": false,
      "inputs": [],
      "name": "registryInitialize",
      "outputs": [],
      "payable": false,
      "stateMutability": "nonpayable",
      "type": "function"
    },
    {
      "constant": true,
      "inputs": [
        {
          "name": "",
          "type": "uint256"
        }
      ],
      "name": "projectsDescription",
      "outputs": [
        {
          "name": "proposalIpfsHash",
          "type": "string"
        },
        {
          "name": "authorAddress",
          "type": "address"
        },
        {
          "name": "authorEmail",
          "type": "string"
        },
        {
          "name": "isCreated",
          "type": "bool"
        },
        {
          "name": "auditIpfsHash",
          "type": "string"
        }
      ],
      "payable": false,
      "stateMutability": "view",
      "type": "function"
    },
    {
      "constant": false,
      "inputs": [
        {
          "name": "_projectId",
          "type": "uint256"
        },
        {
          "name": "_initialProposalIpfsHash",
          "type": "string"
        }
      ],
      "name": "createProject",
      "outputs": [],
      "payable": false,
      "stateMutability": "nonpayable",
      "type": "function"
    },
    {
      "constant": false,
      "inputs": [
        {
          "name": "sender",
          "type": "address"
        }
      ],
      "name": "initialize",
      "outputs": [],
      "payable": false,
      "stateMutability": "nonpayable",
      "type": "function"
    },
    {
      "constant": true,
      "inputs": [],
      "name": "getProjectsLength",
      "outputs": [
        {
          "name": "",
          "type": "uint256"
        }
      ],
      "payable": false,
      "stateMutability": "view",
      "type": "function"
    },
    {
      "constant": false,
      "inputs": [
        {
          "name": "newOwner",
          "type": "address"
        }
      ],
      "name": "transferOwnership",
      "outputs": [],
      "payable": false,
      "stateMutability": "nonpayable",
      "type": "function"
    },
    {
      "constant": false,
      "inputs": [
        {
          "name": "_projectId",
          "type": "uint256"
        },
        {
          "name": "_proposalIpfsHash",
          "type": "string"
        },
        {
          "name": "_auditIpfsHash",
          "type": "string"
        },
        {
          "name": "_authorAddress",
          "type": "address"
        },
        {
          "name": "_approved",
          "type": "bool"
        }
      ],
      "name": "submitProjectEditAuditResult",
      "outputs": [],
      "payable": false,
      "stateMutability": "nonpayable",
      "type": "function"
    },
    {
      "constant": true,
      "inputs": [
        {
          "name": "",
          "type": "uint256"
        },
        {
          "name": "",
          "type": "address"
        }
      ],
      "name": "pendingEdits",
      "outputs": [
        {
          "name": "proposalIpfsHash",
          "type": "string"
        },
        {
          "name": "authorAddress",
          "type": "address"
        },
        {
          "name": "authorEmail",
          "type": "string"
        },
        {
          "name": "isCreated",
          "type": "bool"
        },
        {
          "name": "auditIpfsHash",
          "type": "string"
        }
      ],
      "payable": false,
      "stateMutability": "view",
      "type": "function"
    },
    {
      "anonymous": false,
      "inputs": [
        {
          "indexed": false,
          "name": "id",
          "type": "uint256"
        },
        {
          "indexed": false,
          "name": "ipfsHash",
          "type": "string"
        }
      ],
      "name": "ProjectCreated",
      "type": "event"
    },
    {
      "anonymous": false,
      "inputs": [
        {
          "indexed": false,
          "name": "id",
          "type": "uint256"
        },
        {
          "indexed": false,
          "name": "proposer",
          "type": "address"
        },
        {
          "indexed": false,
          "name": "proposedIpfsHash",
          "type": "string"
        }
      ],
      "name": "ProjectEditProposed",
      "type": "event"
    },
    {
      "anonymous": false,
      "inputs": [
        {
          "indexed": false,
          "name": "id",
          "type": "uint256"
        },
        {
          "indexed": false,
          "name": "proposer",
          "type": "address"
        },
        {
          "indexed": false,
          "name": "proposalIpfsHash",
          "type": "string"
        },
        {
          "indexed": false,
          "name": "auditIpfsHash",
          "type": "string"
        },
        {
          "indexed": false,
          "name": "approved",
          "type": "bool"
        }
      ],
      "name": "ProjectEditAudited",
      "type": "event"
    },
    {
      "anonymous": false,
      "inputs": [
        {
          "indexed": true,
          "name": "previousOwner",
          "type": "address"
        },
        {
          "indexed": true,
          "name": "newOwner",
          "type": "address"
        }
      ],
      "name": "OwnershipTransferred",
      "type": "event"
    }
  ],
  "bytecode": "0x6080604052611a57806100136000396000f3fe608060405234801561001057600080fd5b50600436106100b25760e060020a600035046348c35ad481146100b7578063715018a6146100e6578063843d160a146100f05780638da5cb5b146102055780638f32d59b146102295780639506ec0114610245578063b4796ce21461024d578063bf1a8003146103d2578063c4d66de814610447578063c6bdc0a21461046d578063f2fde38b14610475578063f5cdd9c21461049b578063fd2ca96b14610571575b600080fd5b6100d4600480360360208110156100cd57600080fd5b503561059d565b60408051918252519081900360200190f35b6100ee6105bb565b005b6100ee6004803603608081101561010657600080fd5b81359190810190604081016020820135602060020a81111561012757600080fd5b82018360208201111561013957600080fd5b803590602001918460018302840111602060020a8311171561015a57600080fd5b919390929091602081019035602060020a81111561017757600080fd5b82018360208201111561018957600080fd5b803590602001918460018302840111602060020a831117156101aa57600080fd5b919390929091602081019035602060020a8111156101c757600080fd5b8201836020820111156101d957600080fd5b803590602001918460018302840111602060020a831117156101fa57600080fd5b50909250905061063d565b61020d61096a565b60408051600160a060020a039092168252519081900360200190f35b61023161097a565b604080519115158252519081900360200190f35b6100ee6109a0565b61026a6004803603602081101561026357600080fd5b5035610a4e565b604051808060200186600160a060020a0316600160a060020a03168152602001806020018515151515815260200180602001848103845289818151815260200191508051906020019080838360005b838110156102d15781810151838201526020016102b9565b50505050905090810190601f1680156102fe5780820380516001836020036101000a031916815260200191505b50848103835287518152875160209182019189019080838360005b83811015610331578181015183820152602001610319565b50505050905090810190601f16801561035e5780820380516001836020036101000a031916815260200191505b50848103825285518152855160209182019187019080838360005b83811015610391578181015183820152602001610379565b50505050905090810190601f1680156103be5780820380516001836020036101000a031916815260200191505b509850505050505050505060405180910390f35b6100ee600480360360408110156103e857600080fd5b81359190810190604081016020820135602060020a81111561040957600080fd5b82018360208201111561041b57600080fd5b803590602001918460018302840111602060020a8311171561043c57600080fd5b509092509050610c2e565b6100ee6004803603602081101561045d57600080fd5b5035600160a060020a0316610e91565b6100d4610f74565b6100ee6004803603602081101561048b57600080fd5b5035600160a060020a0316610f7a565b6100ee600480360360a08110156104b157600080fd5b81359190810190604081016020820135602060020a8111156104d257600080fd5b8201836020820111156104e457600080fd5b803590602001918460018302840111602060020a8311171561050557600080fd5b919390929091602081019035602060020a81111561052257600080fd5b82018360208201111561053457600080fd5b803590602001918460018302840111602060020a8311171561055557600080fd5b9193509150600160a060020a0381351690602001351515610fcd565b61026a6004803603604081101561058757600080fd5b5080359060200135600160a060020a03166113a6565b606681815481106105aa57fe5b600091825260209091200154905081565b6105c361097a565b610605576040805160e560020a62461bcd02815260206004820181905260248201526000805160206119be833981519152604482015290519081900360640190fd5b603354604051600091600160a060020a0316906000805160206119de833981519152908390a360338054600160a060020a0319169055565b61064561097a565b610687576040805160e560020a62461bcd02815260206004820181905260248201526000805160206119be833981519152604482015290519081900360640190fd5b60008781526068602052604090206003015460ff166106da5760405160e560020a62461bcd02815260040180806020018281038252602281526020018061199c6022913960400191505060405180910390fd5b600061078f6107538989898080601f01602080910402602001604051908101604052809392919081815260200183838082843760009201919091525050604080516020601f8d018190048102820181019092528b815292508b91508a908190840183828082843760009201919091525061141992505050565b84848080601f01602080910402602001604051908101604052809392919081815260200183838082843760009201919091525061151c92505050565b6040805160c06020601f8b01819004028201810190925260a081018981529293509182918a908a9081908501838280828437600092019190915250505090825250600160a060020a03831660208083019190915260408051601f89018390048302810183018252888152920191908890889081908401838280828437600092018290525093855250506001602080850191909152604080518083018252848152948101949094528c835260678152838320600160a060020a038716845281529290912083518051919361086793508492910190611786565b50602082810151600183018054600160a060020a031916600160a060020a03909216919091179055604083015180516108a69260028501920190611786565b50606082015160038201805460ff1916911515919091179055608082015180516108da916004840191602090910190611786565b509050507f9d3acfaf4cf0f7ca2755c0330b02196b1d84ace88b6ee78448155159f4215b82888289896040518085815260200184600160a060020a0316600160a060020a03168152602001806020018281038252848482818152602001925080828437600083820152604051601f909101601f191690920182900397509095505050505050a15050505050505050565b603354600160a060020a03165b90565b603354600090600160a060020a03166109916115db565b600160a060020a031614905090565b600054610100900460ff16806109b957506109b96115df565b806109c7575060005460ff16155b610a055760405160e560020a62461bcd02815260040180806020018281038252602e8152602001806119fe602e913960400191505060405180910390fd5b600054610100900460ff16158015610a30576000805460ff1961ff0019909116610100171660011790555b610a3933610e91565b8015610a4b576000805461ff00191690555b50565b60686020908152600091825260409182902080548351601f60026000196101006001861615020190931692909204918201849004840281018401909452808452909291839190830182828015610ae55780601f10610aba57610100808354040283529160200191610ae5565b820191906000526020600020905b815481529060010190602001808311610ac857829003601f168201915b505050506001838101546002808601805460408051602061010097841615979097026000190190921693909304601f81018690048602820186019093528281529596600160a060020a03909316959294509192830182828015610b895780601f10610b5e57610100808354040283529160200191610b89565b820191906000526020600020905b815481529060010190602001808311610b6c57829003601f168201915b50505050600383015460048401805460408051602060026101006001861615026000190190941693909304601f8101849004840282018401909252818152959660ff9094169593945090830182828015610c245780601f10610bf957610100808354040283529160200191610c24565b820191906000526020600020905b815481529060010190602001808311610c0757829003601f168201915b5050505050905085565b610c3661097a565b610c78576040805160e560020a62461bcd02815260206004820181905260248201526000805160206119be833981519152604482015290519081900360640190fd5b60008381526068602052604090206003015460ff1615610ce2576040805160e560020a62461bcd02815260206004820152601e60248201527f5468652070726f6a65637420697320616c726561647920637265617465640000604482015290519081900360640190fd5b6040518060a0016040528083838080601f01602080910402602001604051908101604052809392919081815260200183838082843760009201829052509385525050336020808501919091526040805180830182528481528186015260016060860152805180830182528481526080909501949094528783526068815292909120835180519193610d7893508492910190611786565b50602082810151600183018054600160a060020a031916600160a060020a0390921691909117905560408301518051610db79260028501920190611786565b50606082015160038201805460ff191691151591909117905560808201518051610deb916004840191602090910190611786565b5050606680546001810182556000919091527f46501879b8ca8525e8c2fd519e2fbfcfa2ebea26501294aa02cbfcfb12e94354018490555060408051848152602081018281529181018390527fed06d1e70f1faa0e1750def1b3a1d942390a8f47d03679c9025a1c38dc34fe7b918591859185919060608201848480828437600083820152604051601f909101601f1916909201829003965090945050505050a1505050565b600054610100900460ff1680610eaa5750610eaa6115df565b80610eb8575060005460ff16155b610ef65760405160e560020a62461bcd02815260040180806020018281038252602e8152602001806119fe602e913960400191505060405180910390fd5b600054610100900460ff16158015610f21576000805460ff1961ff0019909116610100171660011790555b60338054600160a060020a031916600160a060020a0384811691909117918290556040519116906000906000805160206119de833981519152908290a38015610f70576000805461ff00191690555b5050565b60665490565b610f8261097a565b610fc4576040805160e560020a62461bcd02815260206004820181905260248201526000805160206119be833981519152604482015290519081900360640190fd5b610a4b816115e5565b610fd561097a565b611017576040805160e560020a62461bcd02815260206004820181905260248201526000805160206119be833981519152604482015290519081900360640190fd5b6000878152606760209081526040808320600160a060020a03861684529091529020600381015460ff16611095576040805160e560020a62461bcd02815260206004820152601f60248201527f5468652070656e64696e67206564697420646f65736e27742065786973747300604482015290519081900360640190fd5b805460408051602060026001851615610100026000190190941693909304601f8101849004840282018401909252818152611160929091849183018282801561111f5780601f106110f45761010080835404028352916020019161111f565b820191906000526020600020905b81548152906001019060200180831161110257829003601f168201915b505050505088888080601f01602080910402602001604051908101604052809392919081815260200183838082843760009201919091525061167792505050565b61119e5760405160e560020a62461bcd0281526004018080602001828103825260348152602001806119686034913960400191505060405180910390fd5b8115611279576111b2600482018686611804565b50600088815260686020526040902081548291906111e6908290849060026000196101006001841615020190911604611872565b506001828101548282018054600160a060020a031916600160a060020a0390921691909117905560028084018054611231938386019390821615610100026000190190911604611872565b50600382810154908201805460ff191660ff909216151591909117905560048083018054611275928401919060026101006001831615026000190190911604611872565b5050505b6000888152606760209081526040808320600160a060020a03871684529091528120906112a682826118e7565b600182018054600160a060020a03191690556112c66002830160006118e7565b60038201805460ff191690556112e06004830160006118e7565b50507f632679850203170fccc7c6abaef76a269cbb5d0ec94f498416071a78c9f7d502888489898989886040518088815260200187600160a060020a0316600160a060020a031681526020018060200180602001841515151581526020018381038352888882818152602001925080828437600083820152601f01601f191690910184810383528681526020019050868680828437600083820152604051601f909101601f19169092018290039b50909950505050505050505050a15050505050505050565b606760209081526000928352604080842082529183529181902080548251601f600260001961010060018616150201909316929092049182018590048502810185019093528083529092839190830182828015610ae55780601f10610aba57610100808354040283529160200191610ae5565b6000838383604051602001808481526020018060200180602001838103835285818151815260200191508051906020019080838360005b83811015611468578181015183820152602001611450565b50505050905090810190601f1680156114955780820380516001836020036101000a031916815260200191505b50838103825284518152845160209182019186019080838360005b838110156114c85781810151838201526020016114b0565b50505050905090810190601f1680156114f55780820380516001836020036101000a031916815260200191505b50955050505050506040516020818303038152906040528051906020012090509392505050565b6000806040518060400160405280601c81526020017f19457468657265756d205369676e6564204d6573736167653a0a333200000000815250846040516020018083805190602001908083835b602083106115885780518252601f199092019160209182019101611569565b51815160209384036101000a6000190180199092169116179052920193845250604080518085038152938201905282519201919091209250600091506115d0905082856116a2565b925050505b92915050565b3390565b303b1590565b600160a060020a03811661162d5760405160e560020a62461bcd0281526004018080602001828103825260268152602001806119426026913960400191505060405180910390fd5b603354604051600160a060020a038084169216906000805160206119de83398151915290600090a360338054600160a060020a031916600160a060020a0392909216919091179055565b6000815183511461168a575060006115d5565b818051906020012083805190602001201490506115d5565b600081516041146116b5575060006115d5565b60208201516040830151606084015160001a6fa2a8918ca85bafe22016d0b997e4df6060ff60020a038211156116f157600093505050506115d5565b8060ff16601b1415801561170957508060ff16601c14155b1561171a57600093505050506115d5565b6040805160008152602080820180845289905260ff8416828401526060820186905260808201859052915160019260a0808401939192601f1981019281900390910190855afa158015611771573d6000803e3d6000fd5b5050604051601f190151979650505050505050565b828054600181600116156101000203166002900490600052602060002090601f016020900481019282601f106117c757805160ff19168380011785556117f4565b828001600101855582156117f4579182015b828111156117f45782518255916020019190600101906117d9565b50611800929150611927565b5090565b828054600181600116156101000203166002900490600052602060002090601f016020900481019282601f106118455782800160ff198235161785556117f4565b828001600101855582156117f4579182015b828111156117f4578235825591602001919060010190611857565b828054600181600116156101000203166002900490600052602060002090601f016020900481019282601f106118ab57805485556117f4565b828001600101855582156117f457600052602060002091601f016020900482015b828111156117f45782548255916001019190600101906118cc565b50805460018160011615610100020316600290046000825580601f1061190d5750610a4b565b601f016020900490600052602060002090810190610a4b91905b61097791905b80821115611800576000815560010161192d56fe4f776e61626c653a206e6577206f776e657220697320746865207a65726f20616464726573735468652070656e64696e67206564697420646f65736e2774206861766520746865206970667320686173682073656c656374656450726f6a656374206265696e672065646974656420646f65736e27742065786973744f776e61626c653a2063616c6c6572206973206e6f7420746865206f776e65728be0079c531659141344cd1fd0a4f28419497f9722a3daafe3b4186f6b6457e0436f6e747261637420696e7374616e63652068617320616c7265616479206265656e20696e697469616c697a6564a165627a7a72305820f2b03114bdc8f5d8e483543b961677b58edbcce890dccc0fb3fa1c029e2fc04c0029",
  "linkReferences": {},
  "deployedLinkReferences": {}
}