{
  "_format": "hh-sol-artifact-1",
  "contractName": "ProjectsRegistryV1ForTests",
  "sourceName": "src/tests/contracts/mockUpgrades/ProjectsRegistryV1ForTests.sol",
  "abi": [
    {
      "constant": true,
      "inputs": [],
      "name": "stringVariable",
      "outputs": [
        {
          "name": "",
          "type": "string"
        }
      ],
      "payable": false,
      "stateMutability": "view",
      "type": "function"
    },
    {
      "constant": false,
      "inputs": [
        {
          "name": "_projectId",
          "type": "string"
        },
        {
          "name": "_proposalIpfsHash",
          "type": "string"
        },
        {
          "name": "_auditIpfsHash",
          "type": "string"
        },
        {
          "name": "_authorAddress",
          "type": "address"
        },
        {
          "name": "_approved",
          "type": "bool"
        }
      ],
      "name": "submitProjectEditAuditResult",
      "outputs": [],
      "payable": false,
      "stateMutability": "nonpayable",
      "type": "function"
    },
    {
      "constant": false,
      "inputs": [
        {
          "name": "_owner",
          "type": "address"
        },
        {
          "name": "_initialVariable",
          "type": "string"
        }
      ],
      "name": "registryUpgradeToV1",
      "outputs": [],
      "payable": false,
      "stateMutability": "nonpayable",
      "type": "function"
    },
    {
      "constant": true,
      "inputs": [
        {
          "name": "",
          "type": "uint256"
        }
      ],
      "name": "projectIds",
      "outputs": [
        {
          "name": "",
          "type": "string"
        }
      ],
      "payable": false,
      "stateMutability": "view",
      "type": "function"
    },
    {
      "constant": true,
      "inputs": [
        {
          "name": "",
          "type": "string"
        },
        {
          "name": "",
          "type": "address"
        }
      ],
      "name": "pendingEdits",
      "outputs": [
        {
          "name": "proposalIpfsHash",
          "type": "string"
        },
        {
          "name": "authorAddress",
          "type": "address"
        },
        {
          "name": "authorEmail",
          "type": "string"
        },
        {
          "name": "isCreated",
          "type": "bool"
        },
        {
          "name": "auditIpfsHash",
          "type": "string"
        }
      ],
      "payable": false,
      "stateMutability": "view",
      "type": "function"
    },
    {
      "constant": true,
      "inputs": [],
      "name": "version",
      "outputs": [
        {
          "name": "",
          "type": "uint16"
        }
      ],
      "payable": false,
      "stateMutability": "pure",
      "type": "function"
    },
    {
      "constant": false,
      "inputs": [
        {
          "name": "_projectId",
          "type": "string"
        },
        {
          "name": "_initialProposalIpfsHash",
          "type": "string"
        }
      ],
      "name": "createProject",
      "outputs": [],
      "payable": false,
      "stateMutability": "nonpayable",
      "type": "function"
    },
    {
      "constant": true,
      "inputs": [
        {
          "name": "",
          "type": "string"
        }
      ],
      "name": "projectsDescription",
      "outputs": [
        {
          "name": "proposalIpfsHash",
          "type": "string"
        },
        {
          "name": "authorAddress",
          "type": "address"
        },
        {
          "name": "authorEmail",
          "type": "string"
        },
        {
          "name": "isCreated",
          "type": "bool"
        },
        {
          "name": "auditIpfsHash",
          "type": "string"
        }
      ],
      "payable": false,
      "stateMutability": "view",
      "type": "function"
    },
    {
      "constant": false,
      "inputs": [],
      "name": "renounceOwnership",
      "outputs": [],
      "payable": false,
      "stateMutability": "nonpayable",
      "type": "function"
    },
    {
      "constant": true,
      "inputs": [],
      "name": "owner",
      "outputs": [
        {
          "name": "",
          "type": "address"
        }
      ],
      "payable": false,
      "stateMutability": "view",
      "type": "function"
    },
    {
      "constant": true,
      "inputs": [],
      "name": "isOwner",
      "outputs": [
        {
          "name": "",
          "type": "bool"
        }
      ],
      "payable": false,
      "stateMutability": "view",
      "type": "function"
    },
    {
      "constant": false,
      "inputs": [],
      "name": "registryInitialize",
      "outputs": [],
      "payable": false,
      "stateMutability": "nonpayable",
      "type": "function"
    },
    {
      "constant": false,
      "inputs": [
        {
          "name": "_projectId",
          "type": "string"
        },
        {
          "name": "_proposedIpfsHash",
          "type": "string"
        },
        {
          "name": "_proposerEmail",
          "type": "string"
        },
        {
          "name": "_authorizationSignature",
          "type": "bytes"
        }
      ],
      "name": "proposeProjectEdit",
      "outputs": [],
      "payable": false,
      "stateMutability": "nonpayable",
      "type": "function"
    },
    {
      "constant": false,
      "inputs": [
        {
          "name": "sender",
          "type": "address"
        }
      ],
      "name": "initialize",
      "outputs": [],
      "payable": false,
      "stateMutability": "nonpayable",
      "type": "function"
    },
    {
      "constant": true,
      "inputs": [],
      "name": "getProjectsLength",
      "outputs": [
        {
          "name": "",
          "type": "uint256"
        }
      ],
      "payable": false,
      "stateMutability": "view",
      "type": "function"
    },
    {
      "constant": false,
      "inputs": [
        {
          "name": "newValue",
          "type": "string"
        }
      ],
      "name": "setVariable",
      "outputs": [],
      "payable": false,
      "stateMutability": "nonpayable",
      "type": "function"
    },
    {
      "constant": false,
      "inputs": [
        {
          "name": "newOwner",
          "type": "address"
        }
      ],
      "name": "transferOwnership",
      "outputs": [],
      "payable": false,
      "stateMutability": "nonpayable",
      "type": "function"
    },
    {
      "anonymous": false,
      "inputs": [
        {
          "indexed": false,
          "name": "id",
          "type": "string"
        },
        {
          "indexed": false,
          "name": "ipfsHash",
          "type": "string"
        }
      ],
      "name": "ProjectCreated",
      "type": "event"
    },
    {
      "anonymous": false,
      "inputs": [
        {
          "indexed": false,
          "name": "id",
          "type": "string"
        },
        {
          "indexed": false,
          "name": "proposer",
          "type": "address"
        },
        {
          "indexed": false,
          "name": "proposedIpfsHash",
          "type": "string"
        }
      ],
      "name": "ProjectEditProposed",
      "type": "event"
    },
    {
      "anonymous": false,
      "inputs": [
        {
          "indexed": false,
          "name": "id",
          "type": "string"
        },
        {
          "indexed": false,
          "name": "proposer",
          "type": "address"
        },
        {
          "indexed": false,
          "name": "proposalIpfsHash",
          "type": "string"
        },
        {
          "indexed": false,
          "name": "auditIpfsHash",
          "type": "string"
        },
        {
          "indexed": false,
          "name": "approved",
          "type": "bool"
        }
      ],
      "name": "ProjectEditAudited",
      "type": "event"
    },
    {
      "anonymous": false,
      "inputs": [
        {
          "indexed": true,
          "name": "previousOwner",
          "type": "address"
        },
        {
          "indexed": true,
          "name": "newOwner",
          "type": "address"
        }
      ],
      "name": "OwnershipTransferred",
      "type": "event"
    }
  ],
  "bytecode": "0x6080604052612220806100136000396000f3fe608060405234801561001057600080fd5b50600436106100de5760e060020a6000350463117b246781146100e35780631b1bcfd71461016057806323870ff21461028157806348c35ad4146102ff578063497c7bcc1461031c57806354fd4d50146105335780636bd062041461055257806370daad3514610610578063715018a6146106b45780638da5cb5b146106bc5780638f32d59b146106e05780639506ec01146106fc578063997c1cf814610704578063c4d66de814610862578063c6bdc0a214610888578063d746afa6146108a2578063f2fde38b14610946575b600080fd5b6100eb61096c565b6040805160208082528351818301528351919283929083019185019080838360005b8381101561012557818101518382015260200161010d565b50505050905090810190601f1680156101525780820380516001836020036101000a031916815260200191505b509250505060405180910390f35b61027f600480360360a081101561017657600080fd5b810190602081018135602060020a81111561019057600080fd5b8201836020820111156101a257600080fd5b803590602001918460018302840111602060020a831117156101c357600080fd5b919390929091602081019035602060020a8111156101e057600080fd5b8201836020820111156101f257600080fd5b803590602001918460018302840111602060020a8311171561021357600080fd5b919390929091602081019035602060020a81111561023057600080fd5b82018360208201111561024257600080fd5b803590602001918460018302840111602060020a8311171561026357600080fd5b9193509150600160a060020a03813516906020013515156109fa565b005b61027f6004803603604081101561029757600080fd5b600160a060020a038235169190810190604081016020820135602060020a8111156102c157600080fd5b8201836020820111156102d357600080fd5b803590602001918460018302840111602060020a831117156102f457600080fd5b509092509050610e4a565b6100eb6004803603602081101561031557600080fd5b5035610f2c565b6103cb6004803603604081101561033257600080fd5b810190602081018135602060020a81111561034c57600080fd5b82018360208201111561035e57600080fd5b803590602001918460018302840111602060020a8311171561037f57600080fd5b91908080601f01602080910402602001604051908101604052809392919081815260200183838082843760009201919091525092955050509035600160a060020a03169150610f9f9050565b604051808060200186600160a060020a0316600160a060020a03168152602001806020018515151515815260200180602001848103845289818151815260200191508051906020019080838360005b8381101561043257818101518382015260200161041a565b50505050905090810190601f16801561045f5780820380516001836020036101000a031916815260200191505b50848103835287518152875160209182019189019080838360005b8381101561049257818101518382015260200161047a565b50505050905090810190601f1680156104bf5780820380516001836020036101000a031916815260200191505b50848103825285518152855160209182019187019080838360005b838110156104f25781810151838201526020016104da565b50505050905090810190601f16801561051f5780820380516001836020036101000a031916815260200191505b509850505050505050505060405180910390f35b61053b611196565b6040805161ffff9092168252519081900360200190f35b61027f6004803603604081101561056857600080fd5b810190602081018135602060020a81111561058257600080fd5b82018360208201111561059457600080fd5b803590602001918460018302840111602060020a831117156105b557600080fd5b919390929091602081019035602060020a8111156105d257600080fd5b8201836020820111156105e457600080fd5b803590602001918460018302840111602060020a8311171561060557600080fd5b50909250905061119c565b6103cb6004803603602081101561062657600080fd5b810190602081018135602060020a81111561064057600080fd5b82018360208201111561065257600080fd5b803590602001918460018302840111602060020a8311171561067357600080fd5b91908080601f016020809104026020016040519081016040528093929190818152602001838380828437600092019190915250929550611465945050505050565b61027f6114dd565b6106c461155f565b60408051600160a060020a039092168252519081900360200190f35b6106e861156e565b604080519115158252519081900360200190f35b61027f611594565b61027f6004803603608081101561071a57600080fd5b810190602081018135602060020a81111561073457600080fd5b82018360208201111561074657600080fd5b803590602001918460018302840111602060020a8311171561076757600080fd5b919390929091602081019035602060020a81111561078457600080fd5b82018360208201111561079657600080fd5b803590602001918460018302840111602060020a831117156107b757600080fd5b919390929091602081019035602060020a8111156107d457600080fd5b8201836020820111156107e657600080fd5b803590602001918460018302840111602060020a8311171561080757600080fd5b919390929091602081019035602060020a81111561082457600080fd5b82018360208201111561083657600080fd5b803590602001918460018302840111602060020a8311171561085757600080fd5b509092509050611642565b61027f6004803603602081101561087857600080fd5b5035600160a060020a03166119ff565b610890611ae2565b60408051918252519081900360200190f35b61027f600480360360208110156108b857600080fd5b810190602081018135602060020a8111156108d257600080fd5b8201836020820111156108e457600080fd5b803590602001918460018302840111602060020a8311171561090557600080fd5b91908080601f016020809104026020016040519081016040528093929190818152602001838380828437600092019190915250929550611ae8945050505050565b61027f6004803603602081101561095c57600080fd5b5035600160a060020a0316611afb565b609b805460408051602060026001851615610100026000190190941693909304601f810184900484028201840190925281815292918301828280156109f25780601f106109c7576101008083540402835291602001916109f2565b820191906000526020600020905b8154815290600101906020018083116109d557829003601f168201915b505050505081565b610a0261156e565b610a44576040805160e560020a62461bcd0281526020600482018190526024820152600080516020612156833981519152604482015290519081900360640190fd5b600060678989604051808383808284379190910194855250506040805160209481900385019020600160a060020a03881660009081529452909220600381015490935060ff169150610ae29050576040805160e560020a62461bcd02815260206004820152601f60248201527f5468652070656e64696e67206564697420646f65736e27742065786973747300604482015290519081900360640190fd5b805460408051602060026001851615610100026000190190941693909304601f8101849004840282018401909252818152610bad9290918491830182828015610b6c5780601f10610b4157610100808354040283529160200191610b6c565b820191906000526020600020905b815481529060010190602001808311610b4f57829003601f168201915b505050505088888080601f016020809104026020016040519081016040528093929190818152602001838380828437600092019190915250611b4e92505050565b610beb5760405160e560020a62461bcd0281526004018080602001828103825260348152602001806121006034913960400191505060405180910390fd5b8115610cde57610bff600482018686611f1a565b508060688a8a60405180838380828437919091019485525050604051928390036020019092208354909250610c4b91508290849060026000196101006001841615020190911604611f98565b506001828101548282018054600160a060020a031916600160a060020a0390921691909117905560028084018054610c96938386019390821615610100026000190190911604611f98565b50600382810154908201805460ff191660ff909216151591909117905560048083018054610cda928401919060026101006001831615026000190190911604611f98565b5050505b60678989604051808383808284379190910194855250506040805160209481900385019020600160a060020a038816600090815294528320929150610d259050828261200d565b600182018054600160a060020a0319169055610d4560028301600061200d565b60038201805460ff19169055610d5f60048301600061200d565b50507f252b7d02d7d5047f2194233e05df062b2bc5fd5fcfb45cbaf9bf9414ede86cff8989858a8a8a8a89604051808060200188600160a060020a0316600160a060020a0316815260200180602001806020018515151515815260200184810384528c8c82818152602001925080828437600083820152601f01601f191690910185810384528981526020019050898980828437600083820152601f01601f191690910185810383528781526020019050878780828437600083820152604051601f909101601f19169092018290039d50909b505050505050505050505050a1505050505050505050565b609c54610100900460ff1680610e635750609c5460ff16155b610ea15760405160e560020a62461bcd0281526004018080602001828103825260318152602001806121c46031913960400191505060405180910390fd5b609c54610100900460ff16158015610ecc57609c805460ff1961ff0019909116610100171660011790555b610ed584611b7b565b610f1483838080601f016020809104026020016040519081016040528093929190818152602001838380828437600092019190915250611ae892505050565b8015610f2657609c805461ff00191690555b50505050565b60668181548110610f3957fe5b600091825260209182902001805460408051601f60026000196101006001871615020190941693909304928301859004850281018501909152818152935090918301828280156109f25780601f106109c7576101008083540402835291602001916109f2565b8151602081840181018051606782529282019482019490942091909352825260009081526040908190208054825160026001831615610100026000190190921691909104601f810185900485028201850190935282815290929091839183018282801561104d5780601f106110225761010080835404028352916020019161104d565b820191906000526020600020905b81548152906001019060200180831161103057829003601f168201915b505050506001838101546002808601805460408051602061010097841615979097026000190190921693909304601f81018690048602820186019093528281529596600160a060020a039093169592945091928301828280156110f15780601f106110c6576101008083540402835291602001916110f1565b820191906000526020600020905b8154815290600101906020018083116110d457829003601f168201915b50505050600383015460048401805460408051602060026101006001861615026000190190941693909304601f8101849004840282018401909252818152959660ff909416959394509083018282801561118c5780601f106111615761010080835404028352916020019161118c565b820191906000526020600020905b81548152906001019060200180831161116f57829003601f168201915b5050505050905085565b60015b90565b6111a461156e565b6111e6576040805160e560020a62461bcd0281526020600482018190526024820152600080516020612156833981519152604482015290519081900360640190fd5b6068848460405180838380828437919091019485525050604051928390036020019092206003015460ff1615915061126a9050576040805160e560020a62461bcd02815260206004820152601e60248201527f5468652070726f6a65637420697320616c726561647920637265617465640000604482015290519081900360640190fd5b6040518060a0016040528083838080601f0160208091040260200160405190810160405280939291908181526020018383808284376000920182905250938552505033602080850191909152604080518083018252848152818601526001606086015280519182018152928152608090930192909252516068915086908690808383808284379190910194855250506040516020938190038401902084518051919461131b94508593500190612051565b50602082810151600183018054600160a060020a031916600160a060020a039092169190911790556040830151805161135a9260028501920190612051565b50606082015160038201805460ff19169115159190911790556080820151805161138e916004840191602090910190612051565b505060668054600181018083556000929092529091506113d1907f46501879b8ca8525e8c2fd519e2fbfcfa2ebea26501294aa02cbfcfb12e94354018686611f1a565b50507f26f2fdea3bb1b2426520673c50722318b7d9795d23e7fb676de91909b7451d07848484846040518080602001806020018381038352878782818152602001925080828437600083820152601f01601f191690910184810383528581526020019050858580828437600083820152604051601f909101601f19169092018290039850909650505050505050a150505050565b805160208183018101805160688252928201938201939093209190925280546040805160026001841615610100026000190190931692909204601f810185900485028301850190915280825291929091839183018282801561104d5780601f106110225761010080835404028352916020019161104d565b6114e561156e565b611527576040805160e560020a62461bcd0281526020600482018190526024820152600080516020612156833981519152604482015290519081900360640190fd5b603354604051600091600160a060020a031690600080516020612176833981519152908390a360338054600160a060020a0319169055565b603354600160a060020a031690565b603354600090600160a060020a0316611585611c0d565b600160a060020a031614905090565b600054610100900460ff16806115ad57506115ad611c11565b806115bb575060005460ff16155b6115f95760405160e560020a62461bcd02815260040180806020018281038252602e815260200180612196602e913960400191505060405180910390fd5b600054610100900460ff16158015611624576000805460ff1961ff0019909116610100171660011790555b61162d336119ff565b801561163f576000805461ff00191690555b50565b61164a61156e565b61168c576040805160e560020a62461bcd0281526020600482018190526024820152600080516020612156833981519152604482015290519081900360640190fd5b6068888860405180838380828437919091019485525050604051928390036020019092206003015460ff1691506116f990505760405160e560020a62461bcd0281526004018080602001828103825260228152602001806121346022913960400191505060405180910390fd5b60006117e16117a58a8a8080601f01602080910402602001604051908101604052809392919081815260200183838082843760009201919091525050604080516020601f8e018190048102820181019092528c815292508c91508b908190840183828082843760009201919091525050604080516020601f8d018190048102820181019092528b815292508b91508a9081908401838280828437600092019190915250611c1792505050565b84848080601f016020809104026020016040519081016040528093929190818152602001838380828437600092019190915250611d7992505050565b6040805160c06020601f8b01819004028201810190925260a081018981529293509182918a908a9081908501838280828437600092019190915250505090825250600160a060020a03831660208083019190915260408051601f890183900483028101830182528881529201919088908890819084018382808284376000920182905250938552505060016020808501919091526040805191820181529281529282019290925251606791508b908b90808383808284379190910194855250506040805160209481900385019020600160a060020a0387166000908152908552208451805191946118d794508593500190612051565b50602082810151600183018054600160a060020a031916600160a060020a03909216919091179055604083015180516119169260028501920190612051565b50606082015160038201805460ff19169115159190911790556080820151805161194a916004840191602090910190612051565b509050507fe6ffe2c44f955d47bc43ab81a761c580aa52b45ee48ea2a68bc566d42f13f0938989838a8a604051808060200185600160a060020a0316600160a060020a03168152602001806020018381038352888882818152602001925080828437600083820152601f01601f191690910184810383528581526020019050858580828437600083820152604051601f909101601f1916909201829003995090975050505050505050a1505050505050505050565b600054610100900460ff1680611a185750611a18611c11565b80611a26575060005460ff16155b611a645760405160e560020a62461bcd02815260040180806020018281038252602e815260200180612196602e913960400191505060405180910390fd5b600054610100900460ff16158015611a8f576000805460ff1961ff0019909116610100171660011790555b60338054600160a060020a031916600160a060020a038481169190911791829055604051911690600090600080516020612176833981519152908290a38015611ade576000805461ff00191690555b5050565b60665490565b8051611ade90609b906020840190612051565b611b0361156e565b611b45576040805160e560020a62461bcd0281526020600482018190526024820152600080516020612156833981519152604482015290519081900360640190fd5b61163f81611b7b565b60008151835114611b6157506000611b75565b818051906020012083805190602001201490505b92915050565b600160a060020a038116611bc35760405160e560020a62461bcd0281526004018080602001828103825260268152602001806120da6026913960400191505060405180910390fd5b603354604051600160a060020a0380841692169060008051602061217683398151915290600090a360338054600160a060020a031916600160a060020a0392909216919091179055565b3390565b303b1590565b600083838360405160200180806020018060200180602001848103845287818151815260200191508051906020019080838360005b83811015611c64578181015183820152602001611c4c565b50505050905090810190601f168015611c915780820380516001836020036101000a031916815260200191505b50848103835286518152865160209182019188019080838360005b83811015611cc4578181015183820152602001611cac565b50505050905090810190601f168015611cf15780820380516001836020036101000a031916815260200191505b50848103825285518152855160209182019187019080838360005b83811015611d24578181015183820152602001611d0c565b50505050905090810190601f168015611d515780820380516001836020036101000a031916815260200191505b5096505050505050506040516020818303038152906040528051906020012090509392505050565b6000806040518060400160405280601c81526020017f19457468657265756d205369676e6564204d6573736167653a0a333200000000815250846040516020018083805190602001908083835b60208310611de55780518252601f199092019160209182019101611dc6565b51815160209384036101000a600019018019909216911617905292019384525060408051808503815293820190528251920191909120925060009150611e2d90508285611e36565b95945050505050565b60008151604114611e4957506000611b75565b60208201516040830151606084015160001a6fa2a8918ca85bafe22016d0b997e4df6060ff60020a03821115611e855760009350505050611b75565b8060ff16601b14158015611e9d57508060ff16601c14155b15611eae5760009350505050611b75565b6040805160008152602080820180845289905260ff8416828401526060820186905260808201859052915160019260a0808401939192601f1981019281900390910190855afa158015611f05573d6000803e3d6000fd5b5050604051601f190151979650505050505050565b828054600181600116156101000203166002900490600052602060002090601f016020900481019282601f10611f5b5782800160ff19823516178555611f88565b82800160010185558215611f88579182015b82811115611f88578235825591602001919060010190611f6d565b50611f949291506120bf565b5090565b828054600181600116156101000203166002900490600052602060002090601f016020900481019282601f10611fd15780548555611f88565b82800160010185558215611f8857600052602060002091601f016020900482015b82811115611f88578254825591600101919060010190611ff2565b50805460018160011615610100020316600290046000825580601f10612033575061163f565b601f01602090049060005260206000209081019061163f91906120bf565b828054600181600116156101000203166002900490600052602060002090601f016020900481019282601f1061209257805160ff1916838001178555611f88565b82800160010185558215611f88579182015b82811115611f885782518255916020019190600101906120a4565b61119991905b80821115611f9457600081556001016120c556fe4f776e61626c653a206e6577206f776e657220697320746865207a65726f20616464726573735468652070656e64696e67206564697420646f65736e2774206861766520746865206970667320686173682073656c656374656450726f6a656374206265696e672065646974656420646f65736e27742065786973744f776e61626c653a2063616c6c6572206973206e6f7420746865206f776e65728be0079c531659141344cd1fd0a4f28419497f9722a3daafe3b4186f6b6457e0436f6e747261637420696e7374616e63652068617320616c7265616479206265656e20696e697469616c697a6564436f6e747261637420696e7374616e63652068617320616c7265616479206265656e20757067726164656420746f207631a165627a7a723058209064744faf8016044a87e737bdfa895a40ca758deaa8820bd19bf6618be1fd7a0029",
  "linkReferences": {},
  "deployedLinkReferences": {}
}