{
  "_format": "hh-sol-artifact-1",
  "contractName": "ProjectsRegistry",
  "sourceName": "src/contracts/ProjectsRegistry.sol",
  "abi": [
    {
      "constant": false,
      "inputs": [
        {
          "name": "_projectId",
          "type": "string"
        },
        {
          "name": "_proposalIpfsHash",
          "type": "string"
        },
        {
          "name": "_auditIpfsHash",
          "type": "string"
        },
        {
          "name": "_authorAddress",
          "type": "address"
        },
        {
          "name": "_approved",
          "type": "bool"
        }
      ],
      "name": "submitProjectEditAuditResult",
      "outputs": [],
      "payable": false,
      "stateMutability": "nonpayable",
      "type": "function"
    },
    {
      "constant": true,
      "inputs": [
        {
          "name": "",
          "type": "uint256"
        }
      ],
      "name": "projectIds",
      "outputs": [
        {
          "name": "",
          "type": "string"
        }
      ],
      "payable": false,
      "stateMutability": "view",
      "type": "function"
    },
    {
      "constant": true,
      "inputs": [
        {
          "name": "",
          "type": "string"
        },
        {
          "name": "",
          "type": "address"
        }
      ],
      "name": "pendingEdits",
      "outputs": [
        {
          "name": "proposalIpfsHash",
          "type": "string"
        },
        {
          "name": "authorAddress",
          "type": "address"
        },
        {
          "name": "authorEmail",
          "type": "string"
        },
        {
          "name": "isCreated",
          "type": "bool"
        },
        {
          "name": "auditIpfsHash",
          "type": "string"
        }
      ],
      "payable": false,
      "stateMutability": "view",
      "type": "function"
    },
    {
      "constant": false,
      "inputs": [
        {
          "name": "_projectId",
          "type": "string"
        },
        {
          "name": "_initialProposalIpfsHash",
          "type": "string"
        }
      ],
      "name": "createProject",
      "outputs": [],
      "payable": false,
      "stateMutability": "nonpayable",
      "type": "function"
    },
    {
      "constant": true,
      "inputs": [
        {
          "name": "",
          "type": "string"
        }
      ],
      "name": "projectsDescription",
      "outputs": [
        {
          "name": "proposalIpfsHash",
          "type": "string"
        },
        {
          "name": "authorAddress",
          "type": "address"
        },
        {
          "name": "authorEmail",
          "type": "string"
        },
        {
          "name": "isCreated",
          "type": "bool"
        },
        {
          "name": "auditIpfsHash",
          "type": "string"
        }
      ],
      "payable": false,
      "stateMutability": "view",
      "type": "function"
    },
    {
      "constant": false,
      "inputs": [],
      "name": "renounceOwnership",
      "outputs": [],
      "payable": false,
      "stateMutability": "nonpayable",
      "type": "function"
    },
    {
      "constant": true,
      "inputs": [],
      "name": "owner",
      "outputs": [
        {
          "name": "",
          "type": "address"
        }
      ],
      "payable": false,
      "stateMutability": "view",
      "type": "function"
    },
    {
      "constant": true,
      "inputs": [],
      "name": "isOwner",
      "outputs": [
        {
          "name": "",
          "type": "bool"
        }
      ],
      "payable": false,
      "stateMutability": "view",
      "type": "function"
    },
    {
      "constant": false,
      "inputs": [],
      "name": "registryInitialize",
      "outputs": [],
      "payable": false,
      "stateMutability": "nonpayable",
      "type": "function"
    },
    {
      "constant": false,
      "inputs": [
        {
          "name": "_projectId",
          "type": "string"
        },
        {
          "name": "_proposedIpfsHash",
          "type": "string"
        },
        {
          "name": "_proposerEmail",
          "type": "string"
        },
        {
          "name": "_authorizationSignature",
          "type": "bytes"
        }
      ],
      "name": "proposeProjectEdit",
      "outputs": [],
      "payable": false,
      "stateMutability": "nonpayable",
      "type": "function"
    },
    {
      "constant": false,
      "inputs": [
        {
          "name": "sender",
          "type": "address"
        }
      ],
      "name": "initialize",
      "outputs": [],
      "payable": false,
      "stateMutability": "nonpayable",
      "type": "function"
    },
    {
      "constant": true,
      "inputs": [],
      "name": "getProjectsLength",
      "outputs": [
        {
          "name": "",
          "type": "uint256"
        }
      ],
      "payable": false,
      "stateMutability": "view",
      "type": "function"
    },
    {
      "constant": false,
      "inputs": [
        {
          "name": "newOwner",
          "type": "address"
        }
      ],
      "name": "transferOwnership",
      "outputs": [],
      "payable": false,
      "stateMutability": "nonpayable",
      "type": "function"
    },
    {
      "anonymous": false,
      "inputs": [
        {
          "indexed": false,
          "name": "id",
          "type": "string"
        },
        {
          "indexed": false,
          "name": "ipfsHash",
          "type": "string"
        }
      ],
      "name": "ProjectCreated",
      "type": "event"
    },
    {
      "anonymous": false,
      "inputs": [
        {
          "indexed": false,
          "name": "id",
          "type": "string"
        },
        {
          "indexed": false,
          "name": "proposer",
          "type": "address"
        },
        {
          "indexed": false,
          "name": "proposedIpfsHash",
          "type": "string"
        }
      ],
      "name": "ProjectEditProposed",
      "type": "event"
    },
    {
      "anonymous": false,
      "inputs": [
        {
          "indexed": false,
          "name": "id",
          "type": "string"
        },
        {
          "indexed": false,
          "name": "proposer",
          "type": "address"
        },
        {
          "indexed": false,
          "name": "proposalIpfsHash",
          "type": "string"
        },
        {
          "indexed": false,
          "name": "auditIpfsHash",
          "type": "string"
        },
        {
          "indexed": false,
          "name": "approved",
          "type": "bool"
        }
      ],
      "name": "ProjectEditAudited",
      "type": "event"
    },
    {
      "anonymous": false,
      "inputs": [
        {
          "indexed": true,
          "name": "previousOwner",
          "type": "address"
        },
        {
          "indexed": true,
          "name": "newOwner",
          "type": "address"
        }
      ],
      "name": "OwnershipTransferred",
      "type": "event"
    }
  ],
  "bytecode": "0x6080604052611f25806100136000396000f3fe608060405234801561001057600080fd5b50600436106100b25760e060020a60003504631b1bcfd781146100b757806348c35ad4146101d8578063497c7bcc1461026a5780636bd062041461048157806370daad351461053f578063715018a6146105e35780638da5cb5b146105eb5780638f32d59b1461060f5780639506ec011461062b578063997c1cf814610633578063c4d66de814610791578063c6bdc0a2146107b7578063f2fde38b146107d1575b600080fd5b6101d6600480360360a08110156100cd57600080fd5b810190602081018135602060020a8111156100e757600080fd5b8201836020820111156100f957600080fd5b803590602001918460018302840111602060020a8311171561011a57600080fd5b919390929091602081019035602060020a81111561013757600080fd5b82018360208201111561014957600080fd5b803590602001918460018302840111602060020a8311171561016a57600080fd5b919390929091602081019035602060020a81111561018757600080fd5b82018360208201111561019957600080fd5b803590602001918460018302840111602060020a831117156101ba57600080fd5b9193509150600160a060020a03813516906020013515156107f7565b005b6101f5600480360360208110156101ee57600080fd5b5035610c47565b6040805160208082528351818301528351919283929083019185019080838360005b8381101561022f578181015183820152602001610217565b50505050905090810190601f16801561025c5780820380516001836020036101000a031916815260200191505b509250505060405180910390f35b6103196004803603604081101561028057600080fd5b810190602081018135602060020a81111561029a57600080fd5b8201836020820111156102ac57600080fd5b803590602001918460018302840111602060020a831117156102cd57600080fd5b91908080601f01602080910402602001604051908101604052809392919081815260200183838082843760009201919091525092955050509035600160a060020a03169150610ced9050565b604051808060200186600160a060020a0316600160a060020a03168152602001806020018515151515815260200180602001848103845289818151815260200191508051906020019080838360005b83811015610380578181015183820152602001610368565b50505050905090810190601f1680156103ad5780820380516001836020036101000a031916815260200191505b50848103835287518152875160209182019189019080838360005b838110156103e05781810151838201526020016103c8565b50505050905090810190601f16801561040d5780820380516001836020036101000a031916815260200191505b50848103825285518152855160209182019187019080838360005b83811015610440578181015183820152602001610428565b50505050905090810190601f16801561046d5780820380516001836020036101000a031916815260200191505b509850505050505050505060405180910390f35b6101d66004803603604081101561049757600080fd5b810190602081018135602060020a8111156104b157600080fd5b8201836020820111156104c357600080fd5b803590602001918460018302840111602060020a831117156104e457600080fd5b919390929091602081019035602060020a81111561050157600080fd5b82018360208201111561051357600080fd5b803590602001918460018302840111602060020a8311171561053457600080fd5b509092509050610ee4565b6103196004803603602081101561055557600080fd5b810190602081018135602060020a81111561056f57600080fd5b82018360208201111561058157600080fd5b803590602001918460018302840111602060020a831117156105a257600080fd5b91908080601f0160208091040260200160405190810160405280939291908181526020018383808284376000920191909152509295506111ad945050505050565b6101d6611225565b6105f36112a7565b60408051600160a060020a039092168252519081900360200190f35b6106176112b7565b604080519115158252519081900360200190f35b6101d66112dd565b6101d66004803603608081101561064957600080fd5b810190602081018135602060020a81111561066357600080fd5b82018360208201111561067557600080fd5b803590602001918460018302840111602060020a8311171561069657600080fd5b919390929091602081019035602060020a8111156106b357600080fd5b8201836020820111156106c557600080fd5b803590602001918460018302840111602060020a831117156106e657600080fd5b919390929091602081019035602060020a81111561070357600080fd5b82018360208201111561071557600080fd5b803590602001918460018302840111602060020a8311171561073657600080fd5b919390929091602081019035602060020a81111561075357600080fd5b82018360208201111561076557600080fd5b803590602001918460018302840111602060020a8311171561078657600080fd5b50909250905061138b565b6101d6600480360360208110156107a757600080fd5b5035600160a060020a0316611748565b6107bf61182b565b60408051918252519081900360200190f35b6101d6600480360360208110156107e757600080fd5b5035600160a060020a0316611831565b6107ff6112b7565b610841576040805160e560020a62461bcd0281526020600482018190526024820152600080516020611e8c833981519152604482015290519081900360640190fd5b600060678989604051808383808284379190910194855250506040805160209481900385019020600160a060020a03881660009081529452909220600381015490935060ff1691506108df9050576040805160e560020a62461bcd02815260206004820152601f60248201527f5468652070656e64696e67206564697420646f65736e27742065786973747300604482015290519081900360640190fd5b805460408051602060026001851615610100026000190190941693909304601f81018490048402820184019092528181526109aa92909184918301828280156109695780601f1061093e57610100808354040283529160200191610969565b820191906000526020600020905b81548152906001019060200180831161094c57829003601f168201915b505050505088888080601f01602080910402602001604051908101604052809392919081815260200183838082843760009201919091525061188492505050565b6109e85760405160e560020a62461bcd028152600401808060200182810382526034815260200180611e366034913960400191505060405180910390fd5b8115610adb576109fc600482018686611c50565b508060688a8a60405180838380828437919091019485525050604051928390036020019092208354909250610a4891508290849060026000196101006001841615020190911604611cce565b506001828101548282018054600160a060020a031916600160a060020a0390921691909117905560028084018054610a93938386019390821615610100026000190190911604611cce565b50600382810154908201805460ff191660ff909216151591909117905560048083018054610ad7928401919060026101006001831615026000190190911604611cce565b5050505b60678989604051808383808284379190910194855250506040805160209481900385019020600160a060020a038816600090815294528320929150610b2290508282611d43565b600182018054600160a060020a0319169055610b42600283016000611d43565b60038201805460ff19169055610b5c600483016000611d43565b50507f252b7d02d7d5047f2194233e05df062b2bc5fd5fcfb45cbaf9bf9414ede86cff8989858a8a8a8a89604051808060200188600160a060020a0316600160a060020a0316815260200180602001806020018515151515815260200184810384528c8c82818152602001925080828437600083820152601f01601f191690910185810384528981526020019050898980828437600083820152601f01601f191690910185810383528781526020019050878780828437600083820152604051601f909101601f19169092018290039d50909b505050505050505050505050a1505050505050505050565b60668181548110610c5457fe5b600091825260209182902001805460408051601f6002600019610100600187161502019094169390930492830185900485028101850190915281815293509091830182828015610ce55780601f10610cba57610100808354040283529160200191610ce5565b820191906000526020600020905b815481529060010190602001808311610cc857829003601f168201915b505050505081565b8151602081840181018051606782529282019482019490942091909352825260009081526040908190208054825160026001831615610100026000190190921691909104601f8101859004850282018501909352828152909290918391830182828015610d9b5780601f10610d7057610100808354040283529160200191610d9b565b820191906000526020600020905b815481529060010190602001808311610d7e57829003601f168201915b505050506001838101546002808601805460408051602061010097841615979097026000190190921693909304601f81018690048602820186019093528281529596600160a060020a03909316959294509192830182828015610e3f5780601f10610e1457610100808354040283529160200191610e3f565b820191906000526020600020905b815481529060010190602001808311610e2257829003601f168201915b50505050600383015460048401805460408051602060026101006001861615026000190190941693909304601f8101849004840282018401909252818152959660ff9094169593945090830182828015610eda5780601f10610eaf57610100808354040283529160200191610eda565b820191906000526020600020905b815481529060010190602001808311610ebd57829003601f168201915b5050505050905085565b610eec6112b7565b610f2e576040805160e560020a62461bcd0281526020600482018190526024820152600080516020611e8c833981519152604482015290519081900360640190fd5b6068848460405180838380828437919091019485525050604051928390036020019092206003015460ff16159150610fb29050576040805160e560020a62461bcd02815260206004820152601e60248201527f5468652070726f6a65637420697320616c726561647920637265617465640000604482015290519081900360640190fd5b6040518060a0016040528083838080601f0160208091040260200160405190810160405280939291908181526020018383808284376000920182905250938552505033602080850191909152604080518083018252848152818601526001606086015280519182018152928152608090930192909252516068915086908690808383808284379190910194855250506040516020938190038401902084518051919461106394508593500190611d87565b50602082810151600183018054600160a060020a031916600160a060020a03909216919091179055604083015180516110a29260028501920190611d87565b50606082015160038201805460ff1916911515919091179055608082015180516110d6916004840191602090910190611d87565b50506066805460018101808355600092909252909150611119907f46501879b8ca8525e8c2fd519e2fbfcfa2ebea26501294aa02cbfcfb12e94354018686611c50565b50507f26f2fdea3bb1b2426520673c50722318b7d9795d23e7fb676de91909b7451d07848484846040518080602001806020018381038352878782818152602001925080828437600083820152601f01601f191690910184810383528581526020019050858580828437600083820152604051601f909101601f19169092018290039850909650505050505050a150505050565b805160208183018101805160688252928201938201939093209190925280546040805160026001841615610100026000190190931692909204601f8101859004850283018501909152808252919290918391830182828015610d9b5780601f10610d7057610100808354040283529160200191610d9b565b61122d6112b7565b61126f576040805160e560020a62461bcd0281526020600482018190526024820152600080516020611e8c833981519152604482015290519081900360640190fd5b603354604051600091600160a060020a031690600080516020611eac833981519152908390a360338054600160a060020a0319169055565b603354600160a060020a03165b90565b603354600090600160a060020a03166112ce6118b1565b600160a060020a031614905090565b600054610100900460ff16806112f657506112f66118b5565b80611304575060005460ff16155b6113425760405160e560020a62461bcd02815260040180806020018281038252602e815260200180611ecc602e913960400191505060405180910390fd5b600054610100900460ff1615801561136d576000805460ff1961ff0019909116610100171660011790555b61137633611748565b8015611388576000805461ff00191690555b50565b6113936112b7565b6113d5576040805160e560020a62461bcd0281526020600482018190526024820152600080516020611e8c833981519152604482015290519081900360640190fd5b6068888860405180838380828437919091019485525050604051928390036020019092206003015460ff16915061144290505760405160e560020a62461bcd028152600401808060200182810382526022815260200180611e6a6022913960400191505060405180910390fd5b600061152a6114ee8a8a8080601f01602080910402602001604051908101604052809392919081815260200183838082843760009201919091525050604080516020601f8e018190048102820181019092528c815292508c91508b908190840183828082843760009201919091525050604080516020601f8d018190048102820181019092528b815292508b91508a90819084018382808284376000920191909152506118bb92505050565b84848080601f016020809104026020016040519081016040528093929190818152602001838380828437600092019190915250611a1d92505050565b6040805160c06020601f8b01819004028201810190925260a081018981529293509182918a908a9081908501838280828437600092019190915250505090825250600160a060020a03831660208083019190915260408051601f890183900483028101830182528881529201919088908890819084018382808284376000920182905250938552505060016020808501919091526040805191820181529281529282019290925251606791508b908b90808383808284379190910194855250506040805160209481900385019020600160a060020a03871660009081529085522084518051919461162094508593500190611d87565b50602082810151600183018054600160a060020a031916600160a060020a039092169190911790556040830151805161165f9260028501920190611d87565b50606082015160038201805460ff191691151591909117905560808201518051611693916004840191602090910190611d87565b509050507fe6ffe2c44f955d47bc43ab81a761c580aa52b45ee48ea2a68bc566d42f13f0938989838a8a604051808060200185600160a060020a0316600160a060020a03168152602001806020018381038352888882818152602001925080828437600083820152601f01601f191690910184810383528581526020019050858580828437600083820152604051601f909101601f1916909201829003995090975050505050505050a1505050505050505050565b600054610100900460ff168061176157506117616118b5565b8061176f575060005460ff16155b6117ad5760405160e560020a62461bcd02815260040180806020018281038252602e815260200180611ecc602e913960400191505060405180910390fd5b600054610100900460ff161580156117d8576000805460ff1961ff0019909116610100171660011790555b60338054600160a060020a031916600160a060020a038481169190911791829055604051911690600090600080516020611eac833981519152908290a38015611827576000805461ff00191690555b5050565b60665490565b6118396112b7565b61187b576040805160e560020a62461bcd0281526020600482018190526024820152600080516020611e8c833981519152604482015290519081900360640190fd5b61138881611ada565b60008151835114611897575060006118ab565b818051906020012083805190602001201490505b92915050565b3390565b303b1590565b600083838360405160200180806020018060200180602001848103845287818151815260200191508051906020019080838360005b838110156119085781810151838201526020016118f0565b50505050905090810190601f1680156119355780820380516001836020036101000a031916815260200191505b50848103835286518152865160209182019188019080838360005b83811015611968578181015183820152602001611950565b50505050905090810190601f1680156119955780820380516001836020036101000a031916815260200191505b50848103825285518152855160209182019187019080838360005b838110156119c85781810151838201526020016119b0565b50505050905090810190601f1680156119f55780820380516001836020036101000a031916815260200191505b5096505050505050506040516020818303038152906040528051906020012090509392505050565b6000806040518060400160405280601c81526020017f19457468657265756d205369676e6564204d6573736167653a0a333200000000815250846040516020018083805190602001908083835b60208310611a895780518252601f199092019160209182019101611a6a565b51815160209384036101000a600019018019909216911617905292019384525060408051808503815293820190528251920191909120925060009150611ad190508285611b6c565b95945050505050565b600160a060020a038116611b225760405160e560020a62461bcd028152600401808060200182810382526026815260200180611e106026913960400191505060405180910390fd5b603354604051600160a060020a03808416921690600080516020611eac83398151915290600090a360338054600160a060020a031916600160a060020a0392909216919091179055565b60008151604114611b7f575060006118ab565b60208201516040830151606084015160001a6fa2a8918ca85bafe22016d0b997e4df6060ff60020a03821115611bbb57600093505050506118ab565b8060ff16601b14158015611bd357508060ff16601c14155b15611be457600093505050506118ab565b6040805160008152602080820180845289905260ff8416828401526060820186905260808201859052915160019260a0808401939192601f1981019281900390910190855afa158015611c3b573d6000803e3d6000fd5b5050604051601f190151979650505050505050565b828054600181600116156101000203166002900490600052602060002090601f016020900481019282601f10611c915782800160ff19823516178555611cbe565b82800160010185558215611cbe579182015b82811115611cbe578235825591602001919060010190611ca3565b50611cca929150611df5565b5090565b828054600181600116156101000203166002900490600052602060002090601f016020900481019282601f10611d075780548555611cbe565b82800160010185558215611cbe57600052602060002091601f016020900482015b82811115611cbe578254825591600101919060010190611d28565b50805460018160011615610100020316600290046000825580601f10611d695750611388565b601f0160209004906000526020600020908101906113889190611df5565b828054600181600116156101000203166002900490600052602060002090601f016020900481019282601f10611dc857805160ff1916838001178555611cbe565b82800160010185558215611cbe579182015b82811115611cbe578251825591602001919060010190611dda565b6112b491905b80821115611cca5760008155600101611dfb56fe4f776e61626c653a206e6577206f776e657220697320746865207a65726f20616464726573735468652070656e64696e67206564697420646f65736e2774206861766520746865206970667320686173682073656c656374656450726f6a656374206265696e672065646974656420646f65736e27742065786973744f776e61626c653a2063616c6c6572206973206e6f7420746865206f776e65728be0079c531659141344cd1fd0a4f28419497f9722a3daafe3b4186f6b6457e0436f6e747261637420696e7374616e63652068617320616c7265616479206265656e20696e697469616c697a6564a165627a7a7230582015e564d1e3f61066adccd9e6d812c3cb2545636a2093e971df50ddf22f051ec40029",
  "linkReferences": {},
  "deployedLinkReferences": {}
}