{
  "_format": "hh-sol-artifact-1",
  "contractName": "ClaimsRegistryV1ForTests",
  "sourceName": "src/tests/contracts/mockUpgrades/ClaimsRegistryV1ForTests.sol",
  "abi": [
    {
      "constant": true,
      "inputs": [],
      "name": "stringVariable",
      "outputs": [
        {
          "name": "",
          "type": "string"
        }
      ],
      "payable": false,
      "stateMutability": "view",
      "type": "function"
    },
    {
      "constant": true,
      "inputs": [
        {
          "name": "_projectId",
          "type": "uint256"
        },
        {
          "name": "_auditorAddress",
          "type": "address"
        },
        {
          "name": "_claimHash",
          "type": "bytes32"
        }
      ],
      "name": "getClaimAudit",
      "outputs": [
        {
          "name": "",
          "type": "string"
        },
        {
          "name": "",
          "type": "uint256"
        },
        {
          "name": "",
          "type": "address"
        },
        {
          "name": "",
          "type": "string"
        },
        {
          "name": "",
          "type": "bool"
        },
        {
          "name": "",
          "type": "address"
        },
        {
          "name": "",
          "type": "string"
        },
        {
          "name": "",
          "type": "bool"
        }
      ],
      "payable": false,
      "stateMutability": "view",
      "type": "function"
    },
    {
      "constant": false,
      "inputs": [
        {
          "name": "_projectId",
          "type": "uint256"
        },
        {
          "name": "_claimHash",
          "type": "bytes32"
        },
        {
          "name": "_proofHash",
          "type": "string"
        },
        {
          "name": "_activityId",
          "type": "uint256"
        },
        {
          "name": "_proposerEmail",
          "type": "string"
        },
        {
          "name": "_authorizationSignature",
          "type": "bytes"
        }
      ],
      "name": "proposeClaim",
      "outputs": [],
      "payable": false,
      "stateMutability": "nonpayable",
      "type": "function"
    },
    {
      "constant": true,
      "inputs": [
        {
          "name": "_projectId",
          "type": "uint256"
        },
        {
          "name": "_auditors",
          "type": "address[]"
        },
        {
          "name": "_claims",
          "type": "bytes32[]"
        }
      ],
      "name": "areApproved",
      "outputs": [
        {
          "name": "",
          "type": "bool"
        }
      ],
      "payable": false,
      "stateMutability": "view",
      "type": "function"
    },
    {
      "constant": true,
      "inputs": [],
      "name": "version",
      "outputs": [
        {
          "name": "",
          "type": "uint16"
        }
      ],
      "payable": false,
      "stateMutability": "pure",
      "type": "function"
    },
    {
      "constant": false,
      "inputs": [],
      "name": "renounceOwnership",
      "outputs": [],
      "payable": false,
      "stateMutability": "nonpayable",
      "type": "function"
    },
    {
      "constant": false,
      "inputs": [
        {
          "name": "_projectId",
          "type": "uint256"
        },
        {
          "name": "_claimHash",
          "type": "bytes32"
        },
        {
          "name": "_proofHash",
          "type": "string"
        },
        {
          "name": "_proposerAddress",
          "type": "address"
        },
        {
          "name": "_auditorEmail",
          "type": "string"
        },
        {
          "name": "_approved",
          "type": "bool"
        },
        {
          "name": "_authorizationSignature",
          "type": "bytes"
        }
      ],
      "name": "submitClaimAuditResult",
      "outputs": [],
      "payable": false,
      "stateMutability": "nonpayable",
      "type": "function"
    },
    {
      "constant": true,
      "inputs": [],
      "name": "owner",
      "outputs": [
        {
          "name": "",
          "type": "address"
        }
      ],
      "payable": false,
      "stateMutability": "view",
      "type": "function"
    },
    {
      "constant": true,
      "inputs": [],
      "name": "isOwner",
      "outputs": [
        {
          "name": "",
          "type": "bool"
        }
      ],
      "payable": false,
      "stateMutability": "view",
      "type": "function"
    },
    {
      "constant": false,
      "inputs": [],
      "name": "registryInitialize",
      "outputs": [],
      "payable": false,
      "stateMutability": "nonpayable",
      "type": "function"
    },
    {
      "constant": false,
      "inputs": [
        {
          "name": "sender",
          "type": "address"
        }
      ],
      "name": "initialize",
      "outputs": [],
      "payable": false,
      "stateMutability": "nonpayable",
      "type": "function"
    },
    {
      "constant": true,
      "inputs": [
        {
          "name": "",
          "type": "uint256"
        },
        {
          "name": "",
          "type": "address"
        },
        {
          "name": "",
          "type": "bytes32"
        }
      ],
      "name": "registryProposedClaims",
      "outputs": [
        {
          "name": "proofHash",
          "type": "string"
        },
        {
          "name": "activityId",
          "type": "uint256"
        },
        {
          "name": "proposerAddress",
          "type": "address"
        },
        {
          "name": "proposerEmail",
          "type": "string"
        },
        {
          "name": "exists",
          "type": "bool"
        }
      ],
      "payable": false,
      "stateMutability": "view",
      "type": "function"
    },
    {
      "constant": false,
      "inputs": [
        {
          "name": "newValue",
          "type": "string"
        }
      ],
      "name": "setVariable",
      "outputs": [],
      "payable": false,
      "stateMutability": "nonpayable",
      "type": "function"
    },
    {
      "constant": false,
      "inputs": [
        {
          "name": "newOwner",
          "type": "address"
        }
      ],
      "name": "transferOwnership",
      "outputs": [],
      "payable": false,
      "stateMutability": "nonpayable",
      "type": "function"
    },
    {
      "constant": false,
      "inputs": [
        {
          "name": "_owner",
          "type": "address"
        },
        {
          "name": "_initialVariable",
          "type": "string"
        }
      ],
      "name": "claimUpgradeToV1",
      "outputs": [],
      "payable": false,
      "stateMutability": "nonpayable",
      "type": "function"
    },
    {
      "anonymous": false,
      "inputs": [
        {
          "indexed": true,
          "name": "previousOwner",
          "type": "address"
        },
        {
          "indexed": true,
          "name": "newOwner",
          "type": "address"
        }
      ],
      "name": "OwnershipTransferred",
      "type": "event"
    },
    {
      "anonymous": false,
      "inputs": [
        {
          "indexed": true,
          "name": "projectId",
          "type": "uint256"
        },
        {
          "indexed": true,
          "name": "auditor",
          "type": "address"
        },
        {
          "indexed": true,
          "name": "claimHash",
          "type": "bytes32"
        },
        {
          "indexed": false,
          "name": "_approved",
          "type": "bool"
        },
        {
          "indexed": false,
          "name": "proofHash",
          "type": "string"
        },
        {
          "indexed": false,
          "name": "verifiedAt",
          "type": "uint256"
        },
        {
          "indexed": false,
          "name": "activityId",
          "type": "uint256"
        }
      ],
      "name": "ClaimAudited",
      "type": "event"
    }
  ],
  "bytecode": "0x608060405261249a806100136000396000f3fe608060405234801561001057600080fd5b50600436106100c85760e060020a6000350463117b246781146100cd57806312f057a41461014a5780633d8eeee9146102f95780633e8e21e61461041957806354fd4d50146104f2578063715018a6146105115780637599a30f146105195780638da5cb5b146106465780638f32d59b1461066a5780639506ec0114610672578063c4d66de81461067a578063d0d4a35c146106a0578063d746afa6146107db578063f2fde38b1461087f578063fa394fe8146108a5575b600080fd5b6100d5610923565b6040805160208082528351818301528351919283929083019185019080838360005b8381101561010f5781810151838201526020016100f7565b50505050905090810190601f16801561013c5780820380516001836020036101000a031916815260200191505b509250505060405180910390f35b61017c6004803603606081101561016057600080fd5b50803590600160a060020a0360208201351690604001356109b1565b6040805160208082018a9052600160a060020a03808a1693830193909352861515608083015291851660a082015282151560e08201526101008082528a5190820152895190918291606083019160c08401916101208501918e019080838360005b838110156101f55781810151838201526020016101dd565b50505050905090810190601f1680156102225780820380516001836020036101000a031916815260200191505b5084810383528951815289516020918201918b019080838360005b8381101561025557818101518382015260200161023d565b50505050905090810190601f1680156102825780820380516001836020036101000a031916815260200191505b50848103825286518152865160209182019188019080838360005b838110156102b557818101518382015260200161029d565b50505050905090810190601f1680156102e25780820380516001836020036101000a031916815260200191505b509b50505050505050505050505060405180910390f35b610417600480360360c081101561030f57600080fd5b813591602081013591810190606081016040820135602060020a81111561033557600080fd5b82018360208201111561034757600080fd5b803590602001918460018302840111602060020a8311171561036857600080fd5b91939092823592604081019060200135602060020a81111561038957600080fd5b82018360208201111561039b57600080fd5b803590602001918460018302840111602060020a831117156103bc57600080fd5b919390929091602081019035602060020a8111156103d957600080fd5b8201836020820111156103eb57600080fd5b803590602001918460018302840111602060020a8311171561040c57600080fd5b509092509050610c6c565b005b6104de6004803603606081101561042f57600080fd5b81359190810190604081016020820135602060020a81111561045057600080fd5b82018360208201111561046257600080fd5b803590602001918460208302840111602060020a8311171561048357600080fd5b919390929091602081019035602060020a8111156104a057600080fd5b8201836020820111156104b257600080fd5b803590602001918460208302840111602060020a831117156104d357600080fd5b509092509050610eb4565b604080519115158252519081900360200190f35b6104fa6111f1565b6040805161ffff9092168252519081900360200190f35b6104176111f7565b610417600480360360e081101561052f57600080fd5b813591602081013591810190606081016040820135602060020a81111561055557600080fd5b82018360208201111561056757600080fd5b803590602001918460018302840111602060020a8311171561058857600080fd5b91939092600160a060020a0383351692604081019060200135602060020a8111156105b257600080fd5b8201836020820111156105c457600080fd5b803590602001918460018302840111602060020a831117156105e557600080fd5b919390928235151592604081019060200135602060020a81111561060857600080fd5b82018360208201111561061a57600080fd5b803590602001918460018302840111602060020a8311171561063b57600080fd5b509092509050611279565b61064e611924565b60408051600160a060020a039092168252519081900360200190f35b6104de611933565b610417611959565b6104176004803603602081101561069057600080fd5b5035600160a060020a0316611a07565b6106d2600480360360608110156106b657600080fd5b50803590600160a060020a036020820135169060400135611aea565b604051808060200186815260200185600160a060020a0316600160a060020a031681526020018060200184151515158152602001838103835288818151815260200191508051906020019080838360005b8381101561073b578181015183820152602001610723565b50505050905090810190601f1680156107685780820380516001836020036101000a031916815260200191505b50838103825285518152855160209182019187019080838360005b8381101561079b578181015183820152602001610783565b50505050905090810190601f1680156107c85780820380516001836020036101000a031916815260200191505b5097505050505050505060405180910390f35b610417600480360360208110156107f157600080fd5b810190602081018135602060020a81111561080b57600080fd5b82018360208201111561081d57600080fd5b803590602001918460018302840111602060020a8311171561083e57600080fd5b91908080601f016020809104026020016040519081016040528093929190818152602001838380828437600092019190915250929550611c4f945050505050565b6104176004803603602081101561089557600080fd5b5035600160a060020a0316611c62565b610417600480360360408110156108bb57600080fd5b600160a060020a038235169190810190604081016020820135602060020a8111156108e557600080fd5b8201836020820111156108f757600080fd5b803590602001918460018302840111602060020a8311171561091857600080fd5b509092509050611cb5565b609a805460408051602060026001851615610100026000190190941693909304601f810184900484028201840190925281815292918301828280156109a95780601f1061097e576101008083540402835291602001916109a9565b820191906000526020600020905b81548152906001019060200180831161098c57829003601f168201915b505050505081565b60606000806060600080606060006109c761224a565b60008c8152606760209081526040808320600160a060020a038f16845282528083208d84528252918290208251815460026001821615610100026000190190911604601f81018490049093028101610160908101909452610140810183815290939192849260a084019285928492849190870182828015610a895780601f10610a5e57610100808354040283529160200191610a89565b820191906000526020600020905b815481529060010190602001808311610a6c57829003601f168201915b5050509183525050600182810154602080840191909152600280850154600160a060020a031660408086019190915260038601805482516101009682161596909602600019011692909204601f81018490048402850184019091528084526060909401939091830182828015610b405780601f10610b1557610100808354040283529160200191610b40565b820191906000526020600020905b815481529060010190602001808311610b2357829003601f168201915b50505091835250506004919091015460ff1615156020918201529082526005830154600160a060020a03168282015260068301805460408051601f60026000196001861615610100020190941693909304928301859004850281018501825282815294019392830182828015610bf75780601f10610bcc57610100808354040283529160200191610bf7565b820191906000526020600020905b815481529060010190602001808311610bda57829003601f168201915b50505091835250506007919091015460ff8082161515602080850191909152610100909204161515604092830152825180518183015182850151606093840151608088015195880151968801519490970151929f50909d509b5093995090975090955093509150509397509397509397509397565b610c74611933565b610cb6576040805160e560020a62461bcd02815260206004820181905260248201526000805160206123d0833981519152604482015290519081900360640190fd5b6000610d6e610d328b8b8b8b8080601f01602080910402602001604051908101604052809392919081815260200183838082843760009201919091525050604080516020601f8e018190048102820181019092528c81528e935091508c908c9081908401838280828437600092019190915250611d9792505050565b84848080601f016020809104026020016040519081016040528093929190818152602001838380828437600092019190915250611eac92505050565b6040805160c06020601f8c01819004028201810190925260a081018a81529293509182918b908b90819085018382808284376000920191909152505050908252506020808201899052600160a060020a0384166040808401919091528051601f8901839004830281018301909152878152606090920191908890889081908401838280828437600092018290525093855250506001602093840152508c8152606682526040808220600160a060020a038616835283528082208d835283529020825180519192610e4392849290910190612280565b5060208281015160018301556040830151600283018054600160a060020a031916600160a060020a0390921691909117905560608301518051610e8c9260038501920190612280565b50608091909101516004909101805460ff191691151591909117905550505050505050505050565b6000838214610f0c576040805160e560020a62461bcd0281526020600482015260196024820152603860020a78617272617973206d75737420626520657175616c2073697a6502604482015290519081900360640190fd5b60005b828110156111e257610f1f61224a565b600088815260676020526040812090888885818110610f3a57fe5b90506020020135600160a060020a0316600160a060020a0316600160a060020a031681526020019081526020016000206000868685818110610f7857fe5b602090810292909201358352508181019290925260409081016000208151815460026001821615610100026000190190911604601f81018590049094028101610160908101909352610140810184815290939192849260a084019285928492849187018282801561102a5780601f10610fff5761010080835404028352916020019161102a565b820191906000526020600020905b81548152906001019060200180831161100d57829003601f168201915b5050509183525050600182810154602080840191909152600280850154600160a060020a031660408086019190915260038601805482516101009682161596909602600019011692909204601f810184900484028501840190915280845260609094019390918301828280156110e15780601f106110b6576101008083540402835291602001916110e1565b820191906000526020600020905b8154815290600101906020018083116110c457829003601f168201915b50505091835250506004919091015460ff1615156020918201529082526005830154600160a060020a03168282015260068301805460408051601f600260001960018616156101000201909416939093049283018590048502810185018252828152940193928301828280156111985780601f1061116d57610100808354040283529160200191611198565b820191906000526020600020905b81548152906001019060200180831161117b57829003601f168201915b50505091835250506007919091015460ff8082161515602084015261010090910416151560409091015260608101519091506111d9576000925050506111e8565b50600101610f0f565b50600190505b95945050505050565b60015b90565b6111ff611933565b611241576040805160e560020a62461bcd02815260206004820181905260248201526000805160206123d0833981519152604482015290519081900360640190fd5b603354604051600091600160a060020a0316906000805160206123f0833981519152908390a360338054600160a060020a0319169055565b611281611933565b6112c3576040805160e560020a62461bcd02815260206004820181905260248201526000805160206123d0833981519152604482015290519081900360640190fd5b6000611341610d328c8c8c8c8080601f01602080910402602001604051908101604052809392919081815260200183838082843760009201919091525050604080516020601f8f018190048102820181019092528d81528f935091508d908d90819084018382808284376000920191909152508d9250611f6b915050565b60008c8152606660209081526040808320600160a060020a038c16845282528083208e8452909152902060048101549192509060ff166113c6576040805160e560020a62461bcd0281526020600482015260156024820152605a60020a7410db185a5b481dd85cdb89dd081c1c9bdc1bdcd95902604482015290519081900360640190fd5b805460408051602060026001851615610100026000190190941693909304601f810184900484028201840190925281815261149192909184918301828280156114505780601f1061142557610100808354040283529160200191611450565b820191906000526020600020905b81548152906001019060200180831161143357829003601f168201915b50505050508b8b8080601f01602080910402602001604051908101604052809392919081815260200183838082843760009201919091525061209f92505050565b6114cf5760405160e560020a62461bcd02815260040180806020018281038252603581526020018061239b6035913960400191505060405180910390fd5b60008c8152606760209081526040808320600160a060020a038616845282528083208e8452909152902060070154610100900460ff16156115445760405160e560020a62461bcd0281526004018080602001828103825260228152602001806123536022913960400191505060405180910390fd5b6040805182546101606020601f60026000196101006001871615020190941693909304928301819004028301810190935261014082018181529192839260a0840192869284929184918701828280156115de5780601f106115b3576101008083540402835291602001916115de565b820191906000526020600020905b8154815290600101906020018083116115c157829003601f168201915b5050509183525050600182810154602080840191909152600280850154600160a060020a031660408086019190915260038601805482516101009682161596909602600019011692909204601f810184900484028501840190915280845260609094019390918301828280156116955780601f1061166a57610100808354040283529160200191611695565b820191906000526020600020905b81548152906001019060200180831161167857829003601f168201915b50505091835250506004919091015460ff161515602091820152908252600160a060020a0385168282015260408051601f8b0183900483028101830182528a8152920191908a908a9081908401838280828437600092018290525093855250505087151560208084019190915260016040938401528f825260678152828220600160a060020a038716835281528282208f83528152919020825180518051929391928492611747928492910190612280565b5060208281015160018301556040830151600283018054600160a060020a031916600160a060020a03909216919091179055606083015180516117909260038501920190612280565b50608091909101516004909101805460ff1916911515919091179055602082810151600583018054600160a060020a031916600160a060020a03909216919091179055604083015180516117ea9260068501920190612280565b5060608201518160070160006101000a81548160ff02191690831515021790555060808201518160070160016101000a81548160ff0219169083151502179055509050508a82600160a060020a03168d7fffe8853c16839a0a7a36143e70a10d6dc4fe237832780d9419dab5b52af39a3788856000014287600101546040518085151515158152602001806020018481526020018381526020018281038252858181546001816001161561010002031660029004815260200191508054600181600116156101000203166002900480156119055780601f106118da57610100808354040283529160200191611905565b820191906000526020600020905b8154815290600101906020018083116118e857829003601f168201915b50509550505050505060405180910390a4505050505050505050505050565b603354600160a060020a031690565b603354600090600160a060020a031661194a6120ca565b600160a060020a031614905090565b600054610100900460ff168061197257506119726120ce565b80611980575060005460ff16155b6119be5760405160e560020a62461bcd02815260040180806020018281038252602e815260200180612410602e913960400191505060405180910390fd5b600054610100900460ff161580156119e9576000805460ff1961ff0019909116610100171660011790555b6119f233611a07565b8015611a04576000805461ff00191690555b50565b600054610100900460ff1680611a205750611a206120ce565b80611a2e575060005460ff16155b611a6c5760405160e560020a62461bcd02815260040180806020018281038252602e815260200180612410602e913960400191505060405180910390fd5b600054610100900460ff16158015611a97576000805460ff1961ff0019909116610100171660011790555b60338054600160a060020a031916600160a060020a0384811691909117918290556040519116906000906000805160206123f0833981519152908290a38015611ae6576000805461ff00191690555b5050565b6066602090815260009384526040808520825292845282842081529083529181902080548251601f600260001961010060018616150201909316929092049182018590048502810185019093528083529092839190830182828015611b905780601f10611b6557610100808354040283529160200191611b90565b820191906000526020600020905b815481529060010190602001808311611b7357829003601f168201915b505050600180850154600280870154600388018054604080516020601f60001999851615610100029990990190931695909504968701829004820285018201905285845297989397600160a060020a039092169650929450909290830182828015611c3c5780601f10611c1157610100808354040283529160200191611c3c565b820191906000526020600020905b815481529060010190602001808311611c1f57829003601f168201915b5050506004909301549192505060ff1685565b8051611ae690609a906020840190612280565b611c6a611933565b611cac576040805160e560020a62461bcd02815260206004820181905260248201526000805160206123d0833981519152604482015290519081900360640190fd5b611a04816120d4565b609b54610100900460ff1680611cce5750609b5460ff16155b611d0c5760405160e560020a62461bcd02815260040180806020018281038252603181526020018061243e6031913960400191505060405180910390fd5b609b54610100900460ff16158015611d3757609b805460ff1961ff0019909116610100171660011790555b611d40846120d4565b611d7f83838080601f016020809104026020016040519081016040528093929190818152602001838380828437600092019190915250611c4f92505050565b8015611d9157609b805461ff00191690555b50505050565b60008585858585604051602001808681526020018581526020018060200184815260200180602001838103835286818151815260200191508051906020019080838360005b83811015611df4578181015183820152602001611ddc565b50505050905090810190601f168015611e215780820380516001836020036101000a031916815260200191505b50838103825284518152845160209182019186019080838360005b83811015611e54578181015183820152602001611e3c565b50505050905090810190601f168015611e815780820380516001836020036101000a031916815260200191505b5097505050505050505060405160208183030381529060405280519060200120905095945050505050565b6000806040518060400160405280601c81526020017f19457468657265756d205369676e6564204d6573736167653a0a333200000000815250846040516020018083805190602001908083835b60208310611f185780518252601f199092019160209182019101611ef9565b51815160209384036101000a600019018019909216911617905292019384525060408051808503815293820190528251920191909120925060009150611f6090508285612166565b925050505b92915050565b6000868686868686604051602001808781526020018681526020018060200185600160a060020a0316600160a060020a031681526020018060200184151515158152602001838103835287818151815260200191508051906020019080838360005b83811015611fe5578181015183820152602001611fcd565b50505050905090810190601f1680156120125780820380516001836020036101000a031916815260200191505b50838103825285518152855160209182019187019080838360005b8381101561204557818101518382015260200161202d565b50505050905090810190601f1680156120725780820380516001836020036101000a031916815260200191505b50985050505050505050506040516020818303038152906040528051906020012090509695505050505050565b600081518351146120b257506000611f65565b81805190602001208380519060200120149050611f65565b3390565b303b1590565b600160a060020a03811661211c5760405160e560020a62461bcd0281526004018080602001828103825260268152602001806123756026913960400191505060405180910390fd5b603354604051600160a060020a038084169216906000805160206123f083398151915290600090a360338054600160a060020a031916600160a060020a0392909216919091179055565b6000815160411461217957506000611f65565b60208201516040830151606084015160001a6fa2a8918ca85bafe22016d0b997e4df6060ff60020a038211156121b55760009350505050611f65565b8060ff16601b141580156121cd57508060ff16601c14155b156121de5760009350505050611f65565b6040805160008152602080820180845289905260ff8416828401526060820186905260808201859052915160019260a0808401939192601f1981019281900390910190855afa158015612235573d6000803e3d6000fd5b5050604051601f190151979650505050505050565b60405180610120016040528061225e6122fe565b8152600060208201819052606060408301819052820181905260809091015290565b828054600181600116156101000203166002900490600052602060002090601f016020900481019282601f106122c157805160ff19168380011785556122ee565b828001600101855582156122ee579182015b828111156122ee5782518255916020019190600101906122d3565b506122fa929150612338565b5090565b6040518060a0016040528060608152602001600081526020016000600160a060020a03168152602001606081526020016000151581525090565b6111f491905b808211156122fa576000815560010161233e56fe41756469746f7220616c72656164792061756469746564207468697320636c61696d4f776e61626c653a206e6577206f776e657220697320746865207a65726f2061646472657373436c61696d2070726f706f73616c2068617320646966666572656e742070726f6f662068617368207468616e2065787065637465644f776e61626c653a2063616c6c6572206973206e6f7420746865206f776e65728be0079c531659141344cd1fd0a4f28419497f9722a3daafe3b4186f6b6457e0436f6e747261637420696e7374616e63652068617320616c7265616479206265656e20696e697469616c697a6564436f6e747261637420696e7374616e63652068617320616c7265616479206265656e20757067726164656420746f207631a165627a7a7230582069fbc26557187fea8c19f6af087870efc5f64f8290de816bdfe0a4da330945390029",
  "linkReferences": {},
  "deployedLinkReferences": {}
}