{
  "_format": "hh-sol-artifact-1",
  "contractName": "ClaimsRegistry",
  "sourceName": "src/contracts/ClaimsRegistry.sol",
  "abi": [
    {
      "constant": false,
      "inputs": [
        {
          "name": "_projectId",
          "type": "uint256"
        },
        {
          "name": "_claimHash",
          "type": "bytes32"
        },
        {
          "name": "_proposalProofHash",
          "type": "string"
        },
        {
          "name": "_auditIpfsHash",
          "type": "string"
        },
        {
          "name": "_proposerAddress",
          "type": "address"
        },
        {
          "name": "_auditorEmail",
          "type": "string"
        },
        {
          "name": "_authorizationSignature",
          "type": "bytes"
        }
      ],
      "name": "submitClaimRejection",
      "outputs": [],
      "payable": false,
      "stateMutability": "nonpayable",
      "type": "function"
    },
    {
      "constant": true,
      "inputs": [
        {
          "name": "_projectId",
          "type": "uint256"
        },
        {
          "name": "_auditorAddress",
          "type": "address"
        },
        {
          "name": "_claimHash",
          "type": "bytes32"
        }
      ],
      "name": "getClaimAudit",
      "outputs": [
        {
          "name": "",
          "type": "string"
        },
        {
          "name": "",
          "type": "uint256"
        },
        {
          "name": "",
          "type": "address"
        },
        {
          "name": "",
          "type": "string"
        },
        {
          "name": "",
          "type": "bool"
        },
        {
          "name": "",
          "type": "address"
        },
        {
          "name": "",
          "type": "string"
        },
        {
          "name": "",
          "type": "bool"
        },
        {
          "name": "",
          "type": "string"
        }
      ],
      "payable": false,
      "stateMutability": "view",
      "type": "function"
    },
    {
      "constant": false,
      "inputs": [
        {
          "name": "_projectId",
          "type": "uint256"
        },
        {
          "name": "_claimHash",
          "type": "bytes32"
        },
        {
          "name": "_proofHash",
          "type": "string"
        },
        {
          "name": "_activityId",
          "type": "uint256"
        },
        {
          "name": "_proposerEmail",
          "type": "string"
        },
        {
          "name": "_authorizationSignature",
          "type": "bytes"
        }
      ],
      "name": "proposeClaim",
      "outputs": [],
      "payable": false,
      "stateMutability": "nonpayable",
      "type": "function"
    },
    {
      "constant": true,
      "inputs": [
        {
          "name": "_projectId",
          "type": "uint256"
        },
        {
          "name": "_auditors",
          "type": "address[]"
        },
        {
          "name": "_claims",
          "type": "bytes32[]"
        }
      ],
      "name": "areApproved",
      "outputs": [
        {
          "name": "",
          "type": "bool"
        }
      ],
      "payable": false,
      "stateMutability": "view",
      "type": "function"
    },
    {
      "constant": false,
      "inputs": [
        {
          "name": "_projectId",
          "type": "uint256"
        },
        {
          "name": "_claimHash",
          "type": "bytes32"
        },
        {
          "name": "_proposalProofHash",
          "type": "string"
        },
        {
          "name": "_auditIpfsHash",
          "type": "string"
        },
        {
          "name": "_proposerAddress",
          "type": "address"
        },
        {
          "name": "_auditorEmail",
          "type": "string"
        },
        {
          "name": "_authorizationSignature",
          "type": "bytes"
        }
      ],
      "name": "submitClaimApproval",
      "outputs": [],
      "payable": false,
      "stateMutability": "nonpayable",
      "type": "function"
    },
    {
      "constant": false,
      "inputs": [],
      "name": "renounceOwnership",
      "outputs": [],
      "payable": false,
      "stateMutability": "nonpayable",
      "type": "function"
    },
    {
      "constant": true,
      "inputs": [],
      "name": "owner",
      "outputs": [
        {
          "name": "",
          "type": "address"
        }
      ],
      "payable": false,
      "stateMutability": "view",
      "type": "function"
    },
    {
      "constant": true,
      "inputs": [],
      "name": "isOwner",
      "outputs": [
        {
          "name": "",
          "type": "bool"
        }
      ],
      "payable": false,
      "stateMutability": "view",
      "type": "function"
    },
    {
      "constant": false,
      "inputs": [],
      "name": "registryInitialize",
      "outputs": [],
      "payable": false,
      "stateMutability": "nonpayable",
      "type": "function"
    },
    {
      "constant": false,
      "inputs": [
        {
          "name": "sender",
          "type": "address"
        }
      ],
      "name": "initialize",
      "outputs": [],
      "payable": false,
      "stateMutability": "nonpayable",
      "type": "function"
    },
    {
      "constant": true,
      "inputs": [
        {
          "name": "",
          "type": "uint256"
        },
        {
          "name": "",
          "type": "address"
        },
        {
          "name": "",
          "type": "bytes32"
        }
      ],
      "name": "registryProposedClaims",
      "outputs": [
        {
          "name": "proofHash",
          "type": "string"
        },
        {
          "name": "activityId",
          "type": "uint256"
        },
        {
          "name": "proposerAddress",
          "type": "address"
        },
        {
          "name": "proposerEmail",
          "type": "string"
        },
        {
          "name": "exists",
          "type": "bool"
        }
      ],
      "payable": false,
      "stateMutability": "view",
      "type": "function"
    },
    {
      "constant": false,
      "inputs": [
        {
          "name": "newOwner",
          "type": "address"
        }
      ],
      "name": "transferOwnership",
      "outputs": [],
      "payable": false,
      "stateMutability": "nonpayable",
      "type": "function"
    },
    {
      "anonymous": false,
      "inputs": [
        {
          "indexed": true,
          "name": "previousOwner",
          "type": "address"
        },
        {
          "indexed": true,
          "name": "newOwner",
          "type": "address"
        }
      ],
      "name": "OwnershipTransferred",
      "type": "event"
    },
    {
      "anonymous": false,
      "inputs": [
        {
          "indexed": true,
          "name": "projectId",
          "type": "uint256"
        },
        {
          "indexed": true,
          "name": "proposer",
          "type": "address"
        },
        {
          "indexed": true,
          "name": "claimHash",
          "type": "bytes32"
        },
        {
          "indexed": false,
          "name": "proofHash",
          "type": "string"
        },
        {
          "indexed": false,
          "name": "proposedAt",
          "type": "uint256"
        },
        {
          "indexed": false,
          "name": "activityId",
          "type": "uint256"
        }
      ],
      "name": "ClaimProposed",
      "type": "event"
    },
    {
      "anonymous": false,
      "inputs": [
        {
          "indexed": true,
          "name": "projectId",
          "type": "uint256"
        },
        {
          "indexed": true,
          "name": "auditor",
          "type": "address"
        },
        {
          "indexed": true,
          "name": "claimHash",
          "type": "bytes32"
        },
        {
          "indexed": false,
          "name": "_approved",
          "type": "bool"
        },
        {
          "indexed": false,
          "name": "proofHash",
          "type": "string"
        },
        {
          "indexed": false,
          "name": "verifiedAt",
          "type": "uint256"
        },
        {
          "indexed": false,
          "name": "activityId",
          "type": "uint256"
        }
      ],
      "name": "ClaimAudited",
      "type": "event"
    }
  ],
  "bytecode": "0x6080604052612774806100136000396000f3fe608060405234801561001057600080fd5b50600436106100a75760e060020a6000350463025fd67581146100ac57806312f057a4146102255780633d8eeee9146104505780633e8e21e61461056e57806349e054d814610647578063715018a6146107be5780638da5cb5b146107c65780638f32d59b146107ea5780639506ec01146107f2578063c4d66de8146107fa578063d0d4a35c14610820578063f2fde38b1461095b575b600080fd5b610223600480360360e08110156100c257600080fd5b813591602081013591810190606081016040820135602060020a8111156100e857600080fd5b8201836020820111156100fa57600080fd5b803590602001918460018302840111602060020a8311171561011b57600080fd5b919390929091602081019035602060020a81111561013857600080fd5b82018360208201111561014a57600080fd5b803590602001918460018302840111602060020a8311171561016b57600080fd5b91939092600160a060020a0383351692604081019060200135602060020a81111561019557600080fd5b8201836020820111156101a757600080fd5b803590602001918460018302840111602060020a831117156101c857600080fd5b919390929091602081019035602060020a8111156101e557600080fd5b8201836020820111156101f757600080fd5b803590602001918460018302840111602060020a8311171561021857600080fd5b509092509050610981565b005b6102576004803603606081101561023b57600080fd5b50803590600160a060020a036020820135169060400135610ab9565b60405180806020018a815260200189600160a060020a0316600160a060020a03168152602001806020018815151515815260200187600160a060020a0316600160a060020a0316815260200180602001861515151581526020018060200185810385528e818151815260200191508051906020019080838360005b838110156102ea5781810151838201526020016102d2565b50505050905090810190601f1680156103175780820380516001836020036101000a031916815260200191505b5085810384528b5181528b516020918201918d019080838360005b8381101561034a578181015183820152602001610332565b50505050905090810190601f1680156103775780820380516001836020036101000a031916815260200191505b5085810383528851815288516020918201918a019080838360005b838110156103aa578181015183820152602001610392565b50505050905090810190601f1680156103d75780820380516001836020036101000a031916815260200191505b50858103825286518152865160209182019188019080838360005b8381101561040a5781810151838201526020016103f2565b50505050905090810190601f1680156104375780820380516001836020036101000a031916815260200191505b509d505050505050505050505050505060405180910390f35b610223600480360360c081101561046657600080fd5b813591602081013591810190606081016040820135602060020a81111561048c57600080fd5b82018360208201111561049e57600080fd5b803590602001918460018302840111602060020a831117156104bf57600080fd5b91939092823592604081019060200135602060020a8111156104e057600080fd5b8201836020820111156104f257600080fd5b803590602001918460018302840111602060020a8311171561051357600080fd5b919390929091602081019035602060020a81111561053057600080fd5b82018360208201111561054257600080fd5b803590602001918460018302840111602060020a8311171561056357600080fd5b509092509050610e6a565b6106336004803603606081101561058457600080fd5b81359190810190604081016020820135602060020a8111156105a557600080fd5b8201836020820111156105b757600080fd5b803590602001918460208302840111602060020a831117156105d857600080fd5b919390929091602081019035602060020a8111156105f557600080fd5b82018360208201111561060757600080fd5b803590602001918460208302840111602060020a8311171561062857600080fd5b509092509050611136565b604080519115158252519081900360200190f35b610223600480360360e081101561065d57600080fd5b813591602081013591810190606081016040820135602060020a81111561068357600080fd5b82018360208201111561069557600080fd5b803590602001918460018302840111602060020a831117156106b657600080fd5b919390929091602081019035602060020a8111156106d357600080fd5b8201836020820111156106e557600080fd5b803590602001918460018302840111602060020a8311171561070657600080fd5b91939092600160a060020a0383351692604081019060200135602060020a81111561073057600080fd5b82018360208201111561074257600080fd5b803590602001918460018302840111602060020a8311171561076357600080fd5b919390929091602081019035602060020a81111561078057600080fd5b82018360208201111561079257600080fd5b803590602001918460018302840111602060020a831117156107b357600080fd5b50909250905061150b565b610223611637565b6107ce6116b9565b60408051600160a060020a039092168252519081900360200190f35b6106336116c9565b6102236116ef565b6102236004803603602081101561081057600080fd5b5035600160a060020a031661179d565b6108526004803603606081101561083657600080fd5b50803590600160a060020a036020820135169060400135611880565b604051808060200186815260200185600160a060020a0316600160a060020a031681526020018060200184151515158152602001838103835288818151815260200191508051906020019080838360005b838110156108bb5781810151838201526020016108a3565b50505050905090810190601f1680156108e85780820380516001836020036101000a031916815260200191505b50838103825285518152855160209182019187019080838360005b8381101561091b578181015183820152602001610903565b50505050905090810190601f1680156109485780820380516001836020036101000a031916815260200191505b5097505050505050505060405180910390f35b6102236004803603602081101561097157600080fd5b5035600160a060020a03166119e5565b6109896116c9565b6109cb576040805160e560020a62461bcd02815260206004820181905260248201526000805160206126db833981519152604482015290519081900360640190fd5b610aac8b8b8b8b8080601f01602080910402602001604051908101604052809392919081815260200183838082843760009201919091525050604080516020601f8f018190048102820181019092528d815292508d91508c908190840183828082843760009201919091525050604080516020601f8d018190048102820181019092528b81528d935091508b908b90819084018382808284376000920182905250604080516020601f8f018190048102820181019092528d81529194509092508c91508b9081908401838280828437600092019190915250611a3892505050565b5050505050505050505050565b60606000806060600080606060006060610ad1612541565b606760008e815260200190815260200160002060008d600160a060020a0316600160a060020a0316815260200190815260200160002060008c81526020019081526020016000206040518060c0016040529081600082016040518060a0016040529081600082018054600181600116156101000203166002900480601f016020809104026020016040519081016040528092919081815260200182805460018160011615610100020316600290048015610bcc5780601f10610ba157610100808354040283529160200191610bcc565b820191906000526020600020905b815481529060010190602001808311610baf57829003601f168201915b5050509183525050600182810154602080840191909152600280850154600160a060020a031660408086019190915260038601805482516101009682161596909602600019011692909204601f81018490048402850184019091528084526060909401939091830182828015610c835780601f10610c5857610100808354040283529160200191610c83565b820191906000526020600020905b815481529060010190602001808311610c6657829003601f168201915b50505091835250506004919091015460ff1615156020918201529082526005830154600160a060020a03168282015260068301805460408051601f60026000196001861615610100020190941693909304928301859004850281018501825282815294019392830182828015610d3a5780601f10610d0f57610100808354040283529160200191610d3a565b820191906000526020600020905b815481529060010190602001808311610d1d57829003601f168201915b5050509183525050600782015460ff80821615156020808501919091526101009283900490911615156040808501919091526008850180548251600260018316159096026000190190911694909404601f810184900484028501840190925281845260609094019391830182828015610df45780601f10610dc957610100808354040283529160200191610df4565b820191906000526020600020905b815481529060010190602001808311610dd757829003601f168201915b505050505081525050905080600001516000015181600001516020015182600001516040015183600001516060015184608001518560200151866040015187606001518860a001518898508595508292508090509950995099509950995099509950995099505093979b92969a50939750939750565b610e726116c9565b610eb4576040805160e560020a62461bcd02815260206004820181905260248201526000805160206126db833981519152604482015290519081900360640190fd5b6000610f6c610f308b8b8b8b8080601f01602080910402602001604051908101604052809392919081815260200183838082843760009201919091525050604080516020601f8e018190048102820181019092528c81528e935091508c908c908190840183828082843760009201919091525061202692505050565b84848080601f01602080910402602001604051908101604052809392919081815260200183838082843760009201919091525061213b92505050565b6040805160c06020601f8c01819004028201810190925260a081018a81529293509182918b908b90819085018382808284376000920191909152505050908252506020808201899052600160a060020a0384166040808401919091528051601f8901839004830281018301909152878152606090920191908890889081908401838280828437600092018290525093855250506001602093840152508c8152606682526040808220600160a060020a038616835283528082208d8352835290208251805191926110419284929091019061258b565b5060208281015160018301556040830151600283018054600160a060020a031916600160a060020a039092169190911790556060830151805161108a926003850192019061258b565b5060808201518160040160006101000a81548160ff0219169083151502179055509050508881600160a060020a03168b7f941ac8c0858f17404d289e370f26a2a9a677c273773c8ac912d2a86eeed3f9da8b8b428c60405180806020018481526020018381526020018281038252868682818152602001925080828437600083820152604051601f909101601f191690920182900397509095505050505050a450505050505050505050565b600083821461118e576040805160e560020a62461bcd0281526020600482015260196024820152603860020a78617272617973206d75737420626520657175616c2073697a6502604482015290519081900360640190fd5b60005b828110156114fc576111a1612541565b6000888152606760205260408120908888858181106111bc57fe5b90506020020135600160a060020a0316600160a060020a0316600160a060020a0316815260200190815260200160002060008686858181106111fa57fe5b602090810292909201358352508181019290925260409081016000208151815460026001821615610100026000190190911604601f81018590049094028101610180908101909352610160810184815290939192849260c08401928592849284918701828280156112ac5780601f10611281576101008083540402835291602001916112ac565b820191906000526020600020905b81548152906001019060200180831161128f57829003601f168201915b5050509183525050600182810154602080840191909152600280850154600160a060020a031660408086019190915260038601805482516101009682161596909602600019011692909204601f810184900484028501840190915280845260609094019390918301828280156113635780601f1061133857610100808354040283529160200191611363565b820191906000526020600020905b81548152906001019060200180831161134657829003601f168201915b50505091835250506004919091015460ff1615156020918201529082526005830154600160a060020a03168282015260068301805460408051601f6002600019600186161561010002019094169390930492830185900485028101850182528281529401939283018282801561141a5780601f106113ef5761010080835404028352916020019161141a565b820191906000526020600020905b8154815290600101906020018083116113fd57829003601f168201915b5050509183525050600782015460ff80821615156020808501919091526101009283900490911615156040808501919091526008850180548251600260018316159096026000190190911694909404601f8101849004840285018401909252818452606090940193918301828280156114d45780601f106114a9576101008083540402835291602001916114d4565b820191906000526020600020905b8154815290600101906020018083116114b757829003601f168201915b505050505081525050905080606001516114f357600092505050611502565b50600101611191565b50600190505b95945050505050565b6115136116c9565b611555576040805160e560020a62461bcd02815260206004820181905260248201526000805160206126db833981519152604482015290519081900360640190fd5b610aac8b8b8b8b8080601f01602080910402602001604051908101604052809392919081815260200183838082843760009201919091525050604080516020601f8f018190048102820181019092528d815292508d91508c908190840183828082843760009201919091525050604080516020601f8d018190048102820181019092528b81528d935091508b908b908190840183828082843760009201919091525050604080516020601f8d018190048102820181019092528b81526001935091508b908b9081908401838280828437600092019190915250611a3892505050565b61163f6116c9565b611681576040805160e560020a62461bcd02815260206004820181905260248201526000805160206126db833981519152604482015290519081900360640190fd5b603354604051600091600160a060020a0316906000805160206126fb833981519152908390a360338054600160a060020a0319169055565b603354600160a060020a03165b90565b603354600090600160a060020a03166116e06121fa565b600160a060020a031614905090565b600054610100900460ff168061170857506117086121fe565b80611716575060005460ff16155b6117545760405160e560020a62461bcd02815260040180806020018281038252602e81526020018061271b602e913960400191505060405180910390fd5b600054610100900460ff1615801561177f576000805460ff1961ff0019909116610100171660011790555b6117883361179d565b801561179a576000805461ff00191690555b50565b600054610100900460ff16806117b657506117b66121fe565b806117c4575060005460ff16155b6118025760405160e560020a62461bcd02815260040180806020018281038252602e81526020018061271b602e913960400191505060405180910390fd5b600054610100900460ff1615801561182d576000805460ff1961ff0019909116610100171660011790555b60338054600160a060020a031916600160a060020a0384811691909117918290556040519116906000906000805160206126fb833981519152908290a3801561187c576000805461ff00191690555b5050565b6066602090815260009384526040808520825292845282842081529083529181902080548251601f6002600019610100600186161502019093169290920491820185900485028101850190935280835290928391908301828280156119265780601f106118fb57610100808354040283529160200191611926565b820191906000526020600020905b81548152906001019060200180831161190957829003601f168201915b505050600180850154600280870154600388018054604080516020601f60001999851615610100029990990190931695909504968701829004820285018201905285845297989397600160a060020a0390921696509294509092908301828280156119d25780601f106119a7576101008083540402835291602001916119d2565b820191906000526020600020905b8154815290600101906020018083116119b557829003601f168201915b5050506004909301549192505060ff1685565b6119ed6116c9565b611a2f576040805160e560020a62461bcd02815260206004820181905260248201526000805160206126db833981519152604482015290519081900360640190fd5b61179a81612204565b611a406116c9565b611a82576040805160e560020a62461bcd02815260206004820181905260248201526000805160206126db833981519152604482015290519081900360640190fd5b6000611a9c611a968a8a8a8a8a8a8a612296565b8361213b565b60008a8152606660209081526040808320600160a060020a038a16845282528083208c8452909152902060048101549192509060ff16611b21576040805160e560020a62461bcd0281526020600482015260156024820152605a60020a7410db185a5b481dd85cdb89dd081c1c9bdc1bdcd95902604482015290519081900360640190fd5b805460408051602060026001851615610100026000190190941693909304601f8101849004840282018401909252818152611bb69290918491830182828015611bab5780601f10611b8057610100808354040283529160200191611bab565b820191906000526020600020905b815481529060010190602001808311611b8e57829003601f168201915b505050505089612432565b611bf45760405160e560020a62461bcd0281526004018080602001828103825260358152602001806126a66035913960400191505060405180910390fd5b60008a8152606760209081526040808320600160a060020a038616845282528083208c8452909152902060070154610100900460ff1615611c695760405160e560020a62461bcd02815260040180806020018281038252602281526020018061265e6022913960400191505060405180910390fd5b6040805182546101806020601f60026000196101006001871615020190941693909304928301819004028301810190935261016082018181529192839260c084019286928492918491870182828015611d035780601f10611cd857610100808354040283529160200191611d03565b820191906000526020600020905b815481529060010190602001808311611ce657829003601f168201915b5050509183525050600182810154602080840191909152600280850154600160a060020a031660408086019190915260038601805482516101009682161596909602600019011692909204601f81018490048402850184019091528084526060909401939091830182828015611dba5780601f10611d8f57610100808354040283529160200191611dba565b820191906000526020600020905b815481529060010190602001808311611d9d57829003601f168201915b50505091835250506004919091015460ff161515602091820152908252600160a060020a03851682820181905260408084018a905288151560608501526001608085015260a09093018b905260008e8152606783528381209181529082528281208d8252825291909120825180518051929391928492611e3e92849291019061258b565b5060208281015160018301556040830151600283018054600160a060020a031916600160a060020a0390921691909117905560608301518051611e87926003850192019061258b565b50608091909101516004909101805460ff1916911515919091179055602082810151600583018054600160a060020a031916600160a060020a0390921691909117905560408301518051611ee1926006850192019061258b565b506060820151600782018054608085015115156101000261ff001993151560ff19909216919091179290921691909117905560a08201518051611f2e91600884019160209091019061258b565b509050508882600160a060020a03168b7fffe8853c16839a0a7a36143e70a10d6dc4fe237832780d9419dab5b52af39a3787856000014287600101546040518085151515158152602001806020018481526020018381526020018281038252858181546001816001161561010002031660029004815260200191508054600181600116156101000203166002900480156120095780601f10611fde57610100808354040283529160200191612009565b820191906000526020600020905b815481529060010190602001808311611fec57829003601f168201915b50509550505050505060405180910390a450505050505050505050565b60008585858585604051602001808681526020018581526020018060200184815260200180602001838103835286818151815260200191508051906020019080838360005b8381101561208357818101518382015260200161206b565b50505050905090810190601f1680156120b05780820380516001836020036101000a031916815260200191505b50838103825284518152845160209182019186019080838360005b838110156120e35781810151838201526020016120cb565b50505050905090810190601f1680156121105780820380516001836020036101000a031916815260200191505b5097505050505050505060405160208183030381529060405280519060200120905095945050505050565b6000806040518060400160405280601c81526020017f19457468657265756d205369676e6564204d6573736167653a0a333200000000815250846040516020018083805190602001908083835b602083106121a75780518252601f199092019160209182019101612188565b51815160209384036101000a6000190180199092169116179052920193845250604080518085038152938201905282519201919091209250600091506121ef9050828561245d565b925050505b92915050565b3390565b303b1590565b600160a060020a03811661224c5760405160e560020a62461bcd0281526004018080602001828103825260268152602001806126806026913960400191505060405180910390fd5b603354604051600160a060020a038084169216906000805160206126fb83398151915290600090a360338054600160a060020a031916600160a060020a0392909216919091179055565b60008787878787878760405160200180888152602001878152602001806020018060200186600160a060020a0316600160a060020a031681526020018060200185151515158152602001848103845289818151815260200191508051906020019080838360005b838110156123155781810151838201526020016122fd565b50505050905090810190601f1680156123425780820380516001836020036101000a031916815260200191505b5084810383528851815288516020918201918a019080838360005b8381101561237557818101518382015260200161235d565b50505050905090810190601f1680156123a25780820380516001836020036101000a031916815260200191505b50848103825286518152865160209182019188019080838360005b838110156123d55781810151838201526020016123bd565b50505050905090810190601f1680156124025780820380516001836020036101000a031916815260200191505b509a5050505050505050505050604051602081830303815290604052805190602001209050979650505050505050565b60008151835114612445575060006121f4565b818051906020012083805190602001201490506121f4565b60008151604114612470575060006121f4565b60208201516040830151606084015160001a6fa2a8918ca85bafe22016d0b997e4df6060ff60020a038211156124ac57600093505050506121f4565b8060ff16601b141580156124c457508060ff16601c14155b156124d557600093505050506121f4565b6040805160008152602080820180845289905260ff8416828401526060820186905260808201859052915160019260a0808401939192601f1981019281900390910190855afa15801561252c573d6000803e3d6000fd5b5050604051601f190151979650505050505050565b604051806101400160405280612555612609565b81526020016000600160a060020a0316815260200160608152602001600015158152602001600015158152602001606081525090565b828054600181600116156101000203166002900490600052602060002090601f016020900481019282601f106125cc57805160ff19168380011785556125f9565b828001600101855582156125f9579182015b828111156125f95782518255916020019190600101906125de565b50612605929150612643565b5090565b6040518060a0016040528060608152602001600081526020016000600160a060020a03168152602001606081526020016000151581525090565b6116c691905b80821115612605576000815560010161264956fe41756469746f7220616c72656164792061756469746564207468697320636c61696d4f776e61626c653a206e6577206f776e657220697320746865207a65726f2061646472657373436c61696d2070726f706f73616c2068617320646966666572656e742070726f6f662068617368207468616e2065787065637465644f776e61626c653a2063616c6c6572206973206e6f7420746865206f776e65728be0079c531659141344cd1fd0a4f28419497f9722a3daafe3b4186f6b6457e0436f6e747261637420696e7374616e63652068617320616c7265616479206265656e20696e697469616c697a6564a165627a7a7230582081647c2a26c46e2f98b9f90e2c0dc1ff67deb398be5c2dcf6303a19647481c770029",
  "linkReferences": {},
  "deployedLinkReferences": {}
}