{
  "_format": "hh-sol-artifact-1",
  "contractName": "ProjectsRegistryV1ForTests",
  "sourceName": "src/tests/contracts/mockUpgrades/ProjectsRegistryV1ForTests.sol",
  "abi": [
    {
      "constant": true,
      "inputs": [],
      "name": "stringVariable",
      "outputs": [
        {
          "name": "",
          "type": "string"
        }
      ],
      "payable": false,
      "stateMutability": "view",
      "type": "function"
    },
    {
      "constant": false,
      "inputs": [
        {
          "name": "_projectId",
          "type": "uint256"
        },
        {
          "name": "_ipfsHash",
          "type": "string"
        },
        {
          "name": "_authorAddress",
          "type": "address"
        },
        {
          "name": "_approved",
          "type": "bool"
        }
      ],
      "name": "submitProjectEditAuditResult",
      "outputs": [],
      "payable": false,
      "stateMutability": "nonpayable",
      "type": "function"
    },
    {
      "constant": false,
      "inputs": [
        {
          "name": "_owner",
          "type": "address"
        },
        {
          "name": "_initialVariable",
          "type": "string"
        }
      ],
      "name": "registryUpgradeToV1",
      "outputs": [],
      "payable": false,
      "stateMutability": "nonpayable",
      "type": "function"
    },
    {
      "constant": true,
      "inputs": [
        {
          "name": "",
          "type": "uint256"
        }
      ],
      "name": "projectIds",
      "outputs": [
        {
          "name": "",
          "type": "uint256"
        }
      ],
      "payable": false,
      "stateMutability": "view",
      "type": "function"
    },
    {
      "constant": true,
      "inputs": [],
      "name": "version",
      "outputs": [
        {
          "name": "",
          "type": "uint16"
        }
      ],
      "payable": false,
      "stateMutability": "pure",
      "type": "function"
    },
    {
      "constant": false,
      "inputs": [],
      "name": "renounceOwnership",
      "outputs": [],
      "payable": false,
      "stateMutability": "nonpayable",
      "type": "function"
    },
    {
      "constant": false,
      "inputs": [
        {
          "name": "_projectId",
          "type": "uint256"
        },
        {
          "name": "_proposedIpfsHash",
          "type": "string"
        },
        {
          "name": "_proposerEmail",
          "type": "string"
        },
        {
          "name": "_authorizationSignature",
          "type": "bytes"
        }
      ],
      "name": "proposeProjectEdit",
      "outputs": [],
      "payable": false,
      "stateMutability": "nonpayable",
      "type": "function"
    },
    {
      "constant": true,
      "inputs": [],
      "name": "owner",
      "outputs": [
        {
          "name": "",
          "type": "address"
        }
      ],
      "payable": false,
      "stateMutability": "view",
      "type": "function"
    },
    {
      "constant": true,
      "inputs": [],
      "name": "isOwner",
      "outputs": [
        {
          "name": "",
          "type": "bool"
        }
      ],
      "payable": false,
      "stateMutability": "view",
      "type": "function"
    },
    {
      "constant": false,
      "inputs": [],
      "name": "registryInitialize",
      "outputs": [],
      "payable": false,
      "stateMutability": "nonpayable",
      "type": "function"
    },
    {
      "constant": true,
      "inputs": [
        {
          "name": "",
          "type": "uint256"
        }
      ],
      "name": "projectsDescription",
      "outputs": [
        {
          "name": "ipfsHash",
          "type": "string"
        },
        {
          "name": "authorAddress",
          "type": "address"
        },
        {
          "name": "authorEmail",
          "type": "string"
        },
        {
          "name": "isCreated",
          "type": "bool"
        }
      ],
      "payable": false,
      "stateMutability": "view",
      "type": "function"
    },
    {
      "constant": false,
      "inputs": [
        {
          "name": "_projectId",
          "type": "uint256"
        },
        {
          "name": "_initialIpfsHash",
          "type": "string"
        }
      ],
      "name": "createProject",
      "outputs": [],
      "payable": false,
      "stateMutability": "nonpayable",
      "type": "function"
    },
    {
      "constant": false,
      "inputs": [
        {
          "name": "sender",
          "type": "address"
        }
      ],
      "name": "initialize",
      "outputs": [],
      "payable": false,
      "stateMutability": "nonpayable",
      "type": "function"
    },
    {
      "constant": true,
      "inputs": [],
      "name": "getProjectsLength",
      "outputs": [
        {
          "name": "",
          "type": "uint256"
        }
      ],
      "payable": false,
      "stateMutability": "view",
      "type": "function"
    },
    {
      "constant": false,
      "inputs": [
        {
          "name": "newValue",
          "type": "string"
        }
      ],
      "name": "setVariable",
      "outputs": [],
      "payable": false,
      "stateMutability": "nonpayable",
      "type": "function"
    },
    {
      "constant": false,
      "inputs": [
        {
          "name": "newOwner",
          "type": "address"
        }
      ],
      "name": "transferOwnership",
      "outputs": [],
      "payable": false,
      "stateMutability": "nonpayable",
      "type": "function"
    },
    {
      "constant": true,
      "inputs": [
        {
          "name": "",
          "type": "uint256"
        },
        {
          "name": "",
          "type": "address"
        }
      ],
      "name": "pendingEdits",
      "outputs": [
        {
          "name": "ipfsHash",
          "type": "string"
        },
        {
          "name": "authorAddress",
          "type": "address"
        },
        {
          "name": "authorEmail",
          "type": "string"
        },
        {
          "name": "isCreated",
          "type": "bool"
        }
      ],
      "payable": false,
      "stateMutability": "view",
      "type": "function"
    },
    {
      "anonymous": false,
      "inputs": [
        {
          "indexed": false,
          "name": "id",
          "type": "uint256"
        },
        {
          "indexed": false,
          "name": "ipfsHash",
          "type": "string"
        }
      ],
      "name": "ProjectCreated",
      "type": "event"
    },
    {
      "anonymous": false,
      "inputs": [
        {
          "indexed": true,
          "name": "previousOwner",
          "type": "address"
        },
        {
          "indexed": true,
          "name": "newOwner",
          "type": "address"
        }
      ],
      "name": "OwnershipTransferred",
      "type": "event"
    }
  ],
  "bytecode": "0x6080604052611a65806100136000396000f3fe608060405234801561001057600080fd5b50600436106100de5760e060020a6000350463117b246781146100e35780631e443ab11461016057806323870ff2146101e857806348c35ad41461026657806354fd4d5014610295578063715018a6146102b4578063843d160a146102bc5780638da5cb5b146103d15780638f32d59b146103f55780639506ec0114610411578063b4796ce214610419578063bf1a800314610538578063c4d66de8146105ad578063c6bdc0a2146105d3578063d746afa6146105db578063f2fde38b1461067f578063fd2ca96b146106a5575b600080fd5b6100eb6106d1565b6040805160208082528351818301528351919283929083019185019080838360005b8381101561012557818101518382015260200161010d565b50505050905090810190601f1680156101525780820380516001836020036101000a031916815260200191505b509250505060405180910390f35b6101e66004803603608081101561017657600080fd5b81359190810190604081016020820135602060020a81111561019757600080fd5b8201836020820111156101a957600080fd5b803590602001918460018302840111602060020a831117156101ca57600080fd5b9193509150600160a060020a038135169060200135151561075f565b005b6101e6600480360360408110156101fe57600080fd5b600160a060020a038235169190810190604081016020820135602060020a81111561022857600080fd5b82018360208201111561023a57600080fd5b803590602001918460018302840111602060020a8311171561025b57600080fd5b509092509050610a32565b6102836004803603602081101561027c57600080fd5b5035610b14565b60408051918252519081900360200190f35b61029d610b32565b6040805161ffff9092168252519081900360200190f35b6101e6610b38565b6101e6600480360360808110156102d257600080fd5b81359190810190604081016020820135602060020a8111156102f357600080fd5b82018360208201111561030557600080fd5b803590602001918460018302840111602060020a8311171561032657600080fd5b919390929091602081019035602060020a81111561034357600080fd5b82018360208201111561035557600080fd5b803590602001918460018302840111602060020a8311171561037657600080fd5b919390929091602081019035602060020a81111561039357600080fd5b8201836020820111156103a557600080fd5b803590602001918460018302840111602060020a831117156103c657600080fd5b509092509050610bba565b6103d9610e34565b60408051600160a060020a039092168252519081900360200190f35b6103fd610e43565b604080519115158252519081900360200190f35b6101e6610e69565b6104366004803603602081101561042f57600080fd5b5035610f17565b604051808060200185600160a060020a0316600160a060020a031681526020018060200184151515158152602001838103835287818151815260200191508051906020019080838360005b83811015610499578181015183820152602001610481565b50505050905090810190601f1680156104c65780820380516001836020036101000a031916815260200191505b50838103825285518152855160209182019187019080838360005b838110156104f95781810151838201526020016104e1565b50505050905090810190601f1680156105265780820380516001836020036101000a031916815260200191505b50965050505050505060405180910390f35b6101e66004803603604081101561054e57600080fd5b81359190810190604081016020820135602060020a81111561056f57600080fd5b82018360208201111561058157600080fd5b803590602001918460018302840111602060020a831117156105a257600080fd5b509092509050611065565b6101e6600480360360208110156105c357600080fd5b5035600160a060020a031661129e565b610283611381565b6101e6600480360360208110156105f157600080fd5b810190602081018135602060020a81111561060b57600080fd5b82018360208201111561061d57600080fd5b803590602001918460018302840111602060020a8311171561063e57600080fd5b91908080601f016020809104026020016040519081016040528093929190818152602001838380828437600092019190915250929550611387945050505050565b6101e66004803603602081101561069557600080fd5b5035600160a060020a031661139a565b610436600480360360408110156106bb57600080fd5b5080359060200135600160a060020a03166113ed565b609b805460408051602060026001851615610100026000190190941693909304601f810184900484028201840190925281815292918301828280156107575780601f1061072c57610100808354040283529160200191610757565b820191906000526020600020905b81548152906001019060200180831161073a57829003601f168201915b505050505081565b610767610e43565b6107a9576040805160e560020a62461bcd028152602060048201819052602482015260008051602061199b833981519152604482015290519081900360640190fd5b6000858152606760209081526040808320600160a060020a03861684529091529020600381015460ff16610827576040805160e560020a62461bcd02815260206004820152601f60248201527f5468652070656e64696e67206564697420646f65736e27742065786973747300604482015290519081900360640190fd5b805460408051602060026001851615610100026000190190941693909304601f81018490048402820184019092528181526108f292909184918301828280156108b15780601f10610886576101008083540402835291602001916108b1565b820191906000526020600020905b81548152906001019060200180831161089457829003601f168201915b505050505086868080601f01602080910402602001604051908101604052809392919081815260200183838082843760009201919091525061146092505050565b6109305760405160e560020a62461bcd0281526004018080602001828103825260348152602001806119456034913960400191505060405180910390fd5b81156109d157600086815260686020526040902081548291906109699082908490600260001961010060018416150201909116046117cd565b506001828101548282018054600160a060020a031916600160a060020a03909216919091179055600280840180546109b49383860193908216156101000260001901909116046117cd565b506003918201549101805460ff191660ff90921615159190911790555b6000868152606760209081526040808320600160a060020a03871684529091528120906109fe8282611852565b600182018054600160a060020a0319169055610a1e600283016000611852565b50600301805460ff19169055505050505050565b609c54610100900460ff1680610a4b5750609c5460ff16155b610a895760405160e560020a62461bcd028152600401808060200182810382526031815260200180611a096031913960400191505060405180910390fd5b609c54610100900460ff16158015610ab457609c805460ff1961ff0019909116610100171660011790555b610abd8461148d565b610afc83838080601f01602080910402602001604051908101604052809392919081815260200183838082843760009201919091525061138792505050565b8015610b0e57609c805461ff00191690555b50505050565b60668181548110610b2157fe5b600091825260209091200154905081565b60015b90565b610b40610e43565b610b82576040805160e560020a62461bcd028152602060048201819052602482015260008051602061199b833981519152604482015290519081900360640190fd5b603354604051600091600160a060020a0316906000805160206119bb833981519152908390a360338054600160a060020a0319169055565b610bc2610e43565b610c04576040805160e560020a62461bcd028152602060048201819052602482015260008051602061199b833981519152604482015290519081900360640190fd5b60008781526068602052604090206003015460ff16610c575760405160e560020a62461bcd0281526004018080602001828103825260228152602001806119796022913960400191505060405180910390fd5b6000610d0c610cd08989898080601f01602080910402602001604051908101604052809392919081815260200183838082843760009201919091525050604080516020601f8d018190048102820181019092528b815292508b91508a908190840183828082843760009201919091525061151f92505050565b84848080601f01602080910402602001604051908101604052809392919081815260200183838082843760009201919091525061162292505050565b6040805160a06020601f8b018190040282018101909252608081018981529293509182918a908a9081908501838280828437600092019190915250505090825250600160a060020a03831660208083019190915260408051601f89018390048302810183018252888152920191908890889081908401838280828437600092018290525093855250506001602093840152508a8152606782526040808220600160a060020a038616835283529020825180519192610dcf92849290910190611896565b50602082810151600183018054600160a060020a031916600160a060020a0390921691909117905560408301518051610e0e9260028501920190611896565b50606091909101516003909101805460ff19169115159190911790555050505050505050565b603354600160a060020a031690565b603354600090600160a060020a0316610e5a6116df565b600160a060020a031614905090565b600054610100900460ff1680610e825750610e826116e3565b80610e90575060005460ff16155b610ece5760405160e560020a62461bcd02815260040180806020018281038252602e8152602001806119db602e913960400191505060405180910390fd5b600054610100900460ff16158015610ef9576000805460ff1961ff0019909116610100171660011790555b610f023361129e565b8015610f14576000805461ff00191690555b50565b60686020908152600091825260409182902080548351601f60026000196101006001861615020190931692909204918201849004840281018401909452808452909291839190830182828015610fae5780601f10610f8357610100808354040283529160200191610fae565b820191906000526020600020905b815481529060010190602001808311610f9157829003601f168201915b505050506001838101546002808601805460408051602061010097841615979097026000190190921693909304601f81018690048602820186019093528281529596600160a060020a039093169592945091928301828280156110525780601f1061102757610100808354040283529160200191611052565b820191906000526020600020905b81548152906001019060200180831161103557829003601f168201915b5050506003909301549192505060ff1684565b61106d610e43565b6110af576040805160e560020a62461bcd028152602060048201819052602482015260008051602061199b833981519152604482015290519081900360640190fd5b60008381526068602052604090206003015460ff1615611119576040805160e560020a62461bcd02815260206004820152601e60248201527f5468652070726f6a65637420697320616c726561647920637265617465640000604482015290519081900360640190fd5b604051806080016040528083838080601f016020809104026020016040519081016040528093929190818152602001838380828437600092018290525093855250503360208085019190915260408051808301825284815281860152600160609095019490945287835260688152929091208351805191936111a093508492910190611896565b50602082810151600183018054600160a060020a031916600160a060020a03909216919091179055604083015180516111df9260028501920190611896565b50606091820151600391909101805460ff1916911515919091179055606680546001810182556000919091527f46501879b8ca8525e8c2fd519e2fbfcfa2ebea26501294aa02cbfcfb12e943540184905560408051858152602081018281529181018490527fed06d1e70f1faa0e1750def1b3a1d942390a8f47d03679c9025a1c38dc34fe7b928692869286929091908201848480828437600083820152604051601f909101601f1916909201829003965090945050505050a1505050565b600054610100900460ff16806112b757506112b76116e3565b806112c5575060005460ff16155b6113035760405160e560020a62461bcd02815260040180806020018281038252602e8152602001806119db602e913960400191505060405180910390fd5b600054610100900460ff1615801561132e576000805460ff1961ff0019909116610100171660011790555b60338054600160a060020a031916600160a060020a0384811691909117918290556040519116906000906000805160206119bb833981519152908290a3801561137d576000805461ff00191690555b5050565b60665490565b805161137d90609b906020840190611896565b6113a2610e43565b6113e4576040805160e560020a62461bcd028152602060048201819052602482015260008051602061199b833981519152604482015290519081900360640190fd5b610f148161148d565b606760209081526000928352604080842082529183529181902080548251601f600260001961010060018616150201909316929092049182018590048502810185019093528083529092839190830182828015610fae5780601f10610f8357610100808354040283529160200191610fae565b6000815183511461147357506000611487565b818051906020012083805190602001201490505b92915050565b600160a060020a0381166114d55760405160e560020a62461bcd02815260040180806020018281038252602681526020018061191f6026913960400191505060405180910390fd5b603354604051600160a060020a038084169216906000805160206119bb83398151915290600090a360338054600160a060020a031916600160a060020a0392909216919091179055565b6000838383604051602001808481526020018060200180602001838103835285818151815260200191508051906020019080838360005b8381101561156e578181015183820152602001611556565b50505050905090810190601f16801561159b5780820380516001836020036101000a031916815260200191505b50838103825284518152845160209182019186019080838360005b838110156115ce5781810151838201526020016115b6565b50505050905090810190601f1680156115fb5780820380516001836020036101000a031916815260200191505b50955050505050506040516020818303038152906040528051906020012090509392505050565b6000806040518060400160405280601c81526020017f19457468657265756d205369676e6564204d6573736167653a0a333200000000815250846040516020018083805190602001908083835b6020831061168e5780518252601f19909201916020918201910161166f565b51815160209384036101000a6000190180199092169116179052920193845250604080518085038152938201905282519201919091209250600091506116d6905082856116e9565b95945050505050565b3390565b303b1590565b600081516041146116fc57506000611487565b60208201516040830151606084015160001a6fa2a8918ca85bafe22016d0b997e4df6060ff60020a038211156117385760009350505050611487565b8060ff16601b1415801561175057508060ff16601c14155b156117615760009350505050611487565b6040805160008152602080820180845289905260ff8416828401526060820186905260808201859052915160019260a0808401939192601f1981019281900390910190855afa1580156117b8573d6000803e3d6000fd5b5050604051601f190151979650505050505050565b828054600181600116156101000203166002900490600052602060002090601f016020900481019282601f106118065780548555611842565b8280016001018555821561184257600052602060002091601f016020900482015b82811115611842578254825591600101919060010190611827565b5061184e929150611904565b5090565b50805460018160011615610100020316600290046000825580601f106118785750610f14565b601f016020900490600052602060002090810190610f149190611904565b828054600181600116156101000203166002900490600052602060002090601f016020900481019282601f106118d757805160ff1916838001178555611842565b82800160010185558215611842579182015b828111156118425782518255916020019190600101906118e9565b610b3591905b8082111561184e576000815560010161190a56fe4f776e61626c653a206e6577206f776e657220697320746865207a65726f20616464726573735468652070656e64696e67206564697420646f65736e2774206861766520746865206970667320686173682073656c656374656450726f6a656374206265696e672065646974656420646f65736e27742065786973744f776e61626c653a2063616c6c6572206973206e6f7420746865206f776e65728be0079c531659141344cd1fd0a4f28419497f9722a3daafe3b4186f6b6457e0436f6e747261637420696e7374616e63652068617320616c7265616479206265656e20696e697469616c697a6564436f6e747261637420696e7374616e63652068617320616c7265616479206265656e20757067726164656420746f207631a165627a7a72305820dc37952c58b12cc46aadaca0c93fb4c3f0a3bd72cf6d495961493d58cf2bdc750029",
  "linkReferences": {},
  "deployedLinkReferences": {}
}