{
  "_format": "hh-sol-artifact-1",
  "contractName": "ClaimsRegistryV1ForTests",
  "sourceName": "src/tests/contracts/mockUpgrades/ClaimsRegistryV1ForTests.sol",
  "abi": [
    {
      "constant": false,
      "inputs": [
        {
          "name": "_projectId",
          "type": "uint256"
        },
        {
          "name": "_claimHash",
          "type": "bytes32"
        },
        {
          "name": "_proposalProofHash",
          "type": "string"
        },
        {
          "name": "_auditIpfsHash",
          "type": "string"
        },
        {
          "name": "_proposerAddress",
          "type": "address"
        },
        {
          "name": "_auditorEmail",
          "type": "string"
        },
        {
          "name": "_authorizationSignature",
          "type": "bytes"
        }
      ],
      "name": "submitClaimRejection",
      "outputs": [],
      "payable": false,
      "stateMutability": "nonpayable",
      "type": "function"
    },
    {
      "constant": true,
      "inputs": [],
      "name": "stringVariable",
      "outputs": [
        {
          "name": "",
          "type": "string"
        }
      ],
      "payable": false,
      "stateMutability": "view",
      "type": "function"
    },
    {
      "constant": true,
      "inputs": [
        {
          "name": "_projectId",
          "type": "uint256"
        },
        {
          "name": "_auditorAddress",
          "type": "address"
        },
        {
          "name": "_claimHash",
          "type": "bytes32"
        }
      ],
      "name": "getClaimAudit",
      "outputs": [
        {
          "name": "",
          "type": "string"
        },
        {
          "name": "",
          "type": "uint256"
        },
        {
          "name": "",
          "type": "address"
        },
        {
          "name": "",
          "type": "string"
        },
        {
          "name": "",
          "type": "bool"
        },
        {
          "name": "",
          "type": "address"
        },
        {
          "name": "",
          "type": "string"
        },
        {
          "name": "",
          "type": "bool"
        },
        {
          "name": "",
          "type": "string"
        }
      ],
      "payable": false,
      "stateMutability": "view",
      "type": "function"
    },
    {
      "constant": false,
      "inputs": [
        {
          "name": "_projectId",
          "type": "uint256"
        },
        {
          "name": "_claimHash",
          "type": "bytes32"
        },
        {
          "name": "_proofHash",
          "type": "string"
        },
        {
          "name": "_activityId",
          "type": "uint256"
        },
        {
          "name": "_proposerEmail",
          "type": "string"
        },
        {
          "name": "_authorizationSignature",
          "type": "bytes"
        }
      ],
      "name": "proposeClaim",
      "outputs": [],
      "payable": false,
      "stateMutability": "nonpayable",
      "type": "function"
    },
    {
      "constant": true,
      "inputs": [
        {
          "name": "_projectId",
          "type": "uint256"
        },
        {
          "name": "_auditors",
          "type": "address[]"
        },
        {
          "name": "_claims",
          "type": "bytes32[]"
        }
      ],
      "name": "areApproved",
      "outputs": [
        {
          "name": "",
          "type": "bool"
        }
      ],
      "payable": false,
      "stateMutability": "view",
      "type": "function"
    },
    {
      "constant": false,
      "inputs": [
        {
          "name": "_projectId",
          "type": "uint256"
        },
        {
          "name": "_claimHash",
          "type": "bytes32"
        },
        {
          "name": "_proposalProofHash",
          "type": "string"
        },
        {
          "name": "_auditIpfsHash",
          "type": "string"
        },
        {
          "name": "_proposerAddress",
          "type": "address"
        },
        {
          "name": "_auditorEmail",
          "type": "string"
        },
        {
          "name": "_authorizationSignature",
          "type": "bytes"
        }
      ],
      "name": "submitClaimApproval",
      "outputs": [],
      "payable": false,
      "stateMutability": "nonpayable",
      "type": "function"
    },
    {
      "constant": true,
      "inputs": [],
      "name": "version",
      "outputs": [
        {
          "name": "",
          "type": "uint16"
        }
      ],
      "payable": false,
      "stateMutability": "pure",
      "type": "function"
    },
    {
      "constant": false,
      "inputs": [],
      "name": "renounceOwnership",
      "outputs": [],
      "payable": false,
      "stateMutability": "nonpayable",
      "type": "function"
    },
    {
      "constant": true,
      "inputs": [],
      "name": "owner",
      "outputs": [
        {
          "name": "",
          "type": "address"
        }
      ],
      "payable": false,
      "stateMutability": "view",
      "type": "function"
    },
    {
      "constant": true,
      "inputs": [],
      "name": "isOwner",
      "outputs": [
        {
          "name": "",
          "type": "bool"
        }
      ],
      "payable": false,
      "stateMutability": "view",
      "type": "function"
    },
    {
      "constant": false,
      "inputs": [],
      "name": "registryInitialize",
      "outputs": [],
      "payable": false,
      "stateMutability": "nonpayable",
      "type": "function"
    },
    {
      "constant": false,
      "inputs": [
        {
          "name": "sender",
          "type": "address"
        }
      ],
      "name": "initialize",
      "outputs": [],
      "payable": false,
      "stateMutability": "nonpayable",
      "type": "function"
    },
    {
      "constant": true,
      "inputs": [
        {
          "name": "",
          "type": "uint256"
        },
        {
          "name": "",
          "type": "address"
        },
        {
          "name": "",
          "type": "bytes32"
        }
      ],
      "name": "registryProposedClaims",
      "outputs": [
        {
          "name": "proofHash",
          "type": "string"
        },
        {
          "name": "activityId",
          "type": "uint256"
        },
        {
          "name": "proposerAddress",
          "type": "address"
        },
        {
          "name": "proposerEmail",
          "type": "string"
        },
        {
          "name": "exists",
          "type": "bool"
        }
      ],
      "payable": false,
      "stateMutability": "view",
      "type": "function"
    },
    {
      "constant": false,
      "inputs": [
        {
          "name": "newValue",
          "type": "string"
        }
      ],
      "name": "setVariable",
      "outputs": [],
      "payable": false,
      "stateMutability": "nonpayable",
      "type": "function"
    },
    {
      "constant": false,
      "inputs": [
        {
          "name": "newOwner",
          "type": "address"
        }
      ],
      "name": "transferOwnership",
      "outputs": [],
      "payable": false,
      "stateMutability": "nonpayable",
      "type": "function"
    },
    {
      "constant": false,
      "inputs": [
        {
          "name": "_owner",
          "type": "address"
        },
        {
          "name": "_initialVariable",
          "type": "string"
        }
      ],
      "name": "claimUpgradeToV1",
      "outputs": [],
      "payable": false,
      "stateMutability": "nonpayable",
      "type": "function"
    },
    {
      "anonymous": false,
      "inputs": [
        {
          "indexed": true,
          "name": "previousOwner",
          "type": "address"
        },
        {
          "indexed": true,
          "name": "newOwner",
          "type": "address"
        }
      ],
      "name": "OwnershipTransferred",
      "type": "event"
    },
    {
      "anonymous": false,
      "inputs": [
        {
          "indexed": true,
          "name": "projectId",
          "type": "uint256"
        },
        {
          "indexed": true,
          "name": "proposer",
          "type": "address"
        },
        {
          "indexed": true,
          "name": "claimHash",
          "type": "bytes32"
        },
        {
          "indexed": false,
          "name": "proofHash",
          "type": "string"
        },
        {
          "indexed": false,
          "name": "proposedAt",
          "type": "uint256"
        },
        {
          "indexed": false,
          "name": "activityId",
          "type": "uint256"
        }
      ],
      "name": "ClaimProposed",
      "type": "event"
    },
    {
      "anonymous": false,
      "inputs": [
        {
          "indexed": true,
          "name": "projectId",
          "type": "uint256"
        },
        {
          "indexed": true,
          "name": "auditor",
          "type": "address"
        },
        {
          "indexed": true,
          "name": "claimHash",
          "type": "bytes32"
        },
        {
          "indexed": false,
          "name": "_approved",
          "type": "bool"
        },
        {
          "indexed": false,
          "name": "proofHash",
          "type": "string"
        },
        {
          "indexed": false,
          "name": "verifiedAt",
          "type": "uint256"
        },
        {
          "indexed": false,
          "name": "activityId",
          "type": "uint256"
        }
      ],
      "name": "ClaimAudited",
      "type": "event"
    }
  ],
  "bytecode": "0x6080604052612b17806100136000396000f3fe608060405234801561001057600080fd5b50600436106100d35760e060020a6000350463025fd67581146100d8578063117b24671461025157806312f057a4146102ce5780633d8eeee9146104f95780633e8e21e61461061757806349e054d8146106f057806354fd4d5014610867578063715018a6146108865780638da5cb5b1461088e5780638f32d59b146108b25780639506ec01146108ba578063c4d66de8146108c2578063d0d4a35c146108e8578063d746afa614610a23578063f2fde38b14610ac7578063fa394fe814610aed575b600080fd5b61024f600480360360e08110156100ee57600080fd5b813591602081013591810190606081016040820135602060020a81111561011457600080fd5b82018360208201111561012657600080fd5b803590602001918460018302840111602060020a8311171561014757600080fd5b919390929091602081019035602060020a81111561016457600080fd5b82018360208201111561017657600080fd5b803590602001918460018302840111602060020a8311171561019757600080fd5b91939092600160a060020a0383351692604081019060200135602060020a8111156101c157600080fd5b8201836020820111156101d357600080fd5b803590602001918460018302840111602060020a831117156101f457600080fd5b919390929091602081019035602060020a81111561021157600080fd5b82018360208201111561022357600080fd5b803590602001918460018302840111602060020a8311171561024457600080fd5b509092509050610b6b565b005b610259610ca3565b6040805160208082528351818301528351919283929083019185019080838360005b8381101561029357818101518382015260200161027b565b50505050905090810190601f1680156102c05780820380516001836020036101000a031916815260200191505b509250505060405180910390f35b610300600480360360608110156102e457600080fd5b50803590600160a060020a036020820135169060400135610d31565b60405180806020018a815260200189600160a060020a0316600160a060020a03168152602001806020018815151515815260200187600160a060020a0316600160a060020a0316815260200180602001861515151581526020018060200185810385528e818151815260200191508051906020019080838360005b8381101561039357818101518382015260200161037b565b50505050905090810190601f1680156103c05780820380516001836020036101000a031916815260200191505b5085810384528b5181528b516020918201918d019080838360005b838110156103f35781810151838201526020016103db565b50505050905090810190601f1680156104205780820380516001836020036101000a031916815260200191505b5085810383528851815288516020918201918a019080838360005b8381101561045357818101518382015260200161043b565b50505050905090810190601f1680156104805780820380516001836020036101000a031916815260200191505b50858103825286518152865160209182019188019080838360005b838110156104b357818101518382015260200161049b565b50505050905090810190601f1680156104e05780820380516001836020036101000a031916815260200191505b509d505050505050505050505050505060405180910390f35b61024f600480360360c081101561050f57600080fd5b813591602081013591810190606081016040820135602060020a81111561053557600080fd5b82018360208201111561054757600080fd5b803590602001918460018302840111602060020a8311171561056857600080fd5b91939092823592604081019060200135602060020a81111561058957600080fd5b82018360208201111561059b57600080fd5b803590602001918460018302840111602060020a831117156105bc57600080fd5b919390929091602081019035602060020a8111156105d957600080fd5b8201836020820111156105eb57600080fd5b803590602001918460018302840111602060020a8311171561060c57600080fd5b5090925090506110e2565b6106dc6004803603606081101561062d57600080fd5b81359190810190604081016020820135602060020a81111561064e57600080fd5b82018360208201111561066057600080fd5b803590602001918460208302840111602060020a8311171561068157600080fd5b919390929091602081019035602060020a81111561069e57600080fd5b8201836020820111156106b057600080fd5b803590602001918460208302840111602060020a831117156106d157600080fd5b5090925090506113ae565b604080519115158252519081900360200190f35b61024f600480360360e081101561070657600080fd5b813591602081013591810190606081016040820135602060020a81111561072c57600080fd5b82018360208201111561073e57600080fd5b803590602001918460018302840111602060020a8311171561075f57600080fd5b919390929091602081019035602060020a81111561077c57600080fd5b82018360208201111561078e57600080fd5b803590602001918460018302840111602060020a831117156107af57600080fd5b91939092600160a060020a0383351692604081019060200135602060020a8111156107d957600080fd5b8201836020820111156107eb57600080fd5b803590602001918460018302840111602060020a8311171561080c57600080fd5b919390929091602081019035602060020a81111561082957600080fd5b82018360208201111561083b57600080fd5b803590602001918460018302840111602060020a8311171561085c57600080fd5b509092509050611783565b61086f6118af565b6040805161ffff9092168252519081900360200190f35b61024f6118b5565b610896611937565b60408051600160a060020a039092168252519081900360200190f35b6106dc611946565b61024f61196c565b61024f600480360360208110156108d857600080fd5b5035600160a060020a0316611a1a565b61091a600480360360608110156108fe57600080fd5b50803590600160a060020a036020820135169060400135611afd565b604051808060200186815260200185600160a060020a0316600160a060020a031681526020018060200184151515158152602001838103835288818151815260200191508051906020019080838360005b8381101561098357818101518382015260200161096b565b50505050905090810190601f1680156109b05780820380516001836020036101000a031916815260200191505b50838103825285518152855160209182019187019080838360005b838110156109e35781810151838201526020016109cb565b50505050905090810190601f168015610a105780820380516001836020036101000a031916815260200191505b5097505050505050505060405180910390f35b61024f60048036036020811015610a3957600080fd5b810190602081018135602060020a811115610a5357600080fd5b820183602082011115610a6557600080fd5b803590602001918460018302840111602060020a83111715610a8657600080fd5b91908080601f016020809104026020016040519081016040528093929190818152602001838380828437600092019190915250929550611c62945050505050565b61024f60048036036020811015610add57600080fd5b5035600160a060020a0316611c75565b61024f60048036036040811015610b0357600080fd5b600160a060020a038235169190810190604081016020820135602060020a811115610b2d57600080fd5b820183602082011115610b3f57600080fd5b803590602001918460018302840111602060020a83111715610b6057600080fd5b509092509050611cc8565b610b73611946565b610bb5576040805160e560020a62461bcd0281526020600482018190526024820152600080516020612a4d833981519152604482015290519081900360640190fd5b610c968b8b8b8b8080601f01602080910402602001604051908101604052809392919081815260200183838082843760009201919091525050604080516020601f8f018190048102820181019092528d815292508d91508c908190840183828082843760009201919091525050604080516020601f8d018190048102820181019092528b81528d935091508b908b90819084018382808284376000920182905250604080516020601f8f018190048102820181019092528d81529194509092508c91508b9081908401838280828437600092019190915250611daa92505050565b5050505050505050505050565b609a805460408051602060026001851615610100026000190190941693909304601f81018490048402820184019092528181529291830182828015610d295780601f10610cfe57610100808354040283529160200191610d29565b820191906000526020600020905b815481529060010190602001808311610d0c57829003601f168201915b505050505081565b60606000806060600080606060006060610d496128b3565b606760008e815260200190815260200160002060008d600160a060020a0316600160a060020a0316815260200190815260200160002060008c81526020019081526020016000206040518060c0016040529081600082016040518060a0016040529081600082018054600181600116156101000203166002900480601f016020809104026020016040519081016040528092919081815260200182805460018160011615610100020316600290048015610e445780601f10610e1957610100808354040283529160200191610e44565b820191906000526020600020905b815481529060010190602001808311610e2757829003601f168201915b5050509183525050600182810154602080840191909152600280850154600160a060020a031660408086019190915260038601805482516101009682161596909602600019011692909204601f81018490048402850184019091528084526060909401939091830182828015610efb5780601f10610ed057610100808354040283529160200191610efb565b820191906000526020600020905b815481529060010190602001808311610ede57829003601f168201915b50505091835250506004919091015460ff1615156020918201529082526005830154600160a060020a03168282015260068301805460408051601f60026000196001861615610100020190941693909304928301859004850281018501825282815294019392830182828015610fb25780601f10610f8757610100808354040283529160200191610fb2565b820191906000526020600020905b815481529060010190602001808311610f9557829003601f168201915b5050509183525050600782015460ff80821615156020808501919091526101009283900490911615156040808501919091526008850180548251600260018316159096026000190190911694909404601f81018490048402850184019092528184526060909401939183018282801561106c5780601f106110415761010080835404028352916020019161106c565b820191906000526020600020905b81548152906001019060200180831161104f57829003601f168201915b505050505081525050905080600001516000015181600001516020015182600001516040015183600001516060015184608001518560200151866040015187606001518860a001518898508595508292508090509950995099509950995099509950995099505093979b92969a50939750939750565b6110ea611946565b61112c576040805160e560020a62461bcd0281526020600482018190526024820152600080516020612a4d833981519152604482015290519081900360640190fd5b60006111e46111a88b8b8b8b8080601f01602080910402602001604051908101604052809392919081815260200183838082843760009201919091525050604080516020601f8e018190048102820181019092528c81528e935091508c908c908190840183828082843760009201919091525061239892505050565b84848080601f0160208091040260200160405190810160405280939291908181526020018383808284376000920191909152506124ad92505050565b6040805160c06020601f8c01819004028201810190925260a081018a81529293509182918b908b90819085018382808284376000920191909152505050908252506020808201899052600160a060020a0384166040808401919091528051601f8901839004830281018301909152878152606090920191908890889081908401838280828437600092018290525093855250506001602093840152508c8152606682526040808220600160a060020a038616835283528082208d8352835290208251805191926112b9928492909101906128fd565b5060208281015160018301556040830151600283018054600160a060020a031916600160a060020a039092169190911790556060830151805161130292600385019201906128fd565b5060808201518160040160006101000a81548160ff0219169083151502179055509050508881600160a060020a03168b7f941ac8c0858f17404d289e370f26a2a9a677c273773c8ac912d2a86eeed3f9da8b8b428c60405180806020018481526020018381526020018281038252868682818152602001925080828437600083820152604051601f909101601f191690920182900397509095505050505050a450505050505050505050565b6000838214611406576040805160e560020a62461bcd0281526020600482015260196024820152603860020a78617272617973206d75737420626520657175616c2073697a6502604482015290519081900360640190fd5b60005b82811015611774576114196128b3565b60008881526067602052604081209088888581811061143457fe5b90506020020135600160a060020a0316600160a060020a0316600160a060020a03168152602001908152602001600020600086868581811061147257fe5b602090810292909201358352508181019290925260409081016000208151815460026001821615610100026000190190911604601f81018590049094028101610180908101909352610160810184815290939192849260c08401928592849284918701828280156115245780601f106114f957610100808354040283529160200191611524565b820191906000526020600020905b81548152906001019060200180831161150757829003601f168201915b5050509183525050600182810154602080840191909152600280850154600160a060020a031660408086019190915260038601805482516101009682161596909602600019011692909204601f810184900484028501840190915280845260609094019390918301828280156115db5780601f106115b0576101008083540402835291602001916115db565b820191906000526020600020905b8154815290600101906020018083116115be57829003601f168201915b50505091835250506004919091015460ff1615156020918201529082526005830154600160a060020a03168282015260068301805460408051601f600260001960018616156101000201909416939093049283018590048502810185018252828152940193928301828280156116925780601f1061166757610100808354040283529160200191611692565b820191906000526020600020905b81548152906001019060200180831161167557829003601f168201915b5050509183525050600782015460ff80821615156020808501919091526101009283900490911615156040808501919091526008850180548251600260018316159096026000190190911694909404601f81018490048402850184019092528184526060909401939183018282801561174c5780601f106117215761010080835404028352916020019161174c565b820191906000526020600020905b81548152906001019060200180831161172f57829003601f168201915b5050505050815250509050806060015161176b5760009250505061177a565b50600101611409565b50600190505b95945050505050565b61178b611946565b6117cd576040805160e560020a62461bcd0281526020600482018190526024820152600080516020612a4d833981519152604482015290519081900360640190fd5b610c968b8b8b8b8080601f01602080910402602001604051908101604052809392919081815260200183838082843760009201919091525050604080516020601f8f018190048102820181019092528d815292508d91508c908190840183828082843760009201919091525050604080516020601f8d018190048102820181019092528b81528d935091508b908b908190840183828082843760009201919091525050604080516020601f8d018190048102820181019092528b81526001935091508b908b9081908401838280828437600092019190915250611daa92505050565b60015b90565b6118bd611946565b6118ff576040805160e560020a62461bcd0281526020600482018190526024820152600080516020612a4d833981519152604482015290519081900360640190fd5b603354604051600091600160a060020a031690600080516020612a6d833981519152908390a360338054600160a060020a0319169055565b603354600160a060020a031690565b603354600090600160a060020a031661195d61256c565b600160a060020a031614905090565b600054610100900460ff16806119855750611985612570565b80611993575060005460ff16155b6119d15760405160e560020a62461bcd02815260040180806020018281038252602e815260200180612a8d602e913960400191505060405180910390fd5b600054610100900460ff161580156119fc576000805460ff1961ff0019909116610100171660011790555b611a0533611a1a565b8015611a17576000805461ff00191690555b50565b600054610100900460ff1680611a335750611a33612570565b80611a41575060005460ff16155b611a7f5760405160e560020a62461bcd02815260040180806020018281038252602e815260200180612a8d602e913960400191505060405180910390fd5b600054610100900460ff16158015611aaa576000805460ff1961ff0019909116610100171660011790555b60338054600160a060020a031916600160a060020a038481169190911791829055604051911690600090600080516020612a6d833981519152908290a38015611af9576000805461ff00191690555b5050565b6066602090815260009384526040808520825292845282842081529083529181902080548251601f600260001961010060018616150201909316929092049182018590048502810185019093528083529092839190830182828015611ba35780601f10611b7857610100808354040283529160200191611ba3565b820191906000526020600020905b815481529060010190602001808311611b8657829003601f168201915b505050600180850154600280870154600388018054604080516020601f60001999851615610100029990990190931695909504968701829004820285018201905285845297989397600160a060020a039092169650929450909290830182828015611c4f5780601f10611c2457610100808354040283529160200191611c4f565b820191906000526020600020905b815481529060010190602001808311611c3257829003601f168201915b5050506004909301549192505060ff1685565b8051611af990609a9060208401906128fd565b611c7d611946565b611cbf576040805160e560020a62461bcd0281526020600482018190526024820152600080516020612a4d833981519152604482015290519081900360640190fd5b611a1781612576565b609b54610100900460ff1680611ce15750609b5460ff16155b611d1f5760405160e560020a62461bcd028152600401808060200182810382526031815260200180612abb6031913960400191505060405180910390fd5b609b54610100900460ff16158015611d4a57609b805460ff1961ff0019909116610100171660011790555b611d5384612576565b611d9283838080601f016020809104026020016040519081016040528093929190818152602001838380828437600092019190915250611c6292505050565b8015611da457609b805461ff00191690555b50505050565b611db2611946565b611df4576040805160e560020a62461bcd0281526020600482018190526024820152600080516020612a4d833981519152604482015290519081900360640190fd5b6000611e0e611e088a8a8a8a8a8a8a612608565b836124ad565b60008a8152606660209081526040808320600160a060020a038a16845282528083208c8452909152902060048101549192509060ff16611e93576040805160e560020a62461bcd0281526020600482015260156024820152605a60020a7410db185a5b481dd85cdb89dd081c1c9bdc1bdcd95902604482015290519081900360640190fd5b805460408051602060026001851615610100026000190190941693909304601f8101849004840282018401909252818152611f289290918491830182828015611f1d5780601f10611ef257610100808354040283529160200191611f1d565b820191906000526020600020905b815481529060010190602001808311611f0057829003601f168201915b5050505050896127a4565b611f665760405160e560020a62461bcd028152600401808060200182810382526035815260200180612a186035913960400191505060405180910390fd5b60008a8152606760209081526040808320600160a060020a038616845282528083208c8452909152902060070154610100900460ff1615611fdb5760405160e560020a62461bcd0281526004018080602001828103825260228152602001806129d06022913960400191505060405180910390fd5b6040805182546101806020601f60026000196101006001871615020190941693909304928301819004028301810190935261016082018181529192839260c0840192869284929184918701828280156120755780601f1061204a57610100808354040283529160200191612075565b820191906000526020600020905b81548152906001019060200180831161205857829003601f168201915b5050509183525050600182810154602080840191909152600280850154600160a060020a031660408086019190915260038601805482516101009682161596909602600019011692909204601f8101849004840285018401909152808452606090940193909183018282801561212c5780601f106121015761010080835404028352916020019161212c565b820191906000526020600020905b81548152906001019060200180831161210f57829003601f168201915b50505091835250506004919091015460ff161515602091820152908252600160a060020a03851682820181905260408084018a905288151560608501526001608085015260a09093018b905260008e8152606783528381209181529082528281208d82528252919091208251805180519293919284926121b09284929101906128fd565b5060208281015160018301556040830151600283018054600160a060020a031916600160a060020a03909216919091179055606083015180516121f992600385019201906128fd565b50608091909101516004909101805460ff1916911515919091179055602082810151600583018054600160a060020a031916600160a060020a039092169190911790556040830151805161225392600685019201906128fd565b506060820151600782018054608085015115156101000261ff001993151560ff19909216919091179290921691909117905560a082015180516122a09160088401916020909101906128fd565b509050508882600160a060020a03168b7fffe8853c16839a0a7a36143e70a10d6dc4fe237832780d9419dab5b52af39a37878560000142876001015460405180851515151581526020018060200184815260200183815260200182810382528581815460018160011615610100020316600290048152602001915080546001816001161561010002031660029004801561237b5780601f106123505761010080835404028352916020019161237b565b820191906000526020600020905b81548152906001019060200180831161235e57829003601f168201915b50509550505050505060405180910390a450505050505050505050565b60008585858585604051602001808681526020018581526020018060200184815260200180602001838103835286818151815260200191508051906020019080838360005b838110156123f55781810151838201526020016123dd565b50505050905090810190601f1680156124225780820380516001836020036101000a031916815260200191505b50838103825284518152845160209182019186019080838360005b8381101561245557818101518382015260200161243d565b50505050905090810190601f1680156124825780820380516001836020036101000a031916815260200191505b5097505050505050505060405160208183030381529060405280519060200120905095945050505050565b6000806040518060400160405280601c81526020017f19457468657265756d205369676e6564204d6573736167653a0a333200000000815250846040516020018083805190602001908083835b602083106125195780518252601f1990920191602091820191016124fa565b51815160209384036101000a600019018019909216911617905292019384525060408051808503815293820190528251920191909120925060009150612561905082856127cf565b925050505b92915050565b3390565b303b1590565b600160a060020a0381166125be5760405160e560020a62461bcd0281526004018080602001828103825260268152602001806129f26026913960400191505060405180910390fd5b603354604051600160a060020a03808416921690600080516020612a6d83398151915290600090a360338054600160a060020a031916600160a060020a0392909216919091179055565b60008787878787878760405160200180888152602001878152602001806020018060200186600160a060020a0316600160a060020a031681526020018060200185151515158152602001848103845289818151815260200191508051906020019080838360005b8381101561268757818101518382015260200161266f565b50505050905090810190601f1680156126b45780820380516001836020036101000a031916815260200191505b5084810383528851815288516020918201918a019080838360005b838110156126e75781810151838201526020016126cf565b50505050905090810190601f1680156127145780820380516001836020036101000a031916815260200191505b50848103825286518152865160209182019188019080838360005b8381101561274757818101518382015260200161272f565b50505050905090810190601f1680156127745780820380516001836020036101000a031916815260200191505b509a5050505050505050505050604051602081830303815290604052805190602001209050979650505050505050565b600081518351146127b757506000612566565b81805190602001208380519060200120149050612566565b600081516041146127e257506000612566565b60208201516040830151606084015160001a6fa2a8918ca85bafe22016d0b997e4df6060ff60020a0382111561281e5760009350505050612566565b8060ff16601b1415801561283657508060ff16601c14155b156128475760009350505050612566565b6040805160008152602080820180845289905260ff8416828401526060820186905260808201859052915160019260a0808401939192601f1981019281900390910190855afa15801561289e573d6000803e3d6000fd5b5050604051601f190151979650505050505050565b6040518061014001604052806128c761297b565b81526020016000600160a060020a0316815260200160608152602001600015158152602001600015158152602001606081525090565b828054600181600116156101000203166002900490600052602060002090601f016020900481019282601f1061293e57805160ff191683800117855561296b565b8280016001018555821561296b579182015b8281111561296b578251825591602001919060010190612950565b506129779291506129b5565b5090565b6040518060a0016040528060608152602001600081526020016000600160a060020a03168152602001606081526020016000151581525090565b6118b291905b8082111561297757600081556001016129bb56fe41756469746f7220616c72656164792061756469746564207468697320636c61696d4f776e61626c653a206e6577206f776e657220697320746865207a65726f2061646472657373436c61696d2070726f706f73616c2068617320646966666572656e742070726f6f662068617368207468616e2065787065637465644f776e61626c653a2063616c6c6572206973206e6f7420746865206f776e65728be0079c531659141344cd1fd0a4f28419497f9722a3daafe3b4186f6b6457e0436f6e747261637420696e7374616e63652068617320616c7265616479206265656e20696e697469616c697a6564436f6e747261637420696e7374616e63652068617320616c7265616479206265656e20757067726164656420746f207631a165627a7a7230582031cc7c6cb9c59eeb0b0c79702434b90fd47ec49cf401f9886b6080109f8cdfc50029",
  "linkReferences": {},
  "deployedLinkReferences": {}
}