{
  "_format": "hh-sol-artifact-1",
  "contractName": "ProjectsRegistryV1ForTests",
  "sourceName": "src/tests/contracts/mockUpgrades/ProjectsRegistryV1ForTests.sol",
  "abi": [
    {
      "constant": true,
      "inputs": [],
      "name": "stringVariable",
      "outputs": [
        {
          "name": "",
          "type": "string"
        }
      ],
      "payable": false,
      "stateMutability": "view",
      "type": "function"
    },
    {
      "constant": false,
      "inputs": [
        {
          "name": "_owner",
          "type": "address"
        },
        {
          "name": "_initialVariable",
          "type": "string"
        }
      ],
      "name": "registryUpgradeToV1",
      "outputs": [],
      "payable": false,
      "stateMutability": "nonpayable",
      "type": "function"
    },
    {
      "constant": true,
      "inputs": [
        {
          "name": "",
          "type": "uint256"
        }
      ],
      "name": "projectIds",
      "outputs": [
        {
          "name": "",
          "type": "uint256"
        }
      ],
      "payable": false,
      "stateMutability": "view",
      "type": "function"
    },
    {
      "constant": true,
      "inputs": [],
      "name": "version",
      "outputs": [
        {
          "name": "",
          "type": "uint16"
        }
      ],
      "payable": false,
      "stateMutability": "pure",
      "type": "function"
    },
    {
      "constant": false,
      "inputs": [],
      "name": "renounceOwnership",
      "outputs": [],
      "payable": false,
      "stateMutability": "nonpayable",
      "type": "function"
    },
    {
      "constant": false,
      "inputs": [
        {
          "name": "_projectId",
          "type": "uint256"
        },
        {
          "name": "_proposedIpfsHash",
          "type": "string"
        },
        {
          "name": "_proposerEmail",
          "type": "string"
        },
        {
          "name": "_authorizationSignature",
          "type": "bytes"
        }
      ],
      "name": "proposeProjectEdit",
      "outputs": [],
      "payable": false,
      "stateMutability": "nonpayable",
      "type": "function"
    },
    {
      "constant": true,
      "inputs": [],
      "name": "owner",
      "outputs": [
        {
          "name": "",
          "type": "address"
        }
      ],
      "payable": false,
      "stateMutability": "view",
      "type": "function"
    },
    {
      "constant": true,
      "inputs": [],
      "name": "isOwner",
      "outputs": [
        {
          "name": "",
          "type": "bool"
        }
      ],
      "payable": false,
      "stateMutability": "view",
      "type": "function"
    },
    {
      "constant": false,
      "inputs": [],
      "name": "registryInitialize",
      "outputs": [],
      "payable": false,
      "stateMutability": "nonpayable",
      "type": "function"
    },
    {
      "constant": true,
      "inputs": [
        {
          "name": "",
          "type": "uint256"
        }
      ],
      "name": "projectsDescription",
      "outputs": [
        {
          "name": "proposalIpfsHash",
          "type": "string"
        },
        {
          "name": "authorAddress",
          "type": "address"
        },
        {
          "name": "authorEmail",
          "type": "string"
        },
        {
          "name": "isCreated",
          "type": "bool"
        },
        {
          "name": "auditIpfsHash",
          "type": "string"
        }
      ],
      "payable": false,
      "stateMutability": "view",
      "type": "function"
    },
    {
      "constant": false,
      "inputs": [
        {
          "name": "_projectId",
          "type": "uint256"
        },
        {
          "name": "_initialProposalIpfsHash",
          "type": "string"
        }
      ],
      "name": "createProject",
      "outputs": [],
      "payable": false,
      "stateMutability": "nonpayable",
      "type": "function"
    },
    {
      "constant": false,
      "inputs": [
        {
          "name": "sender",
          "type": "address"
        }
      ],
      "name": "initialize",
      "outputs": [],
      "payable": false,
      "stateMutability": "nonpayable",
      "type": "function"
    },
    {
      "constant": true,
      "inputs": [],
      "name": "getProjectsLength",
      "outputs": [
        {
          "name": "",
          "type": "uint256"
        }
      ],
      "payable": false,
      "stateMutability": "view",
      "type": "function"
    },
    {
      "constant": false,
      "inputs": [
        {
          "name": "newValue",
          "type": "string"
        }
      ],
      "name": "setVariable",
      "outputs": [],
      "payable": false,
      "stateMutability": "nonpayable",
      "type": "function"
    },
    {
      "constant": false,
      "inputs": [
        {
          "name": "newOwner",
          "type": "address"
        }
      ],
      "name": "transferOwnership",
      "outputs": [],
      "payable": false,
      "stateMutability": "nonpayable",
      "type": "function"
    },
    {
      "constant": false,
      "inputs": [
        {
          "name": "_projectId",
          "type": "uint256"
        },
        {
          "name": "_proposalIpfsHash",
          "type": "string"
        },
        {
          "name": "_auditIpfsHash",
          "type": "string"
        },
        {
          "name": "_authorAddress",
          "type": "address"
        },
        {
          "name": "_approved",
          "type": "bool"
        }
      ],
      "name": "submitProjectEditAuditResult",
      "outputs": [],
      "payable": false,
      "stateMutability": "nonpayable",
      "type": "function"
    },
    {
      "constant": true,
      "inputs": [
        {
          "name": "",
          "type": "uint256"
        },
        {
          "name": "",
          "type": "address"
        }
      ],
      "name": "pendingEdits",
      "outputs": [
        {
          "name": "proposalIpfsHash",
          "type": "string"
        },
        {
          "name": "authorAddress",
          "type": "address"
        },
        {
          "name": "authorEmail",
          "type": "string"
        },
        {
          "name": "isCreated",
          "type": "bool"
        },
        {
          "name": "auditIpfsHash",
          "type": "string"
        }
      ],
      "payable": false,
      "stateMutability": "view",
      "type": "function"
    },
    {
      "anonymous": false,
      "inputs": [
        {
          "indexed": false,
          "name": "id",
          "type": "uint256"
        },
        {
          "indexed": false,
          "name": "ipfsHash",
          "type": "string"
        }
      ],
      "name": "ProjectCreated",
      "type": "event"
    },
    {
      "anonymous": false,
      "inputs": [
        {
          "indexed": false,
          "name": "id",
          "type": "uint256"
        },
        {
          "indexed": false,
          "name": "proposer",
          "type": "address"
        },
        {
          "indexed": false,
          "name": "proposedIpfsHash",
          "type": "string"
        }
      ],
      "name": "ProjectEditProposed",
      "type": "event"
    },
    {
      "anonymous": false,
      "inputs": [
        {
          "indexed": false,
          "name": "id",
          "type": "uint256"
        },
        {
          "indexed": false,
          "name": "proposer",
          "type": "address"
        },
        {
          "indexed": false,
          "name": "proposalIpfsHash",
          "type": "string"
        },
        {
          "indexed": false,
          "name": "auditIpfsHash",
          "type": "string"
        },
        {
          "indexed": false,
          "name": "approved",
          "type": "bool"
        }
      ],
      "name": "ProjectEditAudited",
      "type": "event"
    },
    {
      "anonymous": false,
      "inputs": [
        {
          "indexed": true,
          "name": "previousOwner",
          "type": "address"
        },
        {
          "indexed": true,
          "name": "newOwner",
          "type": "address"
        }
      ],
      "name": "OwnershipTransferred",
      "type": "event"
    }
  ],
  "bytecode": "0x6080604052611dfa806100136000396000f3fe608060405234801561001057600080fd5b50600436106100de5760e060020a6000350463117b246781146100e357806323870ff21461016057806348c35ad4146101e057806354fd4d501461020f578063715018a61461022e578063843d160a146102365780638da5cb5b1461034b5780638f32d59b1461036f5780639506ec011461038b578063b4796ce214610393578063bf1a800314610518578063c4d66de81461058d578063c6bdc0a2146105b3578063d746afa6146105bb578063f2fde38b1461065f578063f5cdd9c214610685578063fd2ca96b1461075b575b600080fd5b6100eb610787565b6040805160208082528351818301528351919283929083019185019080838360005b8381101561012557818101518382015260200161010d565b50505050905090810190601f1680156101525780820380516001836020036101000a031916815260200191505b509250505060405180910390f35b6101de6004803603604081101561017657600080fd5b600160a060020a038235169190810190604081016020820135602060020a8111156101a057600080fd5b8201836020820111156101b257600080fd5b803590602001918460018302840111602060020a831117156101d357600080fd5b509092509050610815565b005b6101fd600480360360208110156101f657600080fd5b50356108f7565b60408051918252519081900360200190f35b610217610915565b6040805161ffff9092168252519081900360200190f35b6101de61091b565b6101de6004803603608081101561024c57600080fd5b81359190810190604081016020820135602060020a81111561026d57600080fd5b82018360208201111561027f57600080fd5b803590602001918460018302840111602060020a831117156102a057600080fd5b919390929091602081019035602060020a8111156102bd57600080fd5b8201836020820111156102cf57600080fd5b803590602001918460018302840111602060020a831117156102f057600080fd5b919390929091602081019035602060020a81111561030d57600080fd5b82018360208201111561031f57600080fd5b803590602001918460018302840111602060020a8311171561034057600080fd5b50909250905061099d565b610353610cca565b60408051600160a060020a039092168252519081900360200190f35b610377610cd9565b604080519115158252519081900360200190f35b6101de610cff565b6103b0600480360360208110156103a957600080fd5b5035610dad565b604051808060200186600160a060020a0316600160a060020a03168152602001806020018515151515815260200180602001848103845289818151815260200191508051906020019080838360005b838110156104175781810151838201526020016103ff565b50505050905090810190601f1680156104445780820380516001836020036101000a031916815260200191505b50848103835287518152875160209182019189019080838360005b8381101561047757818101518382015260200161045f565b50505050905090810190601f1680156104a45780820380516001836020036101000a031916815260200191505b50848103825285518152855160209182019187019080838360005b838110156104d75781810151838201526020016104bf565b50505050905090810190601f1680156105045780820380516001836020036101000a031916815260200191505b509850505050505050505060405180910390f35b6101de6004803603604081101561052e57600080fd5b81359190810190604081016020820135602060020a81111561054f57600080fd5b82018360208201111561056157600080fd5b803590602001918460018302840111602060020a8311171561058257600080fd5b509092509050610f8d565b6101de600480360360208110156105a357600080fd5b5035600160a060020a03166111f0565b6101fd6112d3565b6101de600480360360208110156105d157600080fd5b810190602081018135602060020a8111156105eb57600080fd5b8201836020820111156105fd57600080fd5b803590602001918460018302840111602060020a8311171561061e57600080fd5b91908080601f0160208091040260200160405190810160405280939291908181526020018383808284376000920191909152509295506112d9945050505050565b6101de6004803603602081101561067557600080fd5b5035600160a060020a03166112ec565b6101de600480360360a081101561069b57600080fd5b81359190810190604081016020820135602060020a8111156106bc57600080fd5b8201836020820111156106ce57600080fd5b803590602001918460018302840111602060020a831117156106ef57600080fd5b919390929091602081019035602060020a81111561070c57600080fd5b82018360208201111561071e57600080fd5b803590602001918460018302840111602060020a8311171561073f57600080fd5b9193509150600160a060020a038135169060200135151561133f565b6103b06004803603604081101561077157600080fd5b5080359060200135600160a060020a0316611718565b609b805460408051602060026001851615610100026000190190941693909304601f8101849004840282018401909252818152929183018282801561080d5780601f106107e25761010080835404028352916020019161080d565b820191906000526020600020905b8154815290600101906020018083116107f057829003601f168201915b505050505081565b609c54610100900460ff168061082e5750609c5460ff16155b61086c5760405160e560020a62461bcd028152600401808060200182810382526031815260200180611d9e6031913960400191505060405180910390fd5b609c54610100900460ff1615801561089757609c805460ff1961ff0019909116610100171660011790555b6108a08461178b565b6108df83838080601f0160208091040260200160405190810160405280939291908181526020018383808284376000920191909152506112d992505050565b80156108f157609c805461ff00191690555b50505050565b6066818154811061090457fe5b600091825260209091200154905081565b60015b90565b610923610cd9565b610965576040805160e560020a62461bcd0281526020600482018190526024820152600080516020611d30833981519152604482015290519081900360640190fd5b603354604051600091600160a060020a031690600080516020611d50833981519152908390a360338054600160a060020a0319169055565b6109a5610cd9565b6109e7576040805160e560020a62461bcd0281526020600482018190526024820152600080516020611d30833981519152604482015290519081900360640190fd5b60008781526068602052604090206003015460ff16610a3a5760405160e560020a62461bcd028152600401808060200182810382526022815260200180611d0e6022913960400191505060405180910390fd5b6000610aef610ab38989898080601f01602080910402602001604051908101604052809392919081815260200183838082843760009201919091525050604080516020601f8d018190048102820181019092528b815292508b91508a908190840183828082843760009201919091525061181d92505050565b84848080601f01602080910402602001604051908101604052809392919081815260200183838082843760009201919091525061192092505050565b6040805160c06020601f8b01819004028201810190925260a081018981529293509182918a908a9081908501838280828437600092019190915250505090825250600160a060020a03831660208083019190915260408051601f89018390048302810183018252888152920191908890889081908401838280828437600092018290525093855250506001602080850191909152604080518083018252848152948101949094528c835260678152838320600160a060020a0387168452815292909120835180519193610bc793508492910190611af8565b50602082810151600183018054600160a060020a031916600160a060020a0390921691909117905560408301518051610c069260028501920190611af8565b50606082015160038201805460ff191691151591909117905560808201518051610c3a916004840191602090910190611af8565b509050507f9d3acfaf4cf0f7ca2755c0330b02196b1d84ace88b6ee78448155159f4215b82888289896040518085815260200184600160a060020a0316600160a060020a03168152602001806020018281038252848482818152602001925080828437600083820152604051601f909101601f191690920182900397509095505050505050a15050505050505050565b603354600160a060020a031690565b603354600090600160a060020a0316610cf06119df565b600160a060020a031614905090565b600054610100900460ff1680610d185750610d186119e3565b80610d26575060005460ff16155b610d645760405160e560020a62461bcd02815260040180806020018281038252602e815260200180611d70602e913960400191505060405180910390fd5b600054610100900460ff16158015610d8f576000805460ff1961ff0019909116610100171660011790555b610d98336111f0565b8015610daa576000805461ff00191690555b50565b60686020908152600091825260409182902080548351601f60026000196101006001861615020190931692909204918201849004840281018401909452808452909291839190830182828015610e445780601f10610e1957610100808354040283529160200191610e44565b820191906000526020600020905b815481529060010190602001808311610e2757829003601f168201915b505050506001838101546002808601805460408051602061010097841615979097026000190190921693909304601f81018690048602820186019093528281529596600160a060020a03909316959294509192830182828015610ee85780601f10610ebd57610100808354040283529160200191610ee8565b820191906000526020600020905b815481529060010190602001808311610ecb57829003601f168201915b50505050600383015460048401805460408051602060026101006001861615026000190190941693909304601f8101849004840282018401909252818152959660ff9094169593945090830182828015610f835780601f10610f5857610100808354040283529160200191610f83565b820191906000526020600020905b815481529060010190602001808311610f6657829003601f168201915b5050505050905085565b610f95610cd9565b610fd7576040805160e560020a62461bcd0281526020600482018190526024820152600080516020611d30833981519152604482015290519081900360640190fd5b60008381526068602052604090206003015460ff1615611041576040805160e560020a62461bcd02815260206004820152601e60248201527f5468652070726f6a65637420697320616c726561647920637265617465640000604482015290519081900360640190fd5b6040518060a0016040528083838080601f016020809104026020016040519081016040528093929190818152602001838380828437600092018290525093855250503360208085019190915260408051808301825284815281860152600160608601528051808301825284815260809095019490945287835260688152929091208351805191936110d793508492910190611af8565b50602082810151600183018054600160a060020a031916600160a060020a03909216919091179055604083015180516111169260028501920190611af8565b50606082015160038201805460ff19169115159190911790556080820151805161114a916004840191602090910190611af8565b5050606680546001810182556000919091527f46501879b8ca8525e8c2fd519e2fbfcfa2ebea26501294aa02cbfcfb12e94354018490555060408051848152602081018281529181018390527fed06d1e70f1faa0e1750def1b3a1d942390a8f47d03679c9025a1c38dc34fe7b918591859185919060608201848480828437600083820152604051601f909101601f1916909201829003965090945050505050a1505050565b600054610100900460ff168061120957506112096119e3565b80611217575060005460ff16155b6112555760405160e560020a62461bcd02815260040180806020018281038252602e815260200180611d70602e913960400191505060405180910390fd5b600054610100900460ff16158015611280576000805460ff1961ff0019909116610100171660011790555b60338054600160a060020a031916600160a060020a038481169190911791829055604051911690600090600080516020611d50833981519152908290a380156112cf576000805461ff00191690555b5050565b60665490565b80516112cf90609b906020840190611af8565b6112f4610cd9565b611336576040805160e560020a62461bcd0281526020600482018190526024820152600080516020611d30833981519152604482015290519081900360640190fd5b610daa8161178b565b611347610cd9565b611389576040805160e560020a62461bcd0281526020600482018190526024820152600080516020611d30833981519152604482015290519081900360640190fd5b6000878152606760209081526040808320600160a060020a03861684529091529020600381015460ff16611407576040805160e560020a62461bcd02815260206004820152601f60248201527f5468652070656e64696e67206564697420646f65736e27742065786973747300604482015290519081900360640190fd5b805460408051602060026001851615610100026000190190941693909304601f81018490048402820184019092528181526114d292909184918301828280156114915780601f1061146657610100808354040283529160200191611491565b820191906000526020600020905b81548152906001019060200180831161147457829003601f168201915b505050505088888080601f0160208091040260200160405190810160405280939291908181526020018383808284376000920191909152506119e992505050565b6115105760405160e560020a62461bcd028152600401808060200182810382526034815260200180611cda6034913960400191505060405180910390fd5b81156115eb57611524600482018686611b76565b5060008881526068602052604090208154829190611558908290849060026000196101006001841615020190911604611be4565b506001828101548282018054600160a060020a031916600160a060020a03909216919091179055600280840180546115a3938386019390821615610100026000190190911604611be4565b50600382810154908201805460ff191660ff9092161515919091179055600480830180546115e7928401919060026101006001831615026000190190911604611be4565b5050505b6000888152606760209081526040808320600160a060020a03871684529091528120906116188282611c59565b600182018054600160a060020a0319169055611638600283016000611c59565b60038201805460ff19169055611652600483016000611c59565b50507f632679850203170fccc7c6abaef76a269cbb5d0ec94f498416071a78c9f7d502888489898989886040518088815260200187600160a060020a0316600160a060020a031681526020018060200180602001841515151581526020018381038352888882818152602001925080828437600083820152601f01601f191690910184810383528681526020019050868680828437600083820152604051601f909101601f19169092018290039b50909950505050505050505050a15050505050505050565b606760209081526000928352604080842082529183529181902080548251601f600260001961010060018616150201909316929092049182018590048502810185019093528083529092839190830182828015610e445780601f10610e1957610100808354040283529160200191610e44565b600160a060020a0381166117d35760405160e560020a62461bcd028152600401808060200182810382526026815260200180611cb46026913960400191505060405180910390fd5b603354604051600160a060020a03808416921690600080516020611d5083398151915290600090a360338054600160a060020a031916600160a060020a0392909216919091179055565b6000838383604051602001808481526020018060200180602001838103835285818151815260200191508051906020019080838360005b8381101561186c578181015183820152602001611854565b50505050905090810190601f1680156118995780820380516001836020036101000a031916815260200191505b50838103825284518152845160209182019186019080838360005b838110156118cc5781810151838201526020016118b4565b50505050905090810190601f1680156118f95780820380516001836020036101000a031916815260200191505b50955050505050506040516020818303038152906040528051906020012090509392505050565b6000806040518060400160405280601c81526020017f19457468657265756d205369676e6564204d6573736167653a0a333200000000815250846040516020018083805190602001908083835b6020831061198c5780518252601f19909201916020918201910161196d565b51815160209384036101000a6000190180199092169116179052920193845250604080518085038152938201905282519201919091209250600091506119d490508285611a14565b925050505b92915050565b3390565b303b1590565b600081518351146119fc575060006119d9565b818051906020012083805190602001201490506119d9565b60008151604114611a27575060006119d9565b60208201516040830151606084015160001a6fa2a8918ca85bafe22016d0b997e4df6060ff60020a03821115611a6357600093505050506119d9565b8060ff16601b14158015611a7b57508060ff16601c14155b15611a8c57600093505050506119d9565b6040805160008152602080820180845289905260ff8416828401526060820186905260808201859052915160019260a0808401939192601f1981019281900390910190855afa158015611ae3573d6000803e3d6000fd5b5050604051601f190151979650505050505050565b828054600181600116156101000203166002900490600052602060002090601f016020900481019282601f10611b3957805160ff1916838001178555611b66565b82800160010185558215611b66579182015b82811115611b66578251825591602001919060010190611b4b565b50611b72929150611c99565b5090565b828054600181600116156101000203166002900490600052602060002090601f016020900481019282601f10611bb75782800160ff19823516178555611b66565b82800160010185558215611b66579182015b82811115611b66578235825591602001919060010190611bc9565b828054600181600116156101000203166002900490600052602060002090601f016020900481019282601f10611c1d5780548555611b66565b82800160010185558215611b6657600052602060002091601f016020900482015b82811115611b66578254825591600101919060010190611c3e565b50805460018160011615610100020316600290046000825580601f10611c7f5750610daa565b601f016020900490600052602060002090810190610daa91905b61091891905b80821115611b725760008155600101611c9f56fe4f776e61626c653a206e6577206f776e657220697320746865207a65726f20616464726573735468652070656e64696e67206564697420646f65736e2774206861766520746865206970667320686173682073656c656374656450726f6a656374206265696e672065646974656420646f65736e27742065786973744f776e61626c653a2063616c6c6572206973206e6f7420746865206f776e65728be0079c531659141344cd1fd0a4f28419497f9722a3daafe3b4186f6b6457e0436f6e747261637420696e7374616e63652068617320616c7265616479206265656e20696e697469616c697a6564436f6e747261637420696e7374616e63652068617320616c7265616479206265656e20757067726164656420746f207631a165627a7a723058205c2f99cf64d2a3be0d9a9b1a496ab882f0a4c9e6dcce9911d1600830ee84bce10029",
  "linkReferences": {},
  "deployedLinkReferences": {}
}