{
  "_format": "hh-sol-artifact-1",
  "contractName": "VariableStorageForTests",
  "sourceName": "src/tests/contracts/mockUpgrades/VariableStorageForTests.sol",
  "abi": [
    {
      "constant": true,
      "inputs": [],
      "name": "stringVariable",
      "outputs": [
        {
          "name": "",
          "type": "string"
        }
      ],
      "payable": false,
      "stateMutability": "view",
      "type": "function"
    },
    {
      "constant": false,
      "inputs": [
        {
          "name": "newValue",
          "type": "string"
        }
      ],
      "name": "setVariable",
      "outputs": [],
      "payable": false,
      "stateMutability": "nonpayable",
      "type": "function"
    }
  ],
  "bytecode": "0x608060405234801561001057600080fd5b506102cd806100206000396000f3fe608060405234801561001057600080fd5b50600436106100395760e060020a6000350463117b2467811461003e578063d746afa6146100bb575b600080fd5b610046610161565b6040805160208082528351818301528351919283929083019185019080838360005b83811015610080578181015183820152602001610068565b50505050905090810190601f1680156100ad5780820380516001836020036101000a031916815260200191505b509250505060405180910390f35b61015f600480360360208110156100d157600080fd5b810190602081018135602060020a8111156100eb57600080fd5b8201836020820111156100fd57600080fd5b803590602001918460018302840111602060020a8311171561011e57600080fd5b91908080601f0160208091040260200160405190810160405280939291908181526020018383808284376000920191909152509295506101ef945050505050565b005b6000805460408051602060026001851615610100026000190190941693909304601f810184900484028201840190925281815292918301828280156101e75780601f106101bc576101008083540402835291602001916101e7565b820191906000526020600020905b8154815290600101906020018083116101ca57829003601f168201915b505050505081565b8051610202906000906020840190610206565b5050565b828054600181600116156101000203166002900490600052602060002090601f016020900481019282601f1061024757805160ff1916838001178555610274565b82800160010185558215610274579182015b82811115610274578251825591602001919060010190610259565b50610280929150610284565b5090565b61029e91905b80821115610280576000815560010161028a565b9056fea165627a7a7230582016596e469e15df83c0aa92206c48410e4bdbe558c91b8de36db2f9edbf4ee0060029",
  "linkReferences": {},
  "deployedLinkReferences": {}
}