{
  "_format": "hh-sol-artifact-1",
  "contractName": "ClaimsRegistryV1ForTests",
  "sourceName": "src/tests/contracts/mockUpgrades/ClaimsRegistryV1ForTests.sol",
  "abi": [
    {
      "constant": true,
      "inputs": [],
      "name": "stringVariable",
      "outputs": [
        {
          "name": "",
          "type": "string"
        }
      ],
      "payable": false,
      "stateMutability": "view",
      "type": "function"
    },
    {
      "constant": true,
      "inputs": [
        {
          "name": "_projectId",
          "type": "string"
        },
        {
          "name": "_auditors",
          "type": "address[]"
        },
        {
          "name": "_claims",
          "type": "bytes32[]"
        }
      ],
      "name": "areApproved",
      "outputs": [
        {
          "name": "",
          "type": "bool"
        }
      ],
      "payable": false,
      "stateMutability": "view",
      "type": "function"
    },
    {
      "constant": true,
      "inputs": [],
      "name": "version",
      "outputs": [
        {
          "name": "",
          "type": "uint16"
        }
      ],
      "payable": false,
      "stateMutability": "pure",
      "type": "function"
    },
    {
      "constant": false,
      "inputs": [
        {
          "name": "_projectId",
          "type": "string"
        },
        {
          "name": "_claimHash",
          "type": "bytes32"
        },
        {
          "name": "_proofHash",
          "type": "string"
        },
        {
          "name": "_activityId",
          "type": "uint256"
        },
        {
          "name": "_proposerEmail",
          "type": "string"
        },
        {
          "name": "_authorizationSignature",
          "type": "bytes"
        }
      ],
      "name": "proposeClaim",
      "outputs": [],
      "payable": false,
      "stateMutability": "nonpayable",
      "type": "function"
    },
    {
      "constant": false,
      "inputs": [],
      "name": "renounceOwnership",
      "outputs": [],
      "payable": false,
      "stateMutability": "nonpayable",
      "type": "function"
    },
    {
      "constant": false,
      "inputs": [
        {
          "name": "_projectId",
          "type": "string"
        },
        {
          "name": "_claimHash",
          "type": "bytes32"
        },
        {
          "name": "_proposalProofHash",
          "type": "string"
        },
        {
          "name": "_auditIpfsHash",
          "type": "string"
        },
        {
          "name": "_proposerAddress",
          "type": "address"
        },
        {
          "name": "_auditorEmail",
          "type": "string"
        },
        {
          "name": "_authorizationSignature",
          "type": "bytes"
        }
      ],
      "name": "submitClaimApproval",
      "outputs": [],
      "payable": false,
      "stateMutability": "nonpayable",
      "type": "function"
    },
    {
      "constant": true,
      "inputs": [],
      "name": "owner",
      "outputs": [
        {
          "name": "",
          "type": "address"
        }
      ],
      "payable": false,
      "stateMutability": "view",
      "type": "function"
    },
    {
      "constant": true,
      "inputs": [],
      "name": "isOwner",
      "outputs": [
        {
          "name": "",
          "type": "bool"
        }
      ],
      "payable": false,
      "stateMutability": "view",
      "type": "function"
    },
    {
      "constant": false,
      "inputs": [],
      "name": "registryInitialize",
      "outputs": [],
      "payable": false,
      "stateMutability": "nonpayable",
      "type": "function"
    },
    {
      "constant": false,
      "inputs": [
        {
          "name": "_projectId",
          "type": "string"
        },
        {
          "name": "_claimHash",
          "type": "bytes32"
        },
        {
          "name": "_proposalProofHash",
          "type": "string"
        },
        {
          "name": "_auditIpfsHash",
          "type": "string"
        },
        {
          "name": "_proposerAddress",
          "type": "address"
        },
        {
          "name": "_auditorEmail",
          "type": "string"
        },
        {
          "name": "_authorizationSignature",
          "type": "bytes"
        }
      ],
      "name": "submitClaimRejection",
      "outputs": [],
      "payable": false,
      "stateMutability": "nonpayable",
      "type": "function"
    },
    {
      "constant": true,
      "inputs": [
        {
          "name": "",
          "type": "string"
        },
        {
          "name": "",
          "type": "address"
        },
        {
          "name": "",
          "type": "bytes32"
        }
      ],
      "name": "registryProposedClaims",
      "outputs": [
        {
          "name": "proofHash",
          "type": "string"
        },
        {
          "name": "activityId",
          "type": "uint256"
        },
        {
          "name": "proposerAddress",
          "type": "address"
        },
        {
          "name": "proposerEmail",
          "type": "string"
        },
        {
          "name": "exists",
          "type": "bool"
        }
      ],
      "payable": false,
      "stateMutability": "view",
      "type": "function"
    },
    {
      "constant": false,
      "inputs": [
        {
          "name": "sender",
          "type": "address"
        }
      ],
      "name": "initialize",
      "outputs": [],
      "payable": false,
      "stateMutability": "nonpayable",
      "type": "function"
    },
    {
      "constant": false,
      "inputs": [
        {
          "name": "newValue",
          "type": "string"
        }
      ],
      "name": "setVariable",
      "outputs": [],
      "payable": false,
      "stateMutability": "nonpayable",
      "type": "function"
    },
    {
      "constant": true,
      "inputs": [
        {
          "name": "_projectId",
          "type": "string"
        },
        {
          "name": "_auditorAddress",
          "type": "address"
        },
        {
          "name": "_claimHash",
          "type": "bytes32"
        }
      ],
      "name": "getClaimAudit",
      "outputs": [
        {
          "name": "",
          "type": "string"
        },
        {
          "name": "",
          "type": "uint256"
        },
        {
          "name": "",
          "type": "address"
        },
        {
          "name": "",
          "type": "string"
        },
        {
          "name": "",
          "type": "bool"
        },
        {
          "name": "",
          "type": "address"
        },
        {
          "name": "",
          "type": "string"
        },
        {
          "name": "",
          "type": "bool"
        },
        {
          "name": "",
          "type": "string"
        }
      ],
      "payable": false,
      "stateMutability": "view",
      "type": "function"
    },
    {
      "constant": false,
      "inputs": [
        {
          "name": "newOwner",
          "type": "address"
        }
      ],
      "name": "transferOwnership",
      "outputs": [],
      "payable": false,
      "stateMutability": "nonpayable",
      "type": "function"
    },
    {
      "constant": false,
      "inputs": [
        {
          "name": "_owner",
          "type": "address"
        },
        {
          "name": "_initialVariable",
          "type": "string"
        }
      ],
      "name": "claimUpgradeToV1",
      "outputs": [],
      "payable": false,
      "stateMutability": "nonpayable",
      "type": "function"
    },
    {
      "anonymous": false,
      "inputs": [
        {
          "indexed": true,
          "name": "previousOwner",
          "type": "address"
        },
        {
          "indexed": true,
          "name": "newOwner",
          "type": "address"
        }
      ],
      "name": "OwnershipTransferred",
      "type": "event"
    },
    {
      "anonymous": false,
      "inputs": [
        {
          "indexed": true,
          "name": "projectId",
          "type": "string"
        },
        {
          "indexed": true,
          "name": "proposer",
          "type": "address"
        },
        {
          "indexed": true,
          "name": "claimHash",
          "type": "bytes32"
        },
        {
          "indexed": false,
          "name": "proofHash",
          "type": "string"
        },
        {
          "indexed": false,
          "name": "proposedAt",
          "type": "uint256"
        },
        {
          "indexed": false,
          "name": "activityId",
          "type": "uint256"
        }
      ],
      "name": "ClaimProposed",
      "type": "event"
    },
    {
      "anonymous": false,
      "inputs": [
        {
          "indexed": true,
          "name": "projectId",
          "type": "string"
        },
        {
          "indexed": true,
          "name": "auditor",
          "type": "address"
        },
        {
          "indexed": true,
          "name": "claimHash",
          "type": "bytes32"
        },
        {
          "indexed": false,
          "name": "_approved",
          "type": "bool"
        },
        {
          "indexed": false,
          "name": "proofHash",
          "type": "string"
        },
        {
          "indexed": false,
          "name": "verifiedAt",
          "type": "uint256"
        },
        {
          "indexed": false,
          "name": "activityId",
          "type": "uint256"
        }
      ],
      "name": "ClaimAudited",
      "type": "event"
    }
  ],
  "bytecode": "0x60806040526130db806100136000396000f3fe608060405234801561001057600080fd5b50600436106100d35760e060020a6000350463117b246781146100d857806317b975201461015557806354fd4d50146102775780635d9e780214610296578063715018a6146103fe578063862e968c146104065780638da5cb5b146105c55780638f32d59b146105e95780639506ec01146105f1578063a92badca146105f9578063ae14ecf7146107b8578063c4d66de814610973578063d746afa614610999578063e6c2939614610a3d578063f2fde38b14610ce8578063fa394fe814610d0e575b600080fd5b6100e0610d8c565b6040805160208082528351818301528351919283929083019185019080838360005b8381101561011a578181015183820152602001610102565b50505050905090810190601f1680156101475780820380516001836020036101000a031916815260200191505b509250505060405180910390f35b6102636004803603606081101561016b57600080fd5b810190602081018135602060020a81111561018557600080fd5b82018360208201111561019757600080fd5b803590602001918460018302840111602060020a831117156101b857600080fd5b919390929091602081019035602060020a8111156101d557600080fd5b8201836020820111156101e757600080fd5b803590602001918460208302840111602060020a8311171561020857600080fd5b919390929091602081019035602060020a81111561022557600080fd5b82018360208201111561023757600080fd5b803590602001918460208302840111602060020a8311171561025857600080fd5b509092509050610e1a565b604080519115158252519081900360200190f35b61027f61120a565b6040805161ffff9092168252519081900360200190f35b6103fc600480360360c08110156102ac57600080fd5b810190602081018135602060020a8111156102c657600080fd5b8201836020820111156102d857600080fd5b803590602001918460018302840111602060020a831117156102f957600080fd5b91939092823592604081019060200135602060020a81111561031a57600080fd5b82018360208201111561032c57600080fd5b803590602001918460018302840111602060020a8311171561034d57600080fd5b91939092823592604081019060200135602060020a81111561036e57600080fd5b82018360208201111561038057600080fd5b803590602001918460018302840111602060020a831117156103a157600080fd5b919390929091602081019035602060020a8111156103be57600080fd5b8201836020820111156103d057600080fd5b803590602001918460018302840111602060020a831117156103f157600080fd5b509092509050611210565b005b6103fc61154f565b6103fc600480360360e081101561041c57600080fd5b810190602081018135602060020a81111561043657600080fd5b82018360208201111561044857600080fd5b803590602001918460018302840111602060020a8311171561046957600080fd5b91939092823592604081019060200135602060020a81111561048a57600080fd5b82018360208201111561049c57600080fd5b803590602001918460018302840111602060020a831117156104bd57600080fd5b919390929091602081019035602060020a8111156104da57600080fd5b8201836020820111156104ec57600080fd5b803590602001918460018302840111602060020a8311171561050d57600080fd5b91939092600160a060020a0383351692604081019060200135602060020a81111561053757600080fd5b82018360208201111561054957600080fd5b803590602001918460018302840111602060020a8311171561056a57600080fd5b919390929091602081019035602060020a81111561058757600080fd5b82018360208201111561059957600080fd5b803590602001918460018302840111602060020a831117156105ba57600080fd5b5090925090506115d1565b6105cd61173f565b60408051600160a060020a039092168252519081900360200190f35b61026361174e565b6103fc611774565b6103fc600480360360e081101561060f57600080fd5b810190602081018135602060020a81111561062957600080fd5b82018360208201111561063b57600080fd5b803590602001918460018302840111602060020a8311171561065c57600080fd5b91939092823592604081019060200135602060020a81111561067d57600080fd5b82018360208201111561068f57600080fd5b803590602001918460018302840111602060020a831117156106b057600080fd5b919390929091602081019035602060020a8111156106cd57600080fd5b8201836020820111156106df57600080fd5b803590602001918460018302840111602060020a8311171561070057600080fd5b91939092600160a060020a0383351692604081019060200135602060020a81111561072a57600080fd5b82018360208201111561073c57600080fd5b803590602001918460018302840111602060020a8311171561075d57600080fd5b919390929091602081019035602060020a81111561077a57600080fd5b82018360208201111561078c57600080fd5b803590602001918460018302840111602060020a831117156107ad57600080fd5b509092509050611822565b61086a600480360360608110156107ce57600080fd5b810190602081018135602060020a8111156107e857600080fd5b8201836020820111156107fa57600080fd5b803590602001918460018302840111602060020a8311171561081b57600080fd5b91908080601f01602080910402602001604051908101604052809392919081815260200183838082843760009201919091525092955050600160a060020a038335169350505060200135611981565b604051808060200186815260200185600160a060020a0316600160a060020a031681526020018060200184151515158152602001838103835288818151815260200191508051906020019080838360005b838110156108d35781810151838201526020016108bb565b50505050905090810190601f1680156109005780820380516001836020036101000a031916815260200191505b50838103825285518152855160209182019187019080838360005b8381101561093357818101518382015260200161091b565b50505050905090810190601f1680156109605780820380516001836020036101000a031916815260200191505b5097505050505050505060405180910390f35b6103fc6004803603602081101561098957600080fd5b5035600160a060020a0316611af6565b6103fc600480360360208110156109af57600080fd5b810190602081018135602060020a8111156109c957600080fd5b8201836020820111156109db57600080fd5b803590602001918460018302840111602060020a831117156109fc57600080fd5b91908080601f016020809104026020016040519081016040528093929190818152602001838380828437600092019190915250929550611bd9945050505050565b610aef60048036036060811015610a5357600080fd5b810190602081018135602060020a811115610a6d57600080fd5b820183602082011115610a7f57600080fd5b803590602001918460018302840111602060020a83111715610aa057600080fd5b91908080601f01602080910402602001604051908101604052809392919081815260200183838082843760009201919091525092955050600160a060020a038335169350505060200135611bec565b60405180806020018a815260200189600160a060020a0316600160a060020a03168152602001806020018815151515815260200187600160a060020a0316600160a060020a0316815260200180602001861515151581526020018060200185810385528e818151815260200191508051906020019080838360005b83811015610b82578181015183820152602001610b6a565b50505050905090810190601f168015610baf5780820380516001836020036101000a031916815260200191505b5085810384528b5181528b516020918201918d019080838360005b83811015610be2578181015183820152602001610bca565b50505050905090810190601f168015610c0f5780820380516001836020036101000a031916815260200191505b5085810383528851815288516020918201918a019080838360005b83811015610c42578181015183820152602001610c2a565b50505050905090810190601f168015610c6f5780820380516001836020036101000a031916815260200191505b50858103825286518152865160209182019188019080838360005b83811015610ca2578181015183820152602001610c8a565b50505050905090810190601f168015610ccf5780820380516001836020036101000a031916815260200191505b509d505050505050505050505050505060405180910390f35b6103fc60048036036020811015610cfe57600080fd5b5035600160a060020a0316611fef565b6103fc60048036036040811015610d2457600080fd5b600160a060020a038235169190810190604081016020820135602060020a811115610d4e57600080fd5b820183602082011115610d6057600080fd5b803590602001918460018302840111602060020a83111715610d8157600080fd5b509092509050612042565b609a805460408051602060026001851615610100026000190190941693909304601f81018490048402820184019092528181529291830182828015610e125780601f10610de757610100808354040283529160200191610e12565b820191906000526020600020905b815481529060010190602001808311610df557829003601f168201915b505050505081565b6000838214610e72576040805160e560020a62461bcd0281526020600482015260196024820152603860020a78617272617973206d75737420626520657175616c2073697a6502604482015290519081900360640190fd5b60005b828110156111fa57610e85612e77565b6067898960405180838380828437808301925050509250505090815260200160405180910390206000888885818110610eba57fe5b90506020020135600160a060020a0316600160a060020a0316600160a060020a031681526020019081526020016000206000868685818110610ef857fe5b602090810292909201358352508181019290925260409081016000208151815460026001821615610100026000190190911604601f81018590049094028101610180908101909352610160810184815290939192849260c0840192859284928491870182828015610faa5780601f10610f7f57610100808354040283529160200191610faa565b820191906000526020600020905b815481529060010190602001808311610f8d57829003601f168201915b5050509183525050600182810154602080840191909152600280850154600160a060020a031660408086019190915260038601805482516101009682161596909602600019011692909204601f810184900484028501840190915280845260609094019390918301828280156110615780601f1061103657610100808354040283529160200191611061565b820191906000526020600020905b81548152906001019060200180831161104457829003601f168201915b50505091835250506004919091015460ff1615156020918201529082526005830154600160a060020a03168282015260068301805460408051601f600260001960018616156101000201909416939093049283018590048502810185018252828152940193928301828280156111185780601f106110ed57610100808354040283529160200191611118565b820191906000526020600020905b8154815290600101906020018083116110fb57829003601f168201915b5050509183525050600782015460ff80821615156020808501919091526101009283900490911615156040808501919091526008850180548251600260018316159096026000190190911694909404601f8101849004840285018401909252818452606090940193918301828280156111d25780601f106111a7576101008083540402835291602001916111d2565b820191906000526020600020905b8154815290600101906020018083116111b557829003601f168201915b505050505081525050905080606001516111f157600092505050611200565b50600101610e75565b50600190505b9695505050505050565b60015b90565b61121861174e565b61125a576040805160e560020a62461bcd0281526020600482018190526024820152600080516020613011833981519152604482015290519081900360640190fd5b600061134661130a8c8c8080601f01602080910402602001604051908101604052809392919081815260200183838082843760009201919091525050604080516020601f8f018190048102820181019092528d81528f935091508d908d908190840183828082843760009201919091525050604080516020601f8e018190048102820181019092528c81528e935091508c908c908190840183828082843760009201919091525061212492505050565b84848080601f01602080910402602001604051908101604052809392919081815260200183838082843760009201919091525061229892505050565b6040805160c06020601f8c01819004028201810190925260a081018a81529293509182918b908b90819085018382808284376000920191909152505050908252506020808201899052600160a060020a0384166040808401919091528051601f890183900483028101830190915287815260609092019190889088908190840183828082843760009201919091525050509082525060016020909101526040516066908d908d90808383808284379190910194855250506040805160209481900385019020600160a060020a03871660009081529085528181208f825285522084518051919461143b94508593500190612ec1565b5060208281015160018301556040830151600283018054600160a060020a031916600160a060020a03909216919091179055606083015180516114849260038501920190612ec1565b5060808201518160040160006101000a81548160ff0219169083151502179055509050508881600160a060020a03168c8c60405180838380828437808301925050509250505060405180910390207f948211ff998ef674c8d6231f619245e40220ab44340907b4df7c85d7568ba8378b8b428c60405180806020018481526020018381526020018281038252868682818152602001925080828437600083820152604051601f909101601f191690920182900397509095505050505050a45050505050505050505050565b61155761174e565b611599576040805160e560020a62461bcd0281526020600482018190526024820152600080516020613011833981519152604482015290519081900360640190fd5b603354604051600091600160a060020a031690600080516020613031833981519152908390a360338054600160a060020a0319169055565b6115d961174e565b61161b576040805160e560020a62461bcd0281526020600482018190526024820152600080516020613011833981519152604482015290519081900360640190fd5b6117318c8c8080601f01602080910402602001604051908101604052809392919081815260200183838082843760009201919091525050604080516020601f8f018190048102820181019092528d81528f935091508d908d908190840183828082843760009201919091525050604080516020601f8f018190048102820181019092528d815292508d91508c908190840183828082843760009201919091525050604080516020601f8d018190048102820181019092528b81528d935091508b908b908190840183828082843760009201919091525050604080516020601f8d018190048102820181019092528b81526001935091508b908b908190840183828082843760009201919091525061235792505050565b505050505050505050505050565b603354600160a060020a031690565b603354600090600160a060020a0316611765612ad1565b600160a060020a031614905090565b600054610100900460ff168061178d575061178d612ad5565b8061179b575060005460ff16155b6117d95760405160e560020a62461bcd02815260040180806020018281038252602e815260200180613051602e913960400191505060405180910390fd5b600054610100900460ff16158015611804576000805460ff1961ff0019909116610100171660011790555b61180d33611af6565b801561181f576000805461ff00191690555b50565b61182a61174e565b61186c576040805160e560020a62461bcd0281526020600482018190526024820152600080516020613011833981519152604482015290519081900360640190fd5b6117318c8c8080601f01602080910402602001604051908101604052809392919081815260200183838082843760009201919091525050604080516020601f8f018190048102820181019092528d81528f935091508d908d908190840183828082843760009201919091525050604080516020601f8f018190048102820181019092528d815292508d91508c908190840183828082843760009201919091525050604080516020601f8d018190048102820181019092528b81528d935091508b908b90819084018382808284376000920182905250604080516020601f8f018190048102820181019092528d81529194509092508c91508b908190840183828082843760009201919091525061235792505050565b82516020818501810180516066825292820195820195909520919094528352600091825260408083208452908252908190208054825160026001831615610100026000190190921691909104601f8101859004850282018501909352828152909290918391830182828015611a375780601f10611a0c57610100808354040283529160200191611a37565b820191906000526020600020905b815481529060010190602001808311611a1a57829003601f168201915b505050600180850154600280870154600388018054604080516020601f60001999851615610100029990990190931695909504968701829004820285018201905285845297989397600160a060020a039092169650929450909290830182828015611ae35780601f10611ab857610100808354040283529160200191611ae3565b820191906000526020600020905b815481529060010190602001808311611ac657829003601f168201915b5050506004909301549192505060ff1685565b600054610100900460ff1680611b0f5750611b0f612ad5565b80611b1d575060005460ff16155b611b5b5760405160e560020a62461bcd02815260040180806020018281038252602e815260200180613051602e913960400191505060405180910390fd5b600054610100900460ff16158015611b86576000805460ff1961ff0019909116610100171660011790555b60338054600160a060020a031916600160a060020a038481169190911791829055604051911690600090600080516020613031833981519152908290a38015611bd5576000805461ff00191690555b5050565b8051611bd590609a906020840190612ec1565b60606000806060600080606060006060611c04612e77565b60678d6040518082805190602001908083835b60208310611c365780518252601f199092019160209182019101611c17565b6001836020036101000a038019825116818451168082178552505050505050905001915050908152602001604051809103902060008d600160a060020a0316600160a060020a0316815260200190815260200160002060008c81526020019081526020016000206040518060c0016040529081600082016040518060a0016040529081600082018054600181600116156101000203166002900480601f016020809104026020016040519081016040528092919081815260200182805460018160011615610100020316600290048015611d515780601f10611d2657610100808354040283529160200191611d51565b820191906000526020600020905b815481529060010190602001808311611d3457829003601f168201915b5050509183525050600182810154602080840191909152600280850154600160a060020a031660408086019190915260038601805482516101009682161596909602600019011692909204601f81018490048402850184019091528084526060909401939091830182828015611e085780601f10611ddd57610100808354040283529160200191611e08565b820191906000526020600020905b815481529060010190602001808311611deb57829003601f168201915b50505091835250506004919091015460ff1615156020918201529082526005830154600160a060020a03168282015260068301805460408051601f60026000196001861615610100020190941693909304928301859004850281018501825282815294019392830182828015611ebf5780601f10611e9457610100808354040283529160200191611ebf565b820191906000526020600020905b815481529060010190602001808311611ea257829003601f168201915b5050509183525050600782015460ff80821615156020808501919091526101009283900490911615156040808501919091526008850180548251600260018316159096026000190190911694909404601f810184900484028501840190925281845260609094019391830182828015611f795780601f10611f4e57610100808354040283529160200191611f79565b820191906000526020600020905b815481529060010190602001808311611f5c57829003601f168201915b505050505081525050905080600001516000015181600001516020015182600001516040015183600001516060015184608001518560200151866040015187606001518860a001518898508595508292508090509950995099509950995099509950995099505093979b92969a50939750939750565b611ff761174e565b612039576040805160e560020a62461bcd0281526020600482018190526024820152600080516020613011833981519152604482015290519081900360640190fd5b61181f81612adb565b609b54610100900460ff168061205b5750609b5460ff16155b6120995760405160e560020a62461bcd02815260040180806020018281038252603181526020018061307f6031913960400191505060405180910390fd5b609b54610100900460ff161580156120c457609b805460ff1961ff0019909116610100171660011790555b6120cd84612adb565b61210c83838080601f016020809104026020016040519081016040528093929190818152602001838380828437600092019190915250611bd992505050565b801561211e57609b805461ff00191690555b50505050565b6000858585858560405160200180806020018681526020018060200185815260200180602001848103845289818151815260200191508051906020019080838360005b8381101561217f578181015183820152602001612167565b50505050905090810190601f1680156121ac5780820380516001836020036101000a031916815260200191505b50848103835287518152875160209182019189019080838360005b838110156121df5781810151838201526020016121c7565b50505050905090810190601f16801561220c5780820380516001836020036101000a031916815260200191505b50848103825285518152855160209182019187019080838360005b8381101561223f578181015183820152602001612227565b50505050905090810190601f16801561226c5780820380516001836020036101000a031916815260200191505b509850505050505050505060405160208183030381529060405280519060200120905095945050505050565b6000806040518060400160405280601c81526020017f19457468657265756d205369676e6564204d6573736167653a0a333200000000815250846040516020018083805190602001908083835b602083106123045780518252601f1990920191602091820191016122e5565b51815160209384036101000a60001901801990921691161790529201938452506040805180850381529382019052825192019190912092506000915061234c90508285612b6d565b925050505b92915050565b61235f61174e565b6123a1576040805160e560020a62461bcd0281526020600482018190526024820152600080516020613011833981519152604482015290519081900360640190fd5b60006123bb6123b58a8a8a8a8a8a8a612c51565b83612298565b9050600060668a6040518082805190602001908083835b602083106123f15780518252601f1990920191602091820191016123d2565b51815160209384036101000a600019018019909216911617905292019485525060408051948590038201909420600160a060020a038b1660009081529082528481208e825290915292909220600481015490935060ff16915061249b9050576040805160e560020a62461bcd0281526020600482015260156024820152605a60020a7410db185a5b481dd85cdb89dd081c1c9bdc1bdcd95902604482015290519081900360640190fd5b805460408051602060026001851615610100026000190190941693909304601f810184900484028201840190925281815261253092909184918301828280156125255780601f106124fa57610100808354040283529160200191612525565b820191906000526020600020905b81548152906001019060200180831161250857829003601f168201915b505050505089612e4c565b61256e5760405160e560020a62461bcd028152600401808060200182810382526035815260200180612fdc6035913960400191505060405180910390fd5b60678a6040518082805190602001908083835b602083106125a05780518252601f199092019160209182019101612581565b6001836020036101000a0380198251168184511680821785525050505050509050019150509081526020016040518091039020600083600160a060020a0316600160a060020a0316815260200190815260200160002060008a815260200190815260200160002060070160019054906101000a900460ff16156126575760405160e560020a62461bcd028152600401808060200182810382526022815260200180612f946022913960400191505060405180910390fd5b6040805182546101806020601f60026000196101006001871615020190941693909304928301819004028301810190935261016082018181529192839260c0840192869284929184918701828280156126f15780601f106126c6576101008083540402835291602001916126f1565b820191906000526020600020905b8154815290600101906020018083116126d457829003601f168201915b5050509183525050600182810154602080840191909152600280850154600160a060020a031660408086019190915260038601805482516101009682161596909602600019011692909204601f810184900484028501840190915280845260609094019390918301828280156127a85780601f1061277d576101008083540402835291602001916127a8565b820191906000526020600020905b81548152906001019060200180831161278b57829003601f168201915b50505091835250506004919091015460ff161515602091820152908252600160a060020a03851682820152604080830189905287151560608401526001608084015260a09092018a905290518c516067928e929182918401908083835b602083106128245780518252601f199092019160209182019101612805565b51815160209384036101000a600019018019909216911617905292019485525060408051948590038201909420600160a060020a03881660009081529082528481208f8252825293909320845180518051929591945085935061288d9284929190910190612ec1565b5060208281015160018301556040830151600283018054600160a060020a031916600160a060020a03909216919091179055606083015180516128d69260038501920190612ec1565b50608091909101516004909101805460ff1916911515919091179055602082810151600583018054600160a060020a031916600160a060020a03909216919091179055604083015180516129309260068501920190612ec1565b506060820151600782018054608085015115156101000261ff001993151560ff19909216919091179290921691909117905560a0820151805161297d916008840191602090910190612ec1565b509050508882600160a060020a03168b6040518082805190602001908083835b602083106129bc5780518252601f19909201916020918201910161299d565b6001836020036101000a03801982511681845116808217855250505050505090500191505060405180910390207fe50a5746eceacbf9a0b2372f451302d69b0b9859fa5af5d44cd311feb376b0d38785600001428760010154604051808515151515815260200180602001848152602001838152602001828103825285818154600181600116156101000203166002900481526020019150805460018160011615610100020316600290048015612ab45780601f10612a8957610100808354040283529160200191612ab4565b820191906000526020600020905b815481529060010190602001808311612a9757829003601f168201915b50509550505050505060405180910390a450505050505050505050565b3390565b303b1590565b600160a060020a038116612b235760405160e560020a62461bcd028152600401808060200182810382526026815260200180612fb66026913960400191505060405180910390fd5b603354604051600160a060020a0380841692169060008051602061303183398151915290600090a360338054600160a060020a031916600160a060020a0392909216919091179055565b60008151604114612b8057506000612351565b60208201516040830151606084015160001a6fa2a8918ca85bafe22016d0b997e4df6060ff60020a03821115612bbc5760009350505050612351565b8060ff16601b14158015612bd457508060ff16601c14155b15612be55760009350505050612351565b6040805160008152602080820180845289905260ff8416828401526060820186905260808201859052915160019260a0808401939192601f1981019281900390910190855afa158015612c3c573d6000803e3d6000fd5b5050604051601f190151979650505050505050565b6000878787878787876040516020018080602001888152602001806020018060200187600160a060020a0316600160a060020a03168152602001806020018615151515815260200185810385528c818151815260200191508051906020019080838360005b83811015612cce578181015183820152602001612cb6565b50505050905090810190601f168015612cfb5780820380516001836020036101000a031916815260200191505b5085810384528a5181528a516020918201918c019080838360005b83811015612d2e578181015183820152602001612d16565b50505050905090810190601f168015612d5b5780820380516001836020036101000a031916815260200191505b5085810383528951815289516020918201918b019080838360005b83811015612d8e578181015183820152602001612d76565b50505050905090810190601f168015612dbb5780820380516001836020036101000a031916815260200191505b50858103825287518152875160209182019189019080838360005b83811015612dee578181015183820152602001612dd6565b50505050905090810190601f168015612e1b5780820380516001836020036101000a031916815260200191505b509b505050505050505050505050604051602081830303815290604052805190602001209050979650505050505050565b60008151835114612e5f57506000612351565b81805190602001208380519060200120149050612351565b604051806101400160405280612e8b612f3f565b81526020016000600160a060020a0316815260200160608152602001600015158152602001600015158152602001606081525090565b828054600181600116156101000203166002900490600052602060002090601f016020900481019282601f10612f0257805160ff1916838001178555612f2f565b82800160010185558215612f2f579182015b82811115612f2f578251825591602001919060010190612f14565b50612f3b929150612f79565b5090565b6040518060a0016040528060608152602001600081526020016000600160a060020a03168152602001606081526020016000151581525090565b61120d91905b80821115612f3b5760008155600101612f7f56fe41756469746f7220616c72656164792061756469746564207468697320636c61696d4f776e61626c653a206e6577206f776e657220697320746865207a65726f2061646472657373436c61696d2070726f706f73616c2068617320646966666572656e742070726f6f662068617368207468616e2065787065637465644f776e61626c653a2063616c6c6572206973206e6f7420746865206f776e65728be0079c531659141344cd1fd0a4f28419497f9722a3daafe3b4186f6b6457e0436f6e747261637420696e7374616e63652068617320616c7265616479206265656e20696e697469616c697a6564436f6e747261637420696e7374616e63652068617320616c7265616479206265656e20757067726164656420746f207631a165627a7a72305820cb823acc973e645050ede486f1bd13cc6b947914b11cbfc0c61a110eb01f043e0029",
  "linkReferences": {},
  "deployedLinkReferences": {}
}