{
  "_format": "hh-sol-artifact-1",
  "contractName": "ClaimsRegistry",
  "sourceName": "src/contracts/ClaimsRegistry.sol",
  "abi": [
    {
      "constant": true,
      "inputs": [
        {
          "name": "_projectId",
          "type": "string"
        },
        {
          "name": "_auditors",
          "type": "address[]"
        },
        {
          "name": "_claims",
          "type": "bytes32[]"
        }
      ],
      "name": "areApproved",
      "outputs": [
        {
          "name": "",
          "type": "bool"
        }
      ],
      "payable": false,
      "stateMutability": "view",
      "type": "function"
    },
    {
      "constant": false,
      "inputs": [
        {
          "name": "_projectId",
          "type": "string"
        },
        {
          "name": "_claimHash",
          "type": "bytes32"
        },
        {
          "name": "_proofHash",
          "type": "string"
        },
        {
          "name": "_activityId",
          "type": "uint256"
        },
        {
          "name": "_proposerEmail",
          "type": "string"
        },
        {
          "name": "_authorizationSignature",
          "type": "bytes"
        }
      ],
      "name": "proposeClaim",
      "outputs": [],
      "payable": false,
      "stateMutability": "nonpayable",
      "type": "function"
    },
    {
      "constant": false,
      "inputs": [],
      "name": "renounceOwnership",
      "outputs": [],
      "payable": false,
      "stateMutability": "nonpayable",
      "type": "function"
    },
    {
      "constant": false,
      "inputs": [
        {
          "name": "_projectId",
          "type": "string"
        },
        {
          "name": "_claimHash",
          "type": "bytes32"
        },
        {
          "name": "_proposalProofHash",
          "type": "string"
        },
        {
          "name": "_auditIpfsHash",
          "type": "string"
        },
        {
          "name": "_proposerAddress",
          "type": "address"
        },
        {
          "name": "_auditorEmail",
          "type": "string"
        },
        {
          "name": "_authorizationSignature",
          "type": "bytes"
        }
      ],
      "name": "submitClaimApproval",
      "outputs": [],
      "payable": false,
      "stateMutability": "nonpayable",
      "type": "function"
    },
    {
      "constant": true,
      "inputs": [],
      "name": "owner",
      "outputs": [
        {
          "name": "",
          "type": "address"
        }
      ],
      "payable": false,
      "stateMutability": "view",
      "type": "function"
    },
    {
      "constant": true,
      "inputs": [],
      "name": "isOwner",
      "outputs": [
        {
          "name": "",
          "type": "bool"
        }
      ],
      "payable": false,
      "stateMutability": "view",
      "type": "function"
    },
    {
      "constant": false,
      "inputs": [],
      "name": "registryInitialize",
      "outputs": [],
      "payable": false,
      "stateMutability": "nonpayable",
      "type": "function"
    },
    {
      "constant": false,
      "inputs": [
        {
          "name": "_projectId",
          "type": "string"
        },
        {
          "name": "_claimHash",
          "type": "bytes32"
        },
        {
          "name": "_proposalProofHash",
          "type": "string"
        },
        {
          "name": "_auditIpfsHash",
          "type": "string"
        },
        {
          "name": "_proposerAddress",
          "type": "address"
        },
        {
          "name": "_auditorEmail",
          "type": "string"
        },
        {
          "name": "_authorizationSignature",
          "type": "bytes"
        }
      ],
      "name": "submitClaimRejection",
      "outputs": [],
      "payable": false,
      "stateMutability": "nonpayable",
      "type": "function"
    },
    {
      "constant": true,
      "inputs": [
        {
          "name": "",
          "type": "string"
        },
        {
          "name": "",
          "type": "address"
        },
        {
          "name": "",
          "type": "bytes32"
        }
      ],
      "name": "registryProposedClaims",
      "outputs": [
        {
          "name": "proofHash",
          "type": "string"
        },
        {
          "name": "activityId",
          "type": "uint256"
        },
        {
          "name": "proposerAddress",
          "type": "address"
        },
        {
          "name": "proposerEmail",
          "type": "string"
        },
        {
          "name": "exists",
          "type": "bool"
        }
      ],
      "payable": false,
      "stateMutability": "view",
      "type": "function"
    },
    {
      "constant": false,
      "inputs": [
        {
          "name": "sender",
          "type": "address"
        }
      ],
      "name": "initialize",
      "outputs": [],
      "payable": false,
      "stateMutability": "nonpayable",
      "type": "function"
    },
    {
      "constant": true,
      "inputs": [
        {
          "name": "_projectId",
          "type": "string"
        },
        {
          "name": "_auditorAddress",
          "type": "address"
        },
        {
          "name": "_claimHash",
          "type": "bytes32"
        }
      ],
      "name": "getClaimAudit",
      "outputs": [
        {
          "name": "",
          "type": "string"
        },
        {
          "name": "",
          "type": "uint256"
        },
        {
          "name": "",
          "type": "address"
        },
        {
          "name": "",
          "type": "string"
        },
        {
          "name": "",
          "type": "bool"
        },
        {
          "name": "",
          "type": "address"
        },
        {
          "name": "",
          "type": "string"
        },
        {
          "name": "",
          "type": "bool"
        },
        {
          "name": "",
          "type": "string"
        }
      ],
      "payable": false,
      "stateMutability": "view",
      "type": "function"
    },
    {
      "constant": false,
      "inputs": [
        {
          "name": "newOwner",
          "type": "address"
        }
      ],
      "name": "transferOwnership",
      "outputs": [],
      "payable": false,
      "stateMutability": "nonpayable",
      "type": "function"
    },
    {
      "anonymous": false,
      "inputs": [
        {
          "indexed": true,
          "name": "previousOwner",
          "type": "address"
        },
        {
          "indexed": true,
          "name": "newOwner",
          "type": "address"
        }
      ],
      "name": "OwnershipTransferred",
      "type": "event"
    },
    {
      "anonymous": false,
      "inputs": [
        {
          "indexed": true,
          "name": "projectId",
          "type": "string"
        },
        {
          "indexed": true,
          "name": "proposer",
          "type": "address"
        },
        {
          "indexed": true,
          "name": "claimHash",
          "type": "bytes32"
        },
        {
          "indexed": false,
          "name": "proofHash",
          "type": "string"
        },
        {
          "indexed": false,
          "name": "proposedAt",
          "type": "uint256"
        },
        {
          "indexed": false,
          "name": "activityId",
          "type": "uint256"
        }
      ],
      "name": "ClaimProposed",
      "type": "event"
    },
    {
      "anonymous": false,
      "inputs": [
        {
          "indexed": true,
          "name": "projectId",
          "type": "string"
        },
        {
          "indexed": true,
          "name": "auditor",
          "type": "address"
        },
        {
          "indexed": true,
          "name": "claimHash",
          "type": "bytes32"
        },
        {
          "indexed": false,
          "name": "_approved",
          "type": "bool"
        },
        {
          "indexed": false,
          "name": "proofHash",
          "type": "string"
        },
        {
          "indexed": false,
          "name": "verifiedAt",
          "type": "uint256"
        },
        {
          "indexed": false,
          "name": "activityId",
          "type": "uint256"
        }
      ],
      "name": "ClaimAudited",
      "type": "event"
    }
  ],
  "bytecode": "0x6080604052612d38806100136000396000f3fe608060405234801561001057600080fd5b50600436106100a75760e060020a600035046317b9752081146100ac5780635d9e7802146101ce578063715018a614610336578063862e968c1461033e5780638da5cb5b146104fd5780638f32d59b146105215780639506ec0114610529578063a92badca14610531578063ae14ecf7146106f0578063c4d66de8146108ab578063e6c29396146108d1578063f2fde38b14610b7c575b600080fd5b6101ba600480360360608110156100c257600080fd5b810190602081018135602060020a8111156100dc57600080fd5b8201836020820111156100ee57600080fd5b803590602001918460018302840111602060020a8311171561010f57600080fd5b919390929091602081019035602060020a81111561012c57600080fd5b82018360208201111561013e57600080fd5b803590602001918460208302840111602060020a8311171561015f57600080fd5b919390929091602081019035602060020a81111561017c57600080fd5b82018360208201111561018e57600080fd5b803590602001918460208302840111602060020a831117156101af57600080fd5b509092509050610ba2565b604080519115158252519081900360200190f35b610334600480360360c08110156101e457600080fd5b810190602081018135602060020a8111156101fe57600080fd5b82018360208201111561021057600080fd5b803590602001918460018302840111602060020a8311171561023157600080fd5b91939092823592604081019060200135602060020a81111561025257600080fd5b82018360208201111561026457600080fd5b803590602001918460018302840111602060020a8311171561028557600080fd5b91939092823592604081019060200135602060020a8111156102a657600080fd5b8201836020820111156102b857600080fd5b803590602001918460018302840111602060020a831117156102d957600080fd5b919390929091602081019035602060020a8111156102f657600080fd5b82018360208201111561030857600080fd5b803590602001918460018302840111602060020a8311171561032957600080fd5b509092509050610f92565b005b6103346112d1565b610334600480360360e081101561035457600080fd5b810190602081018135602060020a81111561036e57600080fd5b82018360208201111561038057600080fd5b803590602001918460018302840111602060020a831117156103a157600080fd5b91939092823592604081019060200135602060020a8111156103c257600080fd5b8201836020820111156103d457600080fd5b803590602001918460018302840111602060020a831117156103f557600080fd5b919390929091602081019035602060020a81111561041257600080fd5b82018360208201111561042457600080fd5b803590602001918460018302840111602060020a8311171561044557600080fd5b91939092600160a060020a0383351692604081019060200135602060020a81111561046f57600080fd5b82018360208201111561048157600080fd5b803590602001918460018302840111602060020a831117156104a257600080fd5b919390929091602081019035602060020a8111156104bf57600080fd5b8201836020820111156104d157600080fd5b803590602001918460018302840111602060020a831117156104f257600080fd5b509092509050611353565b6105056114c1565b60408051600160a060020a039092168252519081900360200190f35b6101ba6114d1565b6103346114f7565b610334600480360360e081101561054757600080fd5b810190602081018135602060020a81111561056157600080fd5b82018360208201111561057357600080fd5b803590602001918460018302840111602060020a8311171561059457600080fd5b91939092823592604081019060200135602060020a8111156105b557600080fd5b8201836020820111156105c757600080fd5b803590602001918460018302840111602060020a831117156105e857600080fd5b919390929091602081019035602060020a81111561060557600080fd5b82018360208201111561061757600080fd5b803590602001918460018302840111602060020a8311171561063857600080fd5b91939092600160a060020a0383351692604081019060200135602060020a81111561066257600080fd5b82018360208201111561067457600080fd5b803590602001918460018302840111602060020a8311171561069557600080fd5b919390929091602081019035602060020a8111156106b257600080fd5b8201836020820111156106c457600080fd5b803590602001918460018302840111602060020a831117156106e557600080fd5b5090925090506115a5565b6107a26004803603606081101561070657600080fd5b810190602081018135602060020a81111561072057600080fd5b82018360208201111561073257600080fd5b803590602001918460018302840111602060020a8311171561075357600080fd5b91908080601f01602080910402602001604051908101604052809392919081815260200183838082843760009201919091525092955050600160a060020a038335169350505060200135611704565b604051808060200186815260200185600160a060020a0316600160a060020a031681526020018060200184151515158152602001838103835288818151815260200191508051906020019080838360005b8381101561080b5781810151838201526020016107f3565b50505050905090810190601f1680156108385780820380516001836020036101000a031916815260200191505b50838103825285518152855160209182019187019080838360005b8381101561086b578181015183820152602001610853565b50505050905090810190601f1680156108985780820380516001836020036101000a031916815260200191505b5097505050505050505060405180910390f35b610334600480360360208110156108c157600080fd5b5035600160a060020a0316611879565b610983600480360360608110156108e757600080fd5b810190602081018135602060020a81111561090157600080fd5b82018360208201111561091357600080fd5b803590602001918460018302840111602060020a8311171561093457600080fd5b91908080601f01602080910402602001604051908101604052809392919081815260200183838082843760009201919091525092955050600160a060020a03833516935050506020013561195c565b60405180806020018a815260200189600160a060020a0316600160a060020a03168152602001806020018815151515815260200187600160a060020a0316600160a060020a0316815260200180602001861515151581526020018060200185810385528e818151815260200191508051906020019080838360005b83811015610a165781810151838201526020016109fe565b50505050905090810190601f168015610a435780820380516001836020036101000a031916815260200191505b5085810384528b5181528b516020918201918d019080838360005b83811015610a76578181015183820152602001610a5e565b50505050905090810190601f168015610aa35780820380516001836020036101000a031916815260200191505b5085810383528851815288516020918201918a019080838360005b83811015610ad6578181015183820152602001610abe565b50505050905090810190601f168015610b035780820380516001836020036101000a031916815260200191505b50858103825286518152865160209182019188019080838360005b83811015610b36578181015183820152602001610b1e565b50505050905090810190601f168015610b635780820380516001836020036101000a031916815260200191505b509d505050505050505050505050505060405180910390f35b61033460048036036020811015610b9257600080fd5b5035600160a060020a0316611d5f565b6000838214610bfa576040805160e560020a62461bcd0281526020600482015260196024820152603860020a78617272617973206d75737420626520657175616c2073697a6502604482015290519081900360640190fd5b60005b82811015610f8257610c0d612b05565b6067898960405180838380828437808301925050509250505090815260200160405180910390206000888885818110610c4257fe5b90506020020135600160a060020a0316600160a060020a0316600160a060020a031681526020019081526020016000206000868685818110610c8057fe5b602090810292909201358352508181019290925260409081016000208151815460026001821615610100026000190190911604601f81018590049094028101610180908101909352610160810184815290939192849260c0840192859284928491870182828015610d325780601f10610d0757610100808354040283529160200191610d32565b820191906000526020600020905b815481529060010190602001808311610d1557829003601f168201915b5050509183525050600182810154602080840191909152600280850154600160a060020a031660408086019190915260038601805482516101009682161596909602600019011692909204601f81018490048402850184019091528084526060909401939091830182828015610de95780601f10610dbe57610100808354040283529160200191610de9565b820191906000526020600020905b815481529060010190602001808311610dcc57829003601f168201915b50505091835250506004919091015460ff1615156020918201529082526005830154600160a060020a03168282015260068301805460408051601f60026000196001861615610100020190941693909304928301859004850281018501825282815294019392830182828015610ea05780601f10610e7557610100808354040283529160200191610ea0565b820191906000526020600020905b815481529060010190602001808311610e8357829003601f168201915b5050509183525050600782015460ff80821615156020808501919091526101009283900490911615156040808501919091526008850180548251600260018316159096026000190190911694909404601f810184900484028501840190925281845260609094019391830182828015610f5a5780601f10610f2f57610100808354040283529160200191610f5a565b820191906000526020600020905b815481529060010190602001808311610f3d57829003601f168201915b50505050508152505090508060600151610f7957600092505050610f88565b50600101610bfd565b50600190505b9695505050505050565b610f9a6114d1565b610fdc576040805160e560020a62461bcd0281526020600482018190526024820152600080516020612c9f833981519152604482015290519081900360640190fd5b60006110c861108c8c8c8080601f01602080910402602001604051908101604052809392919081815260200183838082843760009201919091525050604080516020601f8f018190048102820181019092528d81528f935091508d908d908190840183828082843760009201919091525050604080516020601f8e018190048102820181019092528c81528e935091508c908c9081908401838280828437600092019190915250611db292505050565b84848080601f016020809104026020016040519081016040528093929190818152602001838380828437600092019190915250611f2692505050565b6040805160c06020601f8c01819004028201810190925260a081018a81529293509182918b908b90819085018382808284376000920191909152505050908252506020808201899052600160a060020a0384166040808401919091528051601f890183900483028101830190915287815260609092019190889088908190840183828082843760009201919091525050509082525060016020909101526040516066908d908d90808383808284379190910194855250506040805160209481900385019020600160a060020a03871660009081529085528181208f82528552208451805191946111bd94508593500190612b4f565b5060208281015160018301556040830151600283018054600160a060020a031916600160a060020a03909216919091179055606083015180516112069260038501920190612b4f565b5060808201518160040160006101000a81548160ff0219169083151502179055509050508881600160a060020a03168c8c60405180838380828437808301925050509250505060405180910390207f948211ff998ef674c8d6231f619245e40220ab44340907b4df7c85d7568ba8378b8b428c60405180806020018481526020018381526020018281038252868682818152602001925080828437600083820152604051601f909101601f191690920182900397509095505050505050a45050505050505050505050565b6112d96114d1565b61131b576040805160e560020a62461bcd0281526020600482018190526024820152600080516020612c9f833981519152604482015290519081900360640190fd5b603354604051600091600160a060020a031690600080516020612cbf833981519152908390a360338054600160a060020a0319169055565b61135b6114d1565b61139d576040805160e560020a62461bcd0281526020600482018190526024820152600080516020612c9f833981519152604482015290519081900360640190fd5b6114b38c8c8080601f01602080910402602001604051908101604052809392919081815260200183838082843760009201919091525050604080516020601f8f018190048102820181019092528d81528f935091508d908d908190840183828082843760009201919091525050604080516020601f8f018190048102820181019092528d815292508d91508c908190840183828082843760009201919091525050604080516020601f8d018190048102820181019092528b81528d935091508b908b908190840183828082843760009201919091525050604080516020601f8d018190048102820181019092528b81526001935091508b908b9081908401838280828437600092019190915250611fe592505050565b505050505050505050505050565b603354600160a060020a03165b90565b603354600090600160a060020a03166114e861275f565b600160a060020a031614905090565b600054610100900460ff16806115105750611510612763565b8061151e575060005460ff16155b61155c5760405160e560020a62461bcd02815260040180806020018281038252602e815260200180612cdf602e913960400191505060405180910390fd5b600054610100900460ff16158015611587576000805460ff1961ff0019909116610100171660011790555b61159033611879565b80156115a2576000805461ff00191690555b50565b6115ad6114d1565b6115ef576040805160e560020a62461bcd0281526020600482018190526024820152600080516020612c9f833981519152604482015290519081900360640190fd5b6114b38c8c8080601f01602080910402602001604051908101604052809392919081815260200183838082843760009201919091525050604080516020601f8f018190048102820181019092528d81528f935091508d908d908190840183828082843760009201919091525050604080516020601f8f018190048102820181019092528d815292508d91508c908190840183828082843760009201919091525050604080516020601f8d018190048102820181019092528b81528d935091508b908b90819084018382808284376000920182905250604080516020601f8f018190048102820181019092528d81529194509092508c91508b9081908401838280828437600092019190915250611fe592505050565b82516020818501810180516066825292820195820195909520919094528352600091825260408083208452908252908190208054825160026001831615610100026000190190921691909104601f81018590048502820185019093528281529092909183918301828280156117ba5780601f1061178f576101008083540402835291602001916117ba565b820191906000526020600020905b81548152906001019060200180831161179d57829003601f168201915b505050600180850154600280870154600388018054604080516020601f60001999851615610100029990990190931695909504968701829004820285018201905285845297989397600160a060020a0390921696509294509092908301828280156118665780601f1061183b57610100808354040283529160200191611866565b820191906000526020600020905b81548152906001019060200180831161184957829003601f168201915b5050506004909301549192505060ff1685565b600054610100900460ff16806118925750611892612763565b806118a0575060005460ff16155b6118de5760405160e560020a62461bcd02815260040180806020018281038252602e815260200180612cdf602e913960400191505060405180910390fd5b600054610100900460ff16158015611909576000805460ff1961ff0019909116610100171660011790555b60338054600160a060020a031916600160a060020a038481169190911791829055604051911690600090600080516020612cbf833981519152908290a38015611958576000805461ff00191690555b5050565b60606000806060600080606060006060611974612b05565b60678d6040518082805190602001908083835b602083106119a65780518252601f199092019160209182019101611987565b6001836020036101000a038019825116818451168082178552505050505050905001915050908152602001604051809103902060008d600160a060020a0316600160a060020a0316815260200190815260200160002060008c81526020019081526020016000206040518060c0016040529081600082016040518060a0016040529081600082018054600181600116156101000203166002900480601f016020809104026020016040519081016040528092919081815260200182805460018160011615610100020316600290048015611ac15780601f10611a9657610100808354040283529160200191611ac1565b820191906000526020600020905b815481529060010190602001808311611aa457829003601f168201915b5050509183525050600182810154602080840191909152600280850154600160a060020a031660408086019190915260038601805482516101009682161596909602600019011692909204601f81018490048402850184019091528084526060909401939091830182828015611b785780601f10611b4d57610100808354040283529160200191611b78565b820191906000526020600020905b815481529060010190602001808311611b5b57829003601f168201915b50505091835250506004919091015460ff1615156020918201529082526005830154600160a060020a03168282015260068301805460408051601f60026000196001861615610100020190941693909304928301859004850281018501825282815294019392830182828015611c2f5780601f10611c0457610100808354040283529160200191611c2f565b820191906000526020600020905b815481529060010190602001808311611c1257829003601f168201915b5050509183525050600782015460ff80821615156020808501919091526101009283900490911615156040808501919091526008850180548251600260018316159096026000190190911694909404601f810184900484028501840190925281845260609094019391830182828015611ce95780601f10611cbe57610100808354040283529160200191611ce9565b820191906000526020600020905b815481529060010190602001808311611ccc57829003601f168201915b505050505081525050905080600001516000015181600001516020015182600001516040015183600001516060015184608001518560200151866040015187606001518860a001518898508595508292508090509950995099509950995099509950995099505093979b92969a50939750939750565b611d676114d1565b611da9576040805160e560020a62461bcd0281526020600482018190526024820152600080516020612c9f833981519152604482015290519081900360640190fd5b6115a281612769565b6000858585858560405160200180806020018681526020018060200185815260200180602001848103845289818151815260200191508051906020019080838360005b83811015611e0d578181015183820152602001611df5565b50505050905090810190601f168015611e3a5780820380516001836020036101000a031916815260200191505b50848103835287518152875160209182019189019080838360005b83811015611e6d578181015183820152602001611e55565b50505050905090810190601f168015611e9a5780820380516001836020036101000a031916815260200191505b50848103825285518152855160209182019187019080838360005b83811015611ecd578181015183820152602001611eb5565b50505050905090810190601f168015611efa5780820380516001836020036101000a031916815260200191505b509850505050505050505060405160208183030381529060405280519060200120905095945050505050565b6000806040518060400160405280601c81526020017f19457468657265756d205369676e6564204d6573736167653a0a333200000000815250846040516020018083805190602001908083835b60208310611f925780518252601f199092019160209182019101611f73565b51815160209384036101000a600019018019909216911617905292019384525060408051808503815293820190528251920191909120925060009150611fda905082856127fb565b925050505b92915050565b611fed6114d1565b61202f576040805160e560020a62461bcd0281526020600482018190526024820152600080516020612c9f833981519152604482015290519081900360640190fd5b60006120496120438a8a8a8a8a8a8a6128df565b83611f26565b9050600060668a6040518082805190602001908083835b6020831061207f5780518252601f199092019160209182019101612060565b51815160209384036101000a600019018019909216911617905292019485525060408051948590038201909420600160a060020a038b1660009081529082528481208e825290915292909220600481015490935060ff1691506121299050576040805160e560020a62461bcd0281526020600482015260156024820152605a60020a7410db185a5b481dd85cdb89dd081c1c9bdc1bdcd95902604482015290519081900360640190fd5b805460408051602060026001851615610100026000190190941693909304601f81018490048402820184019092528181526121be92909184918301828280156121b35780601f10612188576101008083540402835291602001916121b3565b820191906000526020600020905b81548152906001019060200180831161219657829003601f168201915b505050505089612ada565b6121fc5760405160e560020a62461bcd028152600401808060200182810382526035815260200180612c6a6035913960400191505060405180910390fd5b60678a6040518082805190602001908083835b6020831061222e5780518252601f19909201916020918201910161220f565b6001836020036101000a0380198251168184511680821785525050505050509050019150509081526020016040518091039020600083600160a060020a0316600160a060020a0316815260200190815260200160002060008a815260200190815260200160002060070160019054906101000a900460ff16156122e55760405160e560020a62461bcd028152600401808060200182810382526022815260200180612c226022913960400191505060405180910390fd5b6040805182546101806020601f60026000196101006001871615020190941693909304928301819004028301810190935261016082018181529192839260c08401928692849291849187018282801561237f5780601f106123545761010080835404028352916020019161237f565b820191906000526020600020905b81548152906001019060200180831161236257829003601f168201915b5050509183525050600182810154602080840191909152600280850154600160a060020a031660408086019190915260038601805482516101009682161596909602600019011692909204601f810184900484028501840190915280845260609094019390918301828280156124365780601f1061240b57610100808354040283529160200191612436565b820191906000526020600020905b81548152906001019060200180831161241957829003601f168201915b50505091835250506004919091015460ff161515602091820152908252600160a060020a03851682820152604080830189905287151560608401526001608084015260a09092018a905290518c516067928e929182918401908083835b602083106124b25780518252601f199092019160209182019101612493565b51815160209384036101000a600019018019909216911617905292019485525060408051948590038201909420600160a060020a03881660009081529082528481208f8252825293909320845180518051929591945085935061251b9284929190910190612b4f565b5060208281015160018301556040830151600283018054600160a060020a031916600160a060020a03909216919091179055606083015180516125649260038501920190612b4f565b50608091909101516004909101805460ff1916911515919091179055602082810151600583018054600160a060020a031916600160a060020a03909216919091179055604083015180516125be9260068501920190612b4f565b506060820151600782018054608085015115156101000261ff001993151560ff19909216919091179290921691909117905560a0820151805161260b916008840191602090910190612b4f565b509050508882600160a060020a03168b6040518082805190602001908083835b6020831061264a5780518252601f19909201916020918201910161262b565b6001836020036101000a03801982511681845116808217855250505050505090500191505060405180910390207fe50a5746eceacbf9a0b2372f451302d69b0b9859fa5af5d44cd311feb376b0d387856000014287600101546040518085151515158152602001806020018481526020018381526020018281038252858181546001816001161561010002031660029004815260200191508054600181600116156101000203166002900480156127425780601f1061271757610100808354040283529160200191612742565b820191906000526020600020905b81548152906001019060200180831161272557829003601f168201915b50509550505050505060405180910390a450505050505050505050565b3390565b303b1590565b600160a060020a0381166127b15760405160e560020a62461bcd028152600401808060200182810382526026815260200180612c446026913960400191505060405180910390fd5b603354604051600160a060020a03808416921690600080516020612cbf83398151915290600090a360338054600160a060020a031916600160a060020a0392909216919091179055565b6000815160411461280e57506000611fdf565b60208201516040830151606084015160001a6fa2a8918ca85bafe22016d0b997e4df6060ff60020a0382111561284a5760009350505050611fdf565b8060ff16601b1415801561286257508060ff16601c14155b156128735760009350505050611fdf565b6040805160008152602080820180845289905260ff8416828401526060820186905260808201859052915160019260a0808401939192601f1981019281900390910190855afa1580156128ca573d6000803e3d6000fd5b5050604051601f190151979650505050505050565b6000878787878787876040516020018080602001888152602001806020018060200187600160a060020a0316600160a060020a03168152602001806020018615151515815260200185810385528c818151815260200191508051906020019080838360005b8381101561295c578181015183820152602001612944565b50505050905090810190601f1680156129895780820380516001836020036101000a031916815260200191505b5085810384528a5181528a516020918201918c019080838360005b838110156129bc5781810151838201526020016129a4565b50505050905090810190601f1680156129e95780820380516001836020036101000a031916815260200191505b5085810383528951815289516020918201918b019080838360005b83811015612a1c578181015183820152602001612a04565b50505050905090810190601f168015612a495780820380516001836020036101000a031916815260200191505b50858103825287518152875160209182019189019080838360005b83811015612a7c578181015183820152602001612a64565b50505050905090810190601f168015612aa95780820380516001836020036101000a031916815260200191505b509b505050505050505050505050604051602081830303815290604052805190602001209050979650505050505050565b60008151835114612aed57506000611fdf565b81805190602001208380519060200120149050611fdf565b604051806101400160405280612b19612bcd565b81526020016000600160a060020a0316815260200160608152602001600015158152602001600015158152602001606081525090565b828054600181600116156101000203166002900490600052602060002090601f016020900481019282601f10612b9057805160ff1916838001178555612bbd565b82800160010185558215612bbd579182015b82811115612bbd578251825591602001919060010190612ba2565b50612bc9929150612c07565b5090565b6040518060a0016040528060608152602001600081526020016000600160a060020a03168152602001606081526020016000151581525090565b6114ce91905b80821115612bc95760008155600101612c0d56fe41756469746f7220616c72656164792061756469746564207468697320636c61696d4f776e61626c653a206e6577206f776e657220697320746865207a65726f2061646472657373436c61696d2070726f706f73616c2068617320646966666572656e742070726f6f662068617368207468616e2065787065637465644f776e61626c653a2063616c6c6572206973206e6f7420746865206f776e65728be0079c531659141344cd1fd0a4f28419497f9722a3daafe3b4186f6b6457e0436f6e747261637420696e7374616e63652068617320616c7265616479206265656e20696e697469616c697a6564a165627a7a72305820327c9cfe3be86bafdd0edd308a059036ddcbd40152450547655dd51fc4762e090029",
  "linkReferences": {},
  "deployedLinkReferences": {}
}